:1000000000000320D1010000F91A0000B11A00001D
:10001000B11A0000B11A0000B11A0000B11A0000B4
:10002000B11A0000B11A0000B11A0000F91A00005C
:10003000F91A0000B11A0000555000005951000093
:10004000F91A0000F91A0000F91A0000F91A000064
:10005000F91A0000F91A0000F91A0000F91A000054
:10006000F91A0000F91A0000F91A0000F91A000044
:10007000F91A0000F91A0000F91A0000F91A000034
:10008000F91A0000F91A0000F91A0000F91A000024
:10009000F91A0000F91A0000F91A0000F91A000014
:1000A000F91A0000F91A0000F91A0000F91A000004
:1000B000F91A0000F91A0000F91A00002D260000B4
:1000C000F91A0000892D0000F91A00000933000018
:1000D000F91A000021390000F91A0000F91A00008D
:1000E000F91A0000F91A0000F91A00009509000039
:1000F000F91A0000F91A0000F91A0000F91A0000B4
:10010000F91A0000F91A0000F91A0000F91A0000A3
:10011000F91A0000B9410000F91A0000F91A0000AC
:10012000F91A0000F91A0000F91A0000F91A000083
:10013000F91A0000F91A0000F91A0000F91A000073
:10014000F91A0000F91A00006D3E0000F91A0000CB
:10015000F91A0000F91A0000F91A0000F91A000053
:10016000F91A0000F91A0000F91A0000F91A000043
:10017000F91A0000F91A0000F91A0000F91A000033
:10018000F91A0000F91A0000F91A0000F91A000023
:10019000F91A0000F91A0000653F0000F91A000082
:1001A000F91A0000F91A0000F91A0000F91A000003
:1001B000F91A0000F91A0000F91A0000F91A0000F3
:1001C000F91A0000F91A0000F91A0000F91A0000E3
:1001D0005C4B4CF2205210B51A804DF628121A8052
:1001E00000BF00BF01F08CFC574B4FF030621A602B
:1001F000564A9A60564ADA60564B4FF470021A60BB
:10020000554B564A1A60564A136813F4807304D14A
:1002100054490B604FF4A8531360534B1A781107DD
:1002200003D51A7842F008021A70504B5049AA229E
:100230001A70504A504B8B4204D252F8040F43F8C4
:10024000040BF8E74D4B4E4900228B4202D243F893
:10025000042BFAE74B494C4A002352F8230041F89B
:1002600023000133742BF8D1484B494A802103F80D
:10027000011B9342FBD1474B424A1A60464B8A22EC
:100280001A70A3F5805324225A70A0221A709A790A
:100290009207FCD59A79D406FCD4404A937903F0AE
:1002A0000C03082BFAD13E4B60221A7002331A78E5
:1002B000802AFCD1394B01221A715D225A719A7938
:1002C0009006FCD59979354A4906FBD5354B364918
:1002D00019600021596020231370937903F00C03F7
:1002E0000C2BFAD1314B324A1A60324B324A1A6027
:1002F00000225A60072243F8042C304AC3F80C2D20
:1003000062B601F06DFD174B1B68DA0705D52C4866
:1003100001F0F6FC2B4B2C4A1A602C4B1B785B0629
:1003200009D5284C284B22689A4204D1244801F070
:10033000E7FC0023236005F045FC01F0E7FB01F03A
:100340000FFBFEE70E20054030800440823F040092
:100350000100002B88ED00E0002008E0030000858C
:1003600010D0034014D0034002D0074000E0074003
:10037000F811FF1F60A600003007FF1FF811FF1FD4
:100380004C22FF1F0002FF1F0000000000E400E0FD
:1003900064E400E008ED00E0005006400040064044
:1003A00001E007404480044000000602048004404D
:1003B000C010070014E000E01FBF02000000202072
:1003C000A413305A1CE00340A5C3945A00F0074020
:1003D000FFFFFFFFFFFFFFFFFFFFFFFFFFFFFFFF2D
:1003E000FFFFFFFFFFFFFFFFFFFFFFFFFFFFFFFF1D
:1003F000FFFFFFFFFFFFFFFFFFFFFFFFFFFFFFFF0D
:10040000FFFFFFFFFFFFFFFFFFFFFFFFDEF9FFFF23
:1004100010B5054C237833B9044B13B10448AFF33E
:1004200000800123237010BDF811FF1F00000000A1
:100430005CA60000084B10B51BB108490848AFF393
:1004400000800848036803B910BD074B002BFBD0A0
:10045000BDE81040184700BF00000000FC11FF1F5E
:100460005CA60000F811FF1F0000000010B5034B50
:100470000360044600F0A0FC204610BD409F000031
:1004800010B5064B0360044600F096FC204640F28F
:100490002C4101F06DFA204610BD00BF409F0000C6
:1004A00010B50521224C234804F0C6FB1321224835
:1004B00004F0C2FB204601F05DFA204603221F49EA
:1004C00001F070FA10231A4620461D4901F06AFA1D
:1004D0000121172001F02CFC0121162001F028FC3D
:1004E0000121152001F024FC01210D2001F020FC48
:1004F000144800F0EBFC144800F0E8FC01210D204A
:1005000001F010FC4FF4FA7001F018FC00210D20EE
:1005100001F008FC4FF4FA7001F010FC01210D20ED
:1005200001F000FC00210948BDE8104000F0B4BA19
:100530008407FF1F749E00007C9E0000909E0000B8
:100540009C9E00001412FF1F4016FF1FBC1DFF1FC2
:1005500000B5ADF5437D42A94FF4FF730122194860
:1005600000F0ECFDB0F5FF7F1DD0421C05D0034626
:10057000154A1649164801F015FA01A94FF481737E
:100580000122144800F0DAFDB0F5817F11D0431C40
:1005900005D00346104A0D490D4801F003FA0DF548
:1005A000437D5DF804FB024642A90C4804F048FC78
:1005B000E3E7024601A90A4804F042FC0DF5437D39
:1005C0005DF804FB1412FF1FB09E0000F09E0000B7
:1005D0008407FF1F4016FF1FF89E00006C1AFF1FC4
:1005E0006A1CFF1FF0B50123104FDFF84CE0104DDF
:1005F000104C03FA00F002233B6080B20023042673
:10060000402240FA03F1C9074CBFCEF800603E60BB
:100610002A6000BF00BF0133102B2260F1D10349D3
:10062000054B0420022208601A60F0BD88F00F40DC
:10063000C4F00F40C8F00F4084F00F402DE9F04F98
:1006400083B0FFF785FF00216648DFF8A881664D7B
:10065000664FDFF8A8A1DFF8A09100F0F3F9464655
:100660004FF0000B002404EB4403E1B2F25C5D4860
:100670001201013400F0C2F9102CF4D1594800F0F5
:10068000B3F90028FAD102233B6004211023402251
:100690003960CAF8002000BF00BF013B9BB2C9F817
:1006A0000020002BF4D1524B02221A602B7803F069
:1006B000FF04002BFAD15846FFF794FF47F230535E
:1006C000013BFDD10BF1010BBBF1100F06F1300620
:1006D000C8D1484B43480193214600F0B3F9434E3B
:1006E000DFF81891444FA346DDF804A010249AF8CF
:1006F00001203C48214601341201E4B200F07EF9A9
:10070000202C0AF1030AF2D1364800F06DF90028D6
:10071000FAD1022333600421102340223160C9F84A
:10072000002000BF00BF013B9BB23A60002BF5D117
:100730002F4B02221A602B7803F0FF04002BFAD112
:100740005846FFF74FFF47F23053013BFDD1019B65
:100750000BF1010B3033BBF1100F0193C4D12146D3
:100760002048224EDFF89490234F00F06BF9A24608
:100770002024C3469BF802201A4821460134120166
:10078000E4B200F03BF9302C0BF1030BF2D1154829
:1007900000F02AF90028FAD1022333600421102343
:1007A00040223160C9F8002000BF00BF013B9BB26E
:1007B0003A60002BF5D10E4B02221A602B78002BE9
:1007C000FCD15046FFF70EFF47F23053013BFDD1FD
:1007D0000AF1010ABAF1100F08F13008C8D103B0CC
:1007E000BDE8F08FBC1DFF1F6C1DFF1F88F00F4080
:1007F00084F00F406C1AFF1FC8F00F40C4F00F4088
:100800002DE9F04F294E2A4B2A4A2B4D726037466C
:10081000002447F8103B83B040F2012806F2112B68
:1008200021464246DFF89CA03472F46038460193BA
:1008300005F032FD42462146584605F02DFD4FF0A9
:100840000109C6F8147452462F4630461B49C6F8B3
:1008500018B4C6F81C44C6F8204486F8289405F05D
:100860009FF9019B47F8103B4246154B6B602146B0
:1008700005F2112638462C72EC6005F00DFD42465B
:100880002146304605F008FD0C4985F8289452466B
:100890002846C5F81474C5F81864C5F81C44C5F892
:1008A000204403B0BDE8F04F05F07AB91412FF1FE1
:1008B000409F00003407FF1F4016FF1F6D0400001B
:1008C0004407FF1F3007FF1FF0B52B4A2B4B4FF497
:1008D000A27111601A78002A47D000221A70284F9E
:1008E0002849294A07F1480E1025042317F8036CFC
:1008F00008248020064214BF15600D60136000BFFD
:10090000013C0B604FEA5000F4D117F8026C082448
:100910008020064214BF15600D60136000BF013CCB
:100920000B604FEA5000F4D117F8016C08208024C6
:10093000264214BF15600D60136000BF01380B60C4
:100940004FEA5404F4D103377745CFD10F4C0A4B0B
:100950000F4A01254FF4517125701960136803F097
:10096000070343F068031360F0BD074A04231360D4
:1009700000BF5360B3E700BF309004406D1DFF1F00
:10098000771DFF1FC8F00F40C4F00F406C1DFF1F04
:1009900000900340104A11481368190648BF03F03D
:1009A0007F0310B448BF13600D4B0B4A0D494FF441
:1009B000A2741C60136803F0070343F0280313605C
:1009C0000B680022027023B162B60B685DF8044B1D
:1009D00018475DF8044B7047009003406C1DFF1FE3
:1009E00030900440701DFF1F034B1B780BB9FFF7BD
:1009F0006BBF0120704700BF6C1DFF1FC1F12F01AD
:100A0000C9B201EB41030E485B10C90710B400EBFB
:100A100003040AD41111C154637803F00F0343EAAD
:100A2000021262705DF8044B7047C15C21F00F0147
:100A300041EA1221C15462705DF8044B704700BF57
:100A4000741DFF1F0A120B4B42EA011210B4D2B2FE
:100A5000C1F3071403F14800C9B203F8034C03F8CB
:100A6000022C03F8011C03338342F6D15DF8044BDA
:100A7000704700BF771DFF1F08B50121062001F058
:100A800057F90121072001F053F9024B04221A60A3
:100A900008BD00BFC8F00F402DE9F04103200C460F
:100AA000012101F045F90121042001F041F9012162
:100AB000052001F03DF94A4B4FF400521A60FFF750
:100AC000DBFF2212474B42EA0412D2B2C4F30715ED
:100AD000E1B203F1480003F8035C03F8022C03F8C9
:100AE000011C03338342F6D13F4C2378002B74D092
:100AF0003E4B3F493A4D4FF4A2721A600A6802F029
:100B0000070242F0280200234FF480500A6023704D
:100B1000286000BF374A384F1060A5F53625A5F587
:100B20007D6510602A683548DFF8E480344EDFF8D0
:100B3000E4C0DFF8E4E042F004022A60042203701B
:100B400005F5CF3588F800303A700B22327005F584
:100B5000E8750122A8F5AF388CF8002008378EF828
:100B60000030A8F5F7783B70ACF1021C33726026B8
:100B70002E70A7F524370270ACF5104C4FF41172AB
:100B8000AEF5233EC8F800201E4E0B604FF4F04235
:100B9000AEF2FB3EA5F523353A60A5F57D75CCF8A0
:100BA00000302423CEF8003017483360174A47F24C
:100BB000FC7647F2FB732E603B6128264FF451739D
:100BC0004FF400650E600560136023780BB1BDE83B
:100BD000F081BDE8F041FFF777BEFFF775FE87E7CC
:100BE00004F00F40771DFF1F6C1DFF1F3090044065
:100BF0000090034008F00F4000200640052006400A
:100C0000012006401490034004E100E034900440C9
:100C10000A20064006200640072006400B4B1A79A2
:100C2000920611D50A4ADB799168D1F81C24B2F5F5
:100C3000007FDBB208DCD1F8140410B4541CC1F8F6
:100C40001C4483545DF8044B704700BF00C006404D
:100C5000C01DFF1F0B4B1A79920611D50A4ADB798A
:100C6000D168D1F81C24B2F5007FDBB208DCD1F8E2
:100C7000140410B4541CC1F81C4483545DF8044B94
:100C8000704700BF00D00640C01DFF1F0B4B1A79F4
:100C9000920611D50A4ADB791169D1F81C24B2F504
:100CA000007FDBB208DCD1F8140410B4541CC1F886
:100CB0001C4483545DF8044B704700BF00A00E40F5
:100CC000C01DFF1F08B52F49436800228B420272E6
:100CD0001BD02D498B4227D02C498B4233D02C4935
:100CE0008B423FD02B498B4200D008BD2A4819685F
:100CF00002614A6A18469047284A2949937903F0C5
:100D0000FD0308209371086008BD1968224802603D
:100D10004A6A18469047234A2349937903F0FD0312
:100D200001209371086008BD19681B4842604A6A37
:100D3000184690471D4A1C49937903F0FD0304208F
:100D40009371086008BD1968134882604A6A1846A2
:100D50009047174A1449937903F0FD0310209371CB
:100D6000086008BD19680C48C2604A6A1846904776
:100D7000104A0D49937903F0FD03402093710860F8
:100D800008BD00BF3407FF1F4407FF1F5407FF1FA4
:100D90006407FF1F7407FF1FC01DFF1F00A00E4048
:100DA00088E100E000A0064084E100E000B00640D9
:100DB00000C0064000D00640037A0BB1FFF782BFA7
:100DC000704700BF1E48037913F0300F30D01D4B21
:100DD00070B41C6872B6827D02F0FF034AB362B63B
:100DE000D4F81C14013B13F0FF0301F1010511D0ED
:100DF000C279B1F5007FD2B2F4DCD4F81464C4F83F
:100E00001C547254013BD4F81C1413F0FF0301F17D
:100E10000105EDD10A4B1A79DB79B1F5007FDBB220
:100E20000BDCD4F81424481CC4F81C04535470BCC4
:100E300070474023C279437462B670BC704700BFEC
:100E400000A00640C01DFF1F1E48037913F0300F9D
:100E500030D01D4B70B45C6872B6827D02F0FF0327
:100E60004AB362B6D4F81C14013B13F0FF0301F13E
:100E7000010511D0C279B1F5007FD2B2F4DCD4F80B
:100E80001464C4F81C547254013BD4F81C1413F0BD
:100E9000FF0301F10105EDD10A4B1A79DB79B1F5B8
:100EA000007FDBB20BDCD4F81424481CC4F81C040B
:100EB000535470BC70474023C279437462B670BC0F
:100EC000704700BF00B00640C01DFF1F037AB3B9D2
:100ED00070B5784A0446406801259042257200F0BA
:100EE0009E80754B98420BD0744B984274D0744BD3
:100EF00098424DD0734B984200F0B48070BD70475B
:100F0000714E72680AB1137A4BBB036874601B6A36
:100F10006E49042298476E4D6E493423EB702120B0
:100F200000F0E6FE6C49222000F0E2FE6B4A6C4BBA
:100F300012781A70AB796B4A43F002030421AB714B
:100F4000116004F1100204F21123C4F81424C4F84F
:100F5000183470BD137A002B00F0898004251046E8
:100F6000FFF7B0FE606846F82540036857491B6AE2
:100F7000042298476B1E032B5DD801A252F823F080
:100F8000170F0000F10F0000AB0F00007B100000F6
:100F90004D4EF2681AB1137A002B40F08780036837
:100FA000F4601B6A4949042298474F4D4F49242356
:100FB000EB70252000F09CFE4D49262000F098FEA5
:100FC0004C4A4D4B12781A70AB79464A43F00203F3
:100FD0004021AB711160B4E73B4EB26812B1137A95
:100FE000002B65D10368B4601B6A38490422984716
:100FF000424D434924262320EE7000F079FE4149FA
:10100000304600F075FE404A404B12781A70AB79BA
:10101000344A43F002031021AB71116091E72A4E6C
:10102000326812B1117A00293ED1036834601B6A1C
:10103000264904229847364D36493423EB701F2049
:1010400000F056FE3449202000F052FE334A344B63
:1010500012781A70AB79234A43F002030121AB7175
:1010600011606EE7184E3269002A7FF473AF03688F
:1010700034611B6A1549042298472A4D2A492423C2
:10108000EB70422000F034FE2849432000F030FE8F
:10109000274A284B12781A70AB79274A43F002038B
:1010A0000821AB7111604CE71D4658E7032556E750
:1010B000022554E73407FF1F4407FF1F5407FF1F93
:1010C0006407FF1F7407FF1FC01DFF1F90D00300A0
:1010D00000B00640490E0000E512000021E400E0E7
:1010E00022E400E004E100E000D00640550C0000DE
:1010F0003D12000025E400E026E400E000C00640C8
:101100001D0C00001912000023E400E024E400E0BC
:1011100000A00640C50D0000851200001FE400E09D
:1011200020E400E000A00E408D0C000061120000E1
:1011300042E400E043E400E008E100E030B5D0F82C
:101140002054002D83B02FDD002B14DDB2F5007F7D
:1011500011D8044672B6D0F82004002821DDD4F856
:10116000200482420ADB00230022C4F8202462B655
:10117000184603B030BD002003B030BDD4F82004C1
:101180009D188542C8BFD4F82034D4F81854C8BF7D
:101190009B1A0846A9181A46019303F051FE019BB9
:1011A000E2E74FF0FF33E2E74FF0FF30E4E700BF44
:1011B000D0F81C34002B1EDD90F82824E2B9D0F8BA
:1011C000141400F11002914282B01CD000F21121DF
:1011D000C0F81424C0F81814C2680E490132C26065
:1011E000C0F820340B680193019BC0F8243400231D
:1011F000C0F81C3402B07047002380F82834002364
:10120000C0F81C34704700F21122C0F81814C0F85E
:101210001424E1E7DC1DFF1F064B1A79920706D55F
:10122000054ADB7990681BB10023C0F81C34704775
:10123000FFF7BEBF00C00640C01DFF1F064B1A7956
:10124000920706D5054ADB79D0681BB10023C0F8A8
:101250001C347047FFF7ACBF00D00640C01DFF1F15
:10126000064B1A79920706D5054ADB7910691BB13E
:101270000023C0F81C347047FFF79ABF00A00E404F
:10128000C01DFF1F70B4154C23799B0721D5A37D8A
:10129000134ADBB2012B106815D9013B13F0FF0391
:1012A00011D0D0F81C24E179B2F5007FC9B202F167
:1012B0000105F2DCD0F81464C0F81C54013B13F0B3
:1012C000FF03B154EDD1054BDB7923B10023C0F806
:1012D0001C3470BC704770BCFFF76ABF00A00640AA
:1012E000C01DFF1F70B4154C23799B0721D5A37D2A
:1012F000134ADBB2012B506815D9013B13F0FF03F1
:1013000011D0D0F81C24E179B2F5007FC9B202F106
:101310000105F2DCD0F81464C0F81C54013B13F052
:10132000FF03B154EDD1054BDB7923B10023C0F8A5
:101330001C3470BC704770BCFFF73ABF00B0064069
:10134000C01DFF1F0368C9B21B6818470368C9B2F4
:101350001B6818470368C9B21B6818470368C9B2FD
:101360001B68184708B5084601F052F8012008BD6F
:1013700008B5084601F04CF8012008BD38B508460C
:101380000D4605F0DDF904460146284601F04AF80D
:10139000204638BD10B508461446114601F042F803
:1013A000204610BD01F01CB908B5084601F008F848
:1013B000003018BF012008BD08B5084600F0DEFF68
:1013C000003018BF012008BD0846114600F052BF8A
:1013D000084600F099BF00BF084600F02FBF00BFCD
:1013E00000F0BCBE034B03EB5100B0FBF1F000F08A
:1013F000FFBD00BF002A751510B5064B144603EB60
:101400005100B0FBF1F000F0F3FD2046BDE81040C4
:1014100000F06EBE002A751501F0CAB801F094B84C
:1014200001F082B801F062B801F06CB8704700BFFB
:1014300008B5084601F04CFB012008BD08B5084678
:1014400001F046FB012008BD38B508460D4605F001
:1014500077F904460146284601F092FB204638BD44
:1014600010B508461446114601F08AFB204610BD0F
:1014700001F064BC08B5084601F002FB003018BF5B
:10148000012008BD08B5084601F0D8FA003018BFA1
:10149000012008BD0846114601F068BA084601F06F
:1014A0009FBA00BF084601F045BA00BF01F0E6B997
:1014B000034B03EB5100B0FBF1F001F03DB900BF6D
:1014C000002A751510B5064B144603EB5100B0FB0E
:1014D000F1F001F031F92046BDE8104001F098B973
:1014E000002A751501F012BC01F0DCBB01F0CABB8B
:1014F00001F0AABB01F0B4BB0368064A1B68934223
:1015000005D110B5C8B201F0E3FA012010BDC9B28F
:10151000184700BF3D1400000368064A1B68934249
:1015200005D110B5C8B201F0D3FA012010BDC9B27F
:10153000184700BF3D1400000368064A1B68934229
:1015400005D110B5C8B201F0C3FA012010BDC9B26F
:10155000184700BF3D1400000368064A1B68934209
:1015600005D110B5C8B201F0B3FA012010BDC9B25F
:10157000184700BF3D140000704700BF08B508467B
:1015800001F016FE012008BD08B5084601F010FE66
:10159000012008BD38B508460D4605F0D1F80446CF
:1015A0000146284601F00EFE204638BD10B508461B
:1015B0001446114601F006FE204610BD01F092BE11
:1015C00008B5084601F0D4FD003018BF012008BD61
:1015D00008B5084601F0AAFD003018BF012008BD7B
:1015E0000846114601F076BD084601F09DBD00BFDA
:1015F000084601F053BD00BF01F01ABD034B03EBD9
:101600005100B0FBF1F001F097BC00BF000E2707BE
:1016100010B5064B144603EB5100B0FBF1F001F09E
:101620008BFC2046BDE8104001F0CCBC000E270723
:1016300001F040BE01F00ABE01F0F8BD01F0D8BDD6
:1016400001F0E2BD0368064A1B68934205D110B55C
:10165000C8B201F0ADFD012010BDC9B2184700BFEE
:10166000891500000368064A1B68934205D110B52E
:10167000C8B201F09DFD012010BDC9B2184700BFDE
:10168000891500000368064A1B68934205D110B50E
:10169000C8B201F08DFD012010BDC9B2184700BFCE
:1016A000891500000368064A1B68934205D110B5EE
:1016B000C8B201F07DFD012010BDC9B2184700BFBE
:1016C00089150000704700BF08B5084602F07CF895
:1016D000012008BD08B5084602F076F8012008BDD3
:1016E00038B508460D4605F02BF804460146284655
:1016F00002F074F8204638BD10B50846144611466D
:1017000002F06CF8204610BD02F0F8B808B50846A3
:1017100002F058F8003018BF012008BD08B508468F
:1017200002F02EF8003018BF012008BD084611460F
:1017300001F0BEBF084601F0F5BF00BF084601F04A
:101740009BBF00BF01F03CBF034B03EB5100B0FB5C
:10175000F1F001F097BE00BF000E270710B5064B51
:10176000144603EB5100B0FBF1F001F08BFE204674
:10177000BDE8104001F0EEBE000E270702F0A6B84B
:1017800002F070B802F05EB802F03EB802F048B85D
:101790000368064A1B68934205D110B5C8B202F02F
:1017A00013F8012010BDC9B2184700BFD5160000BC
:1017B0000368064A1B68934205D110B5C8B202F00F
:1017C00003F8012010BDC9B2184700BFD5160000AC
:1017D0000368064A1B68934205D110B5C8B201F0F0
:1017E000F3FF012010BDC9B2184700BFD516000095
:1017F0000368064A1B68934205D110B5C8B201F0D0
:10180000E3FF012010BDC9B2184700BFD516000084
:10181000704700BF08B5084602F07CFA012008BDF9
:1018200008B5084602F076FA012008BD38B508462A
:101830000D4604F085FF04460146284602F074FA7E
:10184000204638BD10B508461446114602F06CFA21
:10185000204610BD02F0F8BA08B5084602F03AFA80
:10186000003018BF012008BD08B5084602F010FA84
:10187000003018BF012008BD0846114602F0DCB94F
:10188000084602F003BA00BF084602F0B9B900BF2B
:1018900002F080B9034B03EB5100B0FBF1F002F012
:1018A000FDB800BF000E270710B5064B144603EB2A
:1018B0005100B0FBF1F002F0F1F82046BDE8104015
:1018C00002F032B9000E270702F0A6BA02F070BA91
:1018D00002F05EBA02F03EBA02F048BA0368064A65
:1018E0001B68934205D110B5C8B202F013FA01206B
:1018F00010BDC9B2184700BF211800000368064A8E
:101900001B68934205D110B5C8B202F003FA01205A
:1019100010BDC9B2184700BF211800000368064A6D
:101920001B68934205D110B5C8B202F0F3F901204B
:1019300010BDC9B2184700BF211800000368064A4D
:101940001B68934205D110B5C8B202F0E3F901203B
:1019500010BDC9B2184700BF21180000704700BF72
:1019600008B5FEF79DFDFEF769FE00F03FF8FAE7C7
:1019700004F058B900B5064A036812885B6883B062
:1019800001A9ADF804200222984703B05DF804FBDA
:1019900030A1000010B5036814465B6898472046E4
:1019A00010BD00BF0EB400B582B003AA52F8041BEC
:1019B000019204F059FF02B05DF804EB03B07047E8
:1019C00003F01EB903F0F6B803F0D0B803F00AB97B
:1019D00003F0E6B903F0C0B90846114603F02CB98C
:1019E000084603F0ADB900BF704700BF38B52C4CB6
:1019F000237803B138BD0123237003F0F3F80028E6
:101A000042D100F091FD00283BD101F03BF90028C4
:101A100034D101F00BFC70BB01F014FF40BB02F0AD
:101A2000B7F910BB02F08EFAE0B900232370EFF390
:101A30000583002BDED1EFF3108172B6194B1868C5
:101A400028B3194C227812BB45691D60012323700D
:101A50000DB3AA6101B962B600254577836898473E
:101A60002570C7E703F080FBDFE7FFF777FFD9E7D3
:101A7000FFF7CEFED3E7FFF725FECDE7FFF77CFDAE
:101A8000C7E7FFF7D3FCC0E7FFF7AEFFB9E70029D0
:101A9000B0D162B638BD054B1D600029DCD1DAE754
:101AA000D81DFF1FF021FF1FF421FF1FEC21FF1F96
:101AB00008B5104C08E0236859050DD423681A05B1
:101AC0000FD42368DB0411D423685803F3D502F044
:101AD00073FB23685905F1D500F0A8FD23681A05AA
:101AE000EFD501F051F92368DB04EDD501F00CFCD2
:101AF000EAE700BF3480044008B5FFF7D9FF00BF14
:101B0000014B10221A80704700200540704700BF2B
:101B1000094908B50B6830B16A461844A2F500526D
:101B2000904202D20860184608BD04F045F80C2324
:101B300003604FF0FF3008BD9407FF1FEFF31380E1
:101B400070B9EFF310836BB9EFF305825AB94FF414
:101B50008070EFF311832BB1984228BF184670476D
:101B60004FF0FF3070470F2A01D81846F1E7014BBC
:101B7000D05CEEE7F0E300E0084A1378802B01D058
:101B8000002070470649074B07480860002119707C
:101B90001378802BFCD00120704700BF03E0074082
:101BA0004480044001E0074000002822094A1378DD
:101BB000012B01D00020704703F1804303F5FC2383
:101BC000602119701378802BFCD1034B034A1A60F3
:101BD0000120704703E007404480044000000602F3
:101BE000F0B44D1E2E46002400E00134B0FBF2F3A9
:101BF00002FB1300092800F130078ABF3730F8B222
:101C0000C0B206F8010F1846002BEED10A19537026
:101C10004CB1107815F8016F28700133E01A834237
:101C200002F80169F5DB0846F0BC704710B4114BAF
:101C300053F8302092F8804234B1012379B182F810
:101C400080305DF8044B704703EBC0035B681A6893
:101C500051B922F002021A605DF8044B704782F815
:101C600000315DF8044B704742F003021A605DF8E2
:101C7000044B70475CA100001C4A02EBC003012921
:101C80005B6811D004291BD052F83000002280F884
:101C9000802229B1022920D0032922D01A6070475E
:101CA0004FF480721A60704752F830004FF4A272FD
:101CB00080F880121A601A6822F020021A607047B9
:101CC00052F830104FF4A272012081F880021A609D
:101CD0001A6842F020021A60704740F203121A603C
:101CE00070474FF481721A60704700BF5CA100001A
:101CF0001030024B43F82010704700BF0002FF1F56
:101D000030B4054B054D064C002210211A602A60A4
:101D10002060196030BC704714D0034004D00340E9
:101D200000D003403F2801D8FFF780BF704700BFB5
:101D30003F2801D8FFF7A0BF704700BF2DE9F84347
:101D4000054672B6224F234B234A1B683C68126833
:101D500062B6520102D5322B88BF0134B5B3C3F548
:101D60002F3303F21F331D4EDFF86890DFF86880D1
:101D70009B084FF47A72A6FB031302FB04F404EBF6
:101D8000930472B6D9F800103A68D8F800E062B649
:101D9000C1F52F3303F21F339B08A6FB03031EF08C
:101DA000806FC4EB93034FF47A7002D0322988BF5E
:101DB000013200FB0233B3F57A7F04D3013D05D035
:101DC00004F57A74DDE7FFF711FEDAE7BDE8F88382
:101DD000DC1DFF1F18E000E004ED00E0176CC116E9
:101DE000F8B54E4B4E48DFF85CC14E4C4E49DFF81B
:101DF00058E14E4E4E4D4F4F4FF000621A604FF07B
:101E000080521A604FF000521A604FF080421A6000
:101E10004FF000421A600022026028234EF6FF7045
:101E2000CCF80000CEF8003023600EF5012E0B60D8
:101E300033602B6006F500263B6005F50025A362A4
:101E400007F500278B6204F5012401F5012106F650
:101E5000E87605F6E87507F57F6710310EF1100E8C
:101E6000203433602B60CEF800303B600B60236081
:101E7000314CBB618B6109212160A7F5002704F576
:101E80008054203F08343A602060BB60E36047F82C
:101E9000041C04F5FD2407F5FE27043704F2FC7446
:101EA00022603860A360FB6044F8041C083404F628
:101EB000FC74C7F8FC2F2060A4F5E124A4F2DC74C4
:101EC00033602B60C7F8F81F21681C4841F400718B
:101ED000216001681A4C0EF57F4E0EF1E80E07F5F1
:101EE000883706F5803605F5803541F000710160D0
:101EF000CEF8002047F6FF710822396033602B606E
:101F0000226003F033F93220FFF718FF02F080FD62
:101F10004FF4AF70BDE8F840FFF710BF04E100E0F8
:101F200004800340148003401C800340248003404D
:101F30002C80034034800340008003400480044030
:101F400000900C40088003400C8003402DE9F84FBE
:101F5000214B1B6807460BB101221A70DFF88890ED
:101F60001E4D99F80040DFF884801D4E01343F2C4F
:101F70008ABF4FF0000A5FFA84FA5446AB462B78CA
:101F8000A34216D1FFF7DAFD40281FDC33791B0688
:101F9000F5D59BF8003001333F2B86BF0022134656
:101FA000DAB218F80330DBB2F3712A702B78A3424F
:101FB000E8D00C490A4BFFB208F804700120BC229B
:101FC000087089F800A0DA70BDE8F88FFF28D6DD28
:101FD000FFF70CFDD3E700BF701EFF1F6D1EFF1F34
:101FE00000A006406C1EFF1F741EFF1FE81DFF1F90
:101FF0002E4A2F491368F0B543F4806313600A78C2
:102000002C4F2D4E2D4D2E4C2E490023152A3B7062
:1020100033702B7023700B7043D01B2A3CD04AB313
:10202000294B1B78052B2DD01A2B30D0012B1CD01F
:10203000264B274C2749C0F34436C0F347151E7082
:1020400000F01F005D7004224FF0020E88273C262E
:10205000402598729A704FF0004083F813E05A754B
:102060001F74DE7025700860F0BD1B4B4FF4517279
:102070001A60DDE7194B40F213321A60124B1B78DD
:10208000052BD1D1164B4FF451721A60D0E7154B86
:102090004FF451721A60CBE7134B40F213321A60BF
:1020A000BEE7124B40F213321A60B9E734800440A5
:1020B000281EFF1FE41DFF1FE51DFF1F741EFF1FCD
:1020C0006D1EFF1F6C1EFF1F9807FF1F00A006401C
:1020D0001FE400E000E100E044A0044040A0044010
:1020E0001CC00440389004403C90044018C0044098
:1020F000194B19499B7803F0EC0200F003031343DA
:10210000420700F00F0248BF43F01003042A8B700F
:102110001CD0114B104A5B79C10603F0EF0348BF96
:1021200043F0100353719379820603F0EF030A4AD8
:1021300048BF43F010039371C30506D55378117857
:10214000DBB241F020011170537070478B7943F07E
:1021500040038B71DDE700BF00A00640284B1B68E1
:102160005B0533D510B5274C237823B1FFF73EFC30
:102170002378002BFAD12448244A254B4FF0004401
:1021800000210460D1701B78152B20D01B2B32D07E
:102190001BB9204B40F203121A601F4B1B7803F04F
:1021A0007F03052B1DD01A2B20D0012B03D11B4BF5
:1021B00040F203121A601A4B1A481B491A6800238E
:1021C00003700B700AB10123137010BD7047174BD9
:1021D00040F203121A60104B1B7803F07F03052BAB
:1021E000E1D1134B40F203121A60E4E7114B40F2C5
:1021F00003121A60DFE7104B40F203121A60CCE7BB
:10220000348004406C1EFF1F80E100E000A0064007
:10221000281EFF1F40A004409807FF1F44A0044051
:10222000E01DFF1FE41DFF1FE51DFF1F18C0044038
:102230001CC00440389004403C9004400A4A38B521
:102240000546137803F0FF04002BFAD1012128463C
:10225000FFF76EFD21462846FFF764FD034A044B55
:1022600052F835201A6038BD6C1EFF1F5CA10000BB
:10227000701EFF1F09B140F080001E4A137898427B
:102280001BD010B41C4C2468640513D503F07F03E5
:10229000052B2AD01A2B24D0012B14D0002900F0B2
:1022A0007F0114BF60234423052915D01A290ED0BD
:1022B000012903D010705DF8044B70470F4943F4B7
:1022C00040730B60F6E70D4B00241C60E6E70C49F9
:1022D00043F440730B60EDE70A4943F440730B602D
:1022E000E8E7074B00241C60D8E7064B00241C607D
:1022F000D4E700BF9807FF1F3480044044A0044087
:10230000389004401CC00440174A137883420ED012
:1023100016490968490509D5152B20D01B2B1AD061
:102320005BB115280DD01B2810D008B11070704774
:102330000F4B40F213311960F8E70D4915280B6077
:10234000F1D10C4B40F213311960EFE70A4B40F228
:1023500013311960EAE7084B00211960E1E7054BEA
:1023600000211960DDE700BF281EFF1F34800440F4
:1023700040A0044018C004403C9004400D4B1B6832
:1023800013F4806305D03F2805D90B4B002018605B
:10239000704718467047094B10B5074C53F830305A
:1023A00023600121FFF7C4FC236800221A7001207A
:1023B00010BD00BF34800440E01DFF1F5CA1000081
:1023C0000F4B1B6813F4806308D0122808D0142820
:1023D00011D00C4A537B03F0FE0353730020704767
:1023E000094B40F202321A60064A537B43F0010364
:1023F000537301207047054B40F202321A60F3E735
:102400003480044000A006400CA0044014C00440E6
:10241000034B1B685B0501D5FFF798BD704700BFF4
:10242000348004402DE9F84F294B1B685A0548D5E4
:10243000284B1B6805460BB101221A7005EB010AF7
:10244000554540D2DFF89C80234CDFF89C90234F09
:102450000AE015F8012B09F80B20214A0123AA45AF
:10246000137088F800602ED098F80030227803F1BD
:10247000010BBBF13F0F86BF0026B3465FFA8BF618
:102480009345E6D1BC22FA7005E03A7913060BD4E5
:1024900022789345DDD1FFF751FB4028F5DDFF2879
:1024A000F6DDFFF7A3FAF3E7227801323F2A86BF71
:1024B00000210A46D1B219F80220D2B2FA71217075
:1024C000E6E7BDE8F88F054BBC22DA70BDE8F88F6F
:1024D00034800440701EFF1F6D1EFF1F00A00640C9
:1024E0006C1EFF1F741EFF1FE81DFF1F10B5044C5C
:1024F000237823B1FFF77AFA2378002BFAD110BDA5
:102500006C1EFF1F064A074B1B781078DBB2C0B267
:1025100083422CBF3F3000F1FF30C01A704700BF2C
:102520006D1EFF1F741EFF1F054A064B10781B7897
:10253000C0B2DBB2984238BF4030C01A704700BF0B
:10254000E41DFF1FE51DFF1F30B4154B154C1A7815
:102550002378D2B2DBB29A421ED001333F2B0ED980
:102560001149124B087819680023C0B2237021B1B9
:10257000D31A1A2B01DC00230B7030BC70470A48B9
:102580000A49C05C0968DDB2C0B225700029F4D0E8
:102590009A4238BF4032EBE74FF0FF30EDE700BF23
:1025A000E41DFF1FE51DFF1F2C1EFF1FE01DFF1F69
:1025B000084A094B12781B78DBB29A4207D00133E4
:1025C000402B28BF0023054AD05CC0B270474FF0B3
:1025D000FF307047E41DFF1FE51DFF1F2C1EFF1F6E
:1025E0000D4B1B685B0516D530B40C4B0C4CDA78E0
:1025F0000C480D4902F0CB024025DA705D74DA78A0
:1026000042F03402DA7023780268DBB20B700AB150
:102610000023137030BC70473480044000A0064093
:10262000E51DFF1FE01DFF1FE41DFF1FF0B4384B29
:102630001A7912F0300F2CD072B6997D01F0FF029A
:1026400000293DD062B6334F334938780D78334E88
:102650001C46C0B2EDB2431C402BE17928BF0023D9
:10266000AB4202F1FF32C9B21CBFF154184612F05E
:10267000FF02F0D12A4B1B68C2B23A704BB1A8429C
:1026800036BFC5F14005401B40192728C4BF0122B1
:102690001A701F49CA78D2B2150616D452060DD543
:1026A0001B4B1B795B0609D51E4B1F491B6800227B
:1026B0000A7003B11A70164B3C22DA70F0BC7047F6
:1026C0004022D9795A7462B6E3E70B791C06E5D546
:1026D000164B174E1C783378E4B2DBB29C420ED016
:1026E000144D01E0A3420AD00133402B28BF002340
:1026F0000879E85CC0B2C871087D0728F2D9DBB25E
:10270000034933700B79180644BF7C23CB70C5E7AF
:1027100000A00640E41DFF1FE51DFF1F2C1EFF1F2C
:10272000E01DFF1F701EFF1F6C1EFF1F741EFF1F8A
:102730006D1EFF1FE81DFF1F264A27491368F0B4CE
:1027400043F4006313600A78244F254E254D264C30
:1027500026490023092A3B7033702B7023700B70BD
:1027600032D03B2A23D0224B1B780A2B27D03A2B7E
:1027700003D1204B4FF451721A601F4B1F4D204C58
:10278000C0F34437C0F3471600F01F001F70042148
:102790005E700222987288273C2640209970DA7475
:1027A00059751F74DE7028702260F0BC7047154B9D
:1027B00040F213321A600E4B1B780A2BD7D1124B02
:1027C0004FF451721A60D8E7104B40F213321A607E
:1027D000C9E700BF348004409907FF1FE81EFF1FB0
:1027E0007D1EFF1FF01EFF1FE91EFF1F7C1EFF1F27
:1027F0009A07FF1F00D0044000B0064021E400E02B
:1028000004E100E004D0044010B004400CB00440E7
:10281000194B19499B7803F0EC0200F003031343B2
:10282000420700F00F0248BF43F01003042A8B70E8
:102830001CD0114B104A5B79C10603F0EF0348BF6F
:1028400043F0100353719379820603F0EF030A4AB1
:1028500048BF43F010039371C30506D55378117830
:10286000DBB241F020011170537070478B7943F057
:1028700040038B71DDE700BF00B00640204B1B68B2
:102880001B053BD510B51F4C237823B1FFF7AEF8DD
:102890002378002BFAD11C481C491D4B022400222E
:1028A0000460CA701B78092B19D03B2B01D1194B3E
:1028B0001A60194B1B7803F07F030A2B19D03A2BAF
:1028C00002D1164B00221A60154B164816491A6899
:1028D000002303700B700AB10123137010BD134B5A
:1028E00040F203121A600C4B1B7803F07F030A2B93
:1028F000E5D10F4B40F203121A60E5E7704700BFC5
:10290000348004407C1EFF1F84E100E000B00640DC
:102910009907FF1F04D004409A07FF1F00D004400E
:10292000781EFF1FE81EFF1F7D1EFF1F0CB0044016
:1029300010B004400A4A38B50546137803F0FF0486
:10294000002BFAD101212846FFF7F2F9214628464B
:10295000FFF7E8F9034A044B52F835201A6038BDF6
:102960007C1EFF1F5CA10000EC1EFF1F09B140F0A0
:102970008000174A1378984217D010B4154C246879
:1029800024050FD503F07F030A2B1DD03A2B12D05C
:10299000002900F07F0114BF602344230A290ED0D0
:1029A0003A2903D010705DF8044B70470A4943F48C
:1029B00040730B60F6E7084B00241C60E8E707490A
:1029C00043F440730B60EDE7044B00241C60DFE729
:1029D0009A07FF1F3480044000D0044010B0044028
:1029E000124B1A7882420CD011490968090507D5A3
:1029F000092A16D03B2A0AD009280DD03B2801D03D
:102A0000187070470B4A40F213311160F8E7094A19
:102A1000002109281160F1D1074A40F213311160F9
:102A2000EEE7054A00211160E6E700BF9907FF1FA6
:102A30003480044004D004400CB004400D4B1B68AB
:102A400013F4006305D03F2805D90B4B0020186014
:102A5000704718467047094B10B5074C53F8303093
:102A600023600121FFF764F9236800221A70012016
:102A700010BD00BF34800440781EFF1F5CA1000021
:102A80000F4B1B6813F4006308D0172808D03C28AC
:102A900011D00C4A537B03F0FE03537300207047A0
:102AA000094B40F202321A60064A537B43F001039D
:102AB000537301207047054B40F202321A60F3E76E
:102AC0003480044000B0064008B0044008D0044000
:102AD0002DE9F84F234B1B681A053BD5224B1B6889
:102AE0000BB101221A70DFF89090204D99F8004048
:102AF000DFF888801E4E0134272C8ABF4FF0000A71
:102B00005FFA84FA54460746AB462B789C4216D1AE
:102B1000FFF714F840281FDC33791B06F5D59BF826
:102B200000300133272B86BF00221346DAB218F893
:102B30000330DBB2F3712A702B789C42E8D00D4948
:102B40000B4BFFB20120BC2208F80470087089F812
:102B500000A0DA70BDE8F88FFF28D6DDFEF746FF4B
:102B6000D3E700BF34800440EC1EFF1FE91EFF1FA7
:102B700000B006407C1EFF1FF01EFF1F801EFF1FBF
:102B80002DE9F84F294B1B681A0548D5284B1B68BF
:102B900005460BB101221A7005EB010A554540D2DA
:102BA000DFF89C80234CDFF89C90234F0AE015F857
:102BB000012B09F80B20214A0123AA45137088F83C
:102BC00000602ED098F80030227803F1010BBBF1A1
:102BD000270F86BF0026B3465FFA8BF69345E6D1F2
:102BE000BC22FA7005E03A7913060BD4227893459B
:102BF000DDD1FEF7A3FF4028F5DDFF28F6DDFEF767
:102C0000F5FEF3E722780132272A86BF00210A4623
:102C1000D1B219F80220D2B2FA712170E6E7BDE80C
:102C2000F88F054BBC22DA70BDE8F88F3480044081
:102C3000EC1EFF1FE91EFF1F00B006407C1EFF1F99
:102C4000F01EFF1F801EFF1F10B5044C237823B118
:102C5000FEF7CCFE2378002BFAD110BD7C1EFF1F9F
:102C6000064A074B1B781078DBB2C0B283422CBFF8
:102C7000273000F1FF30C01A704700BFE91EFF1F68
:102C8000F01EFF1F054A064B10781B78C0B2DBB25E
:102C9000984238BF4030C01A704700BFE81EFF1F7F
:102CA0007D1EFF1F30B4154B154C1A782378D2B215
:102CB000DBB29A421ED001333F2B0ED91149124B81
:102CC000087819680023C0B2237021B1D31A1A2BD7
:102CD00001DC00230B7030BC70470A480A49C05C15
:102CE0000968DDB2C0B225700029F4D09A4238BF1D
:102CF0004032EBE74FF0FF30EDE700BFE81EFF1F6B
:102D00007D1EFF1FA81EFF1F781EFF1F084A094BCC
:102D100012781B78DBB29A4207D00133402B28BFD0
:102D20000023054AD05CC0B270474FF0FF307047B7
:102D3000E81EFF1F7D1EFF1FA81EFF1F0D4B1B68F7
:102D40001B0516D530B40C4B0C4CDA780C480D49E9
:102D500002F0CB024025DA705D74DA7842F034027A
:102D6000DA7023780268DBB20B700AB100231370AB
:102D700030BC70473480044000B006407D1EFF1F09
:102D8000781EFF1FE81EFF1FF0B4384B1A7912F0AF
:102D9000300F2CD072B6997D01F0FF0200293DD092
:102DA00062B6334F334938780D78334E1C46C0B283
:102DB000EDB2431C402BE17928BF0023AB4202F166
:102DC000FF32C9B21CBFF154184612F0FF02F0D115
:102DD0002A4B1B68C2B23A704BB1A84236BFC5F14C
:102DE0004005401B40192728C4BF01221A701F4903
:102DF000CA78D2B2150616D452060DD51B4B1B79D4
:102E00005B0609D51E4B1F491B6800220A7003B1DF
:102E10001A70164B3C22DA70F0BC70474022D97908
:102E20005A7462B6E3E70B791C06E5D5164B174ECC
:102E30001C783378E4B2DBB29C420ED0144D01E032
:102E4000A3420AD00133282B28BF00230879E85C6D
:102E5000C0B2C871087D0728F2D9DBB203493370CC
:102E60000B79180644BF7C23CB70C5E700B0064041
:102E7000E81EFF1F7D1EFF1FA81EFF1F781EFF1FDD
:102E8000EC1EFF1F7C1EFF1FF01EFF1FE91EFF1F11
:102E9000801EFF1F2DE9F84F214B1B6807460BB121
:102EA00001221A70DFF888901E4D99F80040DFF873
:102EB00084801D4E0134272C8ABF4FF0000A5FFA30
:102EC00084FA5446AB462B78A34216D1FEF736FE61
:102ED00040281FDC33791B06F5D59BF80030013301
:102EE000272B86BF00221346DAB218F80330DBB274
:102EF000F3712A702B78A342E8D00C490A4BFFB239
:102F000008F804700120AC22087089F800A0DA707B
:102F1000BDE8F88FFF28D6DDFEF768FDD3E700BFD8
:102F2000681FFF1F651FFF1F00C00640641FFF1FB3
:102F30006C1FFF1FFC1EFF1F174A18491368F0B5CE
:102F400043F48053164C174D174FDFF874E01360AD
:102F5000164E174A002323708EF80030154C2B7044
:102F60000B703B7040F213373760134D1349C0F3B9
:102F700044364FF4517727601670C0F347142C275E
:102F800000F01F0040265470907208249370137450
:102F9000D7702E700C60F0BD34800440651FFF1F99
:102FA000F81EFF1F6C1FFF1F641FFF1F08C0044097
:102FB00000C006400CC0044023E400E004E100E04F
:102FC000F91EFF1F194B19499B7803F0EC0200F022
:102FD00003031343420700F00F0248BF43F01003FE
:102FE000042A8B701CD0114B104A5B79C10603F088
:102FF000EF0348BF43F0100353719379820603F047
:10300000EF030A4A48BF43F010039371C30506D586
:1030100053781178DBB241F0200111705370704782
:103020008B7943F040038B71DDE700BF00C00640A1
:10303000F8B5114B1B68DB041CD5104C237823B169
:10304000FEF7D4FC2378002BFAD10D4B0D4F0E4E1A
:103050000E4D0F4C0F48104908221A600023FB70D8
:1030600040F2031232602A60226803700B7012B1C2
:1030700001231370F8BDF8BD34800440641FFF1FA6
:1030800084E100E000C0064008C004400CC00440D9
:10309000F41EFF1FF81EFF1FF91EFF1F0A4A38B556
:1030A0000546137803F0FF04002BFAD101212846CE
:1030B000FEF73EFE21462846FEF734FE034A044B47
:1030C00052F835201A6038BD641FFF1F5CA1000054
:1030D000681FFF1F09B140F08000104A1378984222
:1030E0001AD010B40E4C2468E40412D503F07F0308
:1030F000082B02D10B4B00241C60002900F07F0339
:1031000014BF60214421082B03D1064B41F44071C8
:10311000196010705DF8044B704700BF9B07FF1FDC
:10312000348004400CC00440704700BF0D4B1B6846
:1031300013F4805305D03F2805D90B4B00201860AD
:10314000704718467047094B10B5074C53F830309C
:1031500023600121FEF7ECFD236800221A70012094
:1031600010BD00BF34800440F41EFF1F5CA10000AE
:103170000C4B1B6813F4805306D00E2806D00A4A65
:10318000537B03F0FE03537300207047074B064A3E
:1031900040F202311960537B43F001035373012065
:1031A000704700BF3480044000C0064004C00440A3
:1031B000034B1B68DB0401D5FFF76CBE704700BFF3
:1031C0003480044070B5094E04464518AC4204F101
:1031D00001040AD03368DB04F8D514F8010CFFF7BA
:1031E00059FEAC4204F10104F4D170BD34800440B6
:1031F00010B5044C237823B1FEF7F8FB2378002B9D
:10320000FAD110BD641FFF1F064A074B1B781078C8
:10321000DBB2C0B283422CBF273000F1FF30C01AAE
:10322000704700BF651FFF1F6C1FFF1F054A064B3D
:1032300010781B78C0B2DBB2984238BF4030C01A59
:10324000704700BFF81EFF1FF91EFF1F30B4154B5B
:10325000154C1A782378D2B2DBB29A421ED00133D1
:103260003F2B0ED91149124B087819680023C0B2C0
:10327000237021B1D31A1A2B01DC00230B7030BC50
:1032800070470A480A49C05C0968DDB2C0B22570BF
:103290000029F4D09A4238BF4032EBE74FF0FF30BC
:1032A000EDE700BFF81EFF1FF91EFF1F241FFF1FC1
:1032B000F41EFF1F084A094B12781B78DBB29A42B2
:1032C00007D00133402B28BF0023054AD05CC0B291
:1032D00070474FF0FF307047F81EFF1FF91EFF1FA9
:1032E000241FFF1F054B064A1B7806491268DBB2F4
:1032F0000B700AB100231370704700BFF91EFF1F47
:10330000F41EFF1FF81EFF1F30B42B4B1A799406D2
:103310001FD52A48DA790378294901333F2B0978E8
:10332000C8BF00238B42D2B203D0264CD9B2E2549C
:103330000170254A116861B1244A1278D2B29342D1
:1033400036BFC2F140029B1A9B18272BC4BF012332
:103350000B70194AD378DBB2180611D45A060DD572
:10336000154B1B795B0609D5194B1A491B680022BE
:103370000A7003B11A70104B2C22DA7030BC7047FF
:1033800011790906EAD5144910480C780178C9B2B8
:103390008C420DD04A1C272A84BF00210A460F4DBB
:1033A000054C98BFD1B2AA5CD2B2E2710170D5E7E8
:1033B0006C21D170D2E700BF00C00640F81EFF1F8D
:1033C000F91EFF1F241FFF1FF41EFF1F651FFF1F95
:1033D000681FFF1F641FFF1F6C1FFF1FFC1EFF1FC6
:1033E0002DE9F84F214B1B6807460BB101221A70DB
:1033F000DFF888901E4D99F80040DFF884801D4E5C
:103400000134272C8ABF4FF0000A5FFA84FA544631
:10341000AB462B78A34216D1FEF790FB40281FDC69
:1034200033791B06F5D59BF800300133272B86BF77
:1034300000221346DAB218F80330DBB2F3712A70B7
:103440002B78A342E8D00C490A4BFFB208F804706D
:103450000120AC22087089F800A0DA70BDE8F88F6E
:10346000FF28D6DDFEF7C2FAD3E700BFE41FFF1F37
:10347000E11FFF1F00D00640E01FFF1FE81FFF1FD6
:10348000781FFF1F244A25491368F0B443F4005302
:1034900013600A78224F234E234D244C24490023E5
:1034A0001F2A3B7033702B7023700B702FD03F2A74
:1034B00020D0204B1B78202B24D03E2B03D11E4B39
:1034C0004FF451721A601D4B1D4D1E49C0F3443616
:1034D0001E70C0F3471400222C27402600F01F0066
:1034E0005C70987220249A701A74DF702E700C60D1
:1034F000F0BC7047144B40F213321A600D4B1B782E
:10350000202BDAD1114B4FF451721A60DBE7104BCC
:1035100040F213321A60CCE7348004409C07FF1F4E
:10352000741FFF1F751FFF1FE81FFF1FE11FFF1FF5
:10353000E01FFF1F9D07FF1F10D0044000D0064072
:1035400025E400E004E100E014D004402CA0044095
:1035500028A00440194B19499B7803F0EC0200F0B5
:1035600003031343420700F00F0248BF43F0100368
:10357000042A8B701CD0114B104A5B79C10603F0F2
:10358000EF0348BF43F0100353719379820603F0B1
:10359000EF030A4A48BF43F010039371C30506D5F1
:1035A00053781178DBB241F02001117053707047ED
:1035B0008B7943F040038B71DDE700BF00D00640FC
:1035C000204B1B689B043BD510B51F4C237823B1BF
:1035D000FEF70CFA2378002BFAD11C481C491D4B2E
:1035E000202400220460CA701B781F2B19D03F2BA7
:1035F00001D1194B1A60194B1B7803F07F03202B64
:1036000019D03E2B02D1164B00221A60154B1648DA
:1036100016491A68002303700B700AB10123137056
:1036200010BD134B40F203121A600C4B1B7803F0D1
:103630007F03202BE5D10F4B40F203121A60E5E720
:10364000704700BF34800440E01FFF1F84E100E0AA
:1036500000D006409C07FF1F14D004409D07FF1FA9
:1036600010D00440701FFF1F741FFF1F751FFF1F26
:1036700028A004402CA004400A4A38B50546137817
:1036800003F0FF04002BFAD101212846FEF750FB7E
:1036900021462846FEF746FB034A044B52F83520E4
:1036A0001A6038BDE01FFF1F5CA10000E41FFF1F70
:1036B00009B140F08000174A1378984217D010B42F
:1036C000154C2468A4040FD503F07F03202B1DD0D4
:1036D0003E2B12D0002900F07F0114BF6023442349
:1036E00020290ED03E2903D010705DF8044B70479E
:1036F0000A4943F440730B60F6E7084B00241C6052
:10370000E8E7074943F440730B60EDE7044B0024FE
:103710001C60DFE79D07FF1F3480044010D0044089
:103720002CA00440124B1A7882420CD0114909682F
:10373000890407D51F2A16D03F2A0AD01F280DD08A
:103740003F2801D0187070470B4A40F213311160C6
:10375000F8E7094A00211F281160F1D1074A40F219
:1037600013311160EEE7054A00211160E6E700BF62
:103770009C07FF1F3480044014D0044028A004405C
:103780000D4B1B6813F4005305D03F2805D90B4B94
:1037900000201860704718467047094B10B5074C59
:1037A00053F8303023600121FEF7C2FA236800226B
:1037B0001A70012010BD00BF34800440701FFF1F2D
:1037C0005CA1000000207047034B1B689B0401D5DF
:1037D000FFF706BE704700BF3480044070B5094E45
:1037E00004464518AC4204F101040AD033689B0436
:1037F000F8D514F8010CFFF7F3FDAC4204F1010415
:10380000F4D170BD3480044010B5044C237823B14A
:10381000FEF7ECF82378002BFAD110BDE01FFF1F54
:10382000064A074B1B781078DBB2C0B283422CBF2C
:10383000273000F1FF30C01A704700BFE11FFF1FA3
:10384000E81FFF1F054A064B10781B78C0B2DBB299
:10385000984238BF4030C01A704700BF741FFF1F26
:10386000751FFF1F30B4154B154C1A782378D2B250
:10387000DBB29A421ED001333F2B0ED91149124BB5
:10388000087819680023C0B2237021B1D31A1A2B0B
:1038900001DC00230B7030BC70470A480A49C05C49
:1038A0000968DDB2C0B225700029F4D09A4238BF51
:1038B0004032EBE74FF0FF30EDE700BF741FFF1F12
:1038C000751FFF1FA01FFF1F701FFF1F084A094B16
:1038D00012781B78DBB29A4207D00133402B28BF05
:1038E0000023054AD05CC0B270474FF0FF307047EC
:1038F000741FFF1F751FFF1FA01FFF1F054B064AE8
:103900001B7806491268DBB20B700AB100231370F2
:10391000704700BF751FFF1F701FFF1F741FFF1F21
:1039200030B42B4B1A7994061FD52A48DA790378DC
:10393000294901333F2B0978C8BF00238B42D2B2FB
:1039400003D0264CD9B2E2540170254A116861B106
:10395000244A1278D2B2934236BFC2F140029B1A77
:103960009B18272BC4BF01230B70194AD378DBB2F5
:10397000180611D45A060DD5154B1B795B0609D5CF
:10398000194B1A491B6800220A7003B11A70104BB8
:103990002C22DA7030BC704711790906EAD5144937
:1039A00010480C780178C9B28C420DD04A1C272AE5
:1039B00084BF00210A460F4D054C98BFD1B2AA5CC6
:1039C000D2B2E2710170D5E76C21D170D2E700BFAD
:1039D00000D00640741FFF1F751FFF1FA01FFF1F91
:1039E000701FFF1FE11FFF1FE41FFF1FE01FFF1FCE
:1039F000E81FFF1F781FFF1F2DE9F84F214B1B68A1
:103A000007460BB101221A70DFF888901E4D99F815
:103A10000040DFF884801D4E0134272C8ABF4FF010
:103A2000000A5FFA84FA5446AB462B78A34216D1BB
:103A3000FEF784F840281FDC33791B06F5D59BF888
:103A400000300133272B86BF00221346DAB218F864
:103A50000330DBB2F3712A702B78A342E8D00C4913
:103A60000A4BFFB208F804700120AC22087089F8F4
:103A700000A0DA70BDE8F88FFF28D6DDFDF7B6FFAD
:103A8000D3E700BF6020FF1F5D20FF1F00A00E4096
:103A90005C20FF1F6420FF1FF41FFF1F174A1849F7
:103AA0001368F0B543F48063164C174D174FDFF8D9
:103AB00074E01360164E174A002323708EF800300E
:103AC000154C2B700B703B7040F213373760134D61
:103AD0001349C0F344364FF4517727601670C0F392
:103AE00047142C2700F01F004026547090720424C5
:103AF00093701374D7702E700C60F0BD2880044052
:103B00005D20FF1FF01FFF1F6420FF1F5C20FF1FB1
:103B100064D0044000A00E4060D0044042E400E0C5
:103B200008E100E0F11FFF1F194B19499B7803F0D2
:103B3000EC0200F003031343420700F00F0248BFFA
:103B400043F01003042A8B701CD0114B104A5B7990
:103B5000C10603F0EF0348BF43F01003537193799C
:103B6000820603F0EF030A4A48BF43F01003937143
:103B7000C30506D553781178DBB241F020011170EE
:103B8000537070478B7943F040038B71DDE700BFC2
:103B900000A00E40F8B5114B1B685B051CD5104CFE
:103BA000237823B1FDF722FF2378002BFAD10D4BA8
:103BB0000D4F0E4E0E4D0F4C0F48104904221A6047
:103BC0000023FB7040F2031232602A602268037007
:103BD0000B7012B101231370F8BDF8BD28800440AA
:103BE0005C20FF1F88E100E000A00E4064D004408C
:103BF00060D00440EC1FFF1FF01FFF1FF11FFF1FCD
:103C00000A4A38B50546137803F0FF04002BFAD1B1
:103C100001212846FEF78CF821462846FEF782F857
:103C2000034A044B52F835201A6038BD5C20FF1F50
:103C30005CA100006020FF1F09B140F08000104A25
:103C4000137898421AD010B40E4C2468640512D52B
:103C500003F07F03212B02D10B4B00241C600029B1
:103C600000F07F0314BF60214421212B03D1064BB8
:103C700041F44071196010705DF8044B704700BF4B
:103C80009E07FF1F2880044060D00440704700BF9B
:103C90000D4B1B6813F4806305D03F2805D90B4BEF
:103CA00000201860704718467047094B10B5074C44
:103CB00053F8303023600121FEF73AF823680022E0
:103CC0001A70012010BD00BF28800440EC1FFF1FA8
:103CD0005CA100000C4B1B6813F4806306D018280D
:103CE00006D00A4A537B03F0FE035373002070474B
:103CF000074B064A40F202311960537B43F001033F
:103D000053730120704700BF2880044000A00E407C
:103D100068D00440034B1B685B0501D5FFF76CBE00
:103D2000704700BF2880044070B5094E044645180E
:103D3000AC4204F101040AD033685B05F8D514F8ED
:103D4000010CFFF759FEAC4204F10104F4D170BD3F
:103D50002880044010B5044C237823B1FDF746FEBB
:103D60002378002BFAD110BD5C20FF1F064A074BB9
:103D70001B781078DBB2C0B283422CBF273000F131
:103D8000FF30C01A704700BF5D20FF1F6420FF1F77
:103D9000054A064B10781B78C0B2DBB2984238BF98
:103DA0004030C01A704700BFF01FFF1FF11FFF1FF8
:103DB00030B4154B154C1A782378D2B2DBB29A4244
:103DC0001ED001333F2B0ED91149124B08781968C8
:103DD0000023C0B2237021B1D31A1A2B01DC0023B7
:103DE0000B7030BC70470A480A49C05C0968DDB2F4
:103DF000C0B225700029F4D09A4238BF4032EBE7B8
:103E00004FF0FF30EDE700BFF01FFF1FF11FFF1F56
:103E10001C20FF1FEC1FFF1F084A094B12781B785C
:103E2000DBB29A4207D00133402B28BF0023054A5A
:103E3000D05CC0B270474FF0FF307047F01FFF1FDB
:103E4000F11FFF1F1C20FF1F054B064A1B78064968
:103E50001268DBB20B700AB100231370704700BF09
:103E6000F11FFF1FEC1FFF1FF01FFF1F30B42B4B74
:103E70001A7994061FD52A48DA790378294901333B
:103E80003F2B0978C8BF00238B42D2B203D0264C07
:103E9000D9B2E2540170254A116861B1244A1278FE
:103EA000D2B2934236BFC2F140029B1A9B18272B15
:103EB000C4BF01230B70194AD378DBB2180611D4A2
:103EC0005A060DD5154B1B795B0609D5194B1A49B6
:103ED0001B6800220A7003B11A70104B2C22DA7092
:103EE00030BC704711790906EAD5144910480C789E
:103EF0000178C9B28C420DD04A1C272A84BF002108
:103F00000A460F4D054C98BFD1B2AA5CD2B2E271FD
:103F10000170D5E76C21D170D2E700BF00A00E4040
:103F2000F01FFF1FF11FFF1F1C20FF1FEC1FFF1FB3
:103F30005D20FF1F6020FF1F5C20FF1F6420FF1F0C
:103F4000F41FFF1F054A064B10781B78C0B2DBB286
:103F5000984238BF4030C01A704700BF6C20FF1F26
:103F60006D20FF1F30B42C4B5A6894021FD52B488C
:103F7000DA6803782A4901333F2B0978C8BF002348
:103F80008B4204D0274CD2B2D9B2E2540170264AF7
:103F9000116861B1254A1278D2B2934236BFC2F19C
:103FA00040029B1A9B18272BC4BF01230B701A4A8F
:103FB0009368180202D55268110211D45A020DD525
:103FC000154B5B685B0209D5194B1A491B68002227
:103FD0000A7003B11A70184B00221A6030BC704787
:103FE000164A124910780A78D2B290420DD00132A6
:103FF000272A84BF00200246114D074C98BFD0B23B
:10400000AA5CD2B2E2600870D8E70E480A4A0024DF
:10401000012104601160D1E700400C406C20FF1FBB
:104020006D20FF1F9820FF1F6820FF1FD920FF1F52
:10403000DC20FF1FD820FF1F58018843E020FF1F0E
:104040007020FF1F5C018843431E032B14D872B6F7
:104050000A4951F8230068B170B4094C058834F856
:104060001320466841F82360521B24F8132062B6DF
:1040700070BC704762B67047002070473C21FF1F3C
:104080003422FF1F013803280BD872B6074B53F8B0
:10409000203043B100205B680130002BFBD162B6B9
:1040A0007047002070471846F9E700BF9021FF1FB6
:1040B000F0B472B61A491B4E012311F8014B194F87
:1040C0009A00240742F0010505D556F8324064B144
:1040D00056F83520BAB10133052BEED162B6124B3A
:1040E00000221A70F0BC00F01BBD0F4C0F4D217860
:1040F00047F8325007EB431308304A1E58602270CD
:1041000062B6F0BC70470849094B0A7847F8353069
:1041100007EBC5030830013A58600A7062B6F0E751
:104120005CA300000000FF1FB921FF1F88004000B2
:10413000C8004000431E032B1DD81B4A400140F01D
:10414000100030B4104472B6184CE25C032A1BD83D
:10415000DFE802F00212151703220D88E25410F076
:10416000080F14BFC823882343EA054308310360BE
:10417000416062B630BC704708300222EDE705228C
:10418000EBE708300422E8E7094A52F8230038B187
:10419000084A52F82300416042F8231062B6E9E76A
:1041A00042F82310034AF7E70000FF1FC821FF1F52
:1041B0009021FF1FA021FF1F2DE9F04FDFF804A37E
:1041C000DFF804B387B044E0A94F4FEA930807EB48
:1041D000C809013ED9F8042003F00803F6B2A2F1A1
:1041E000080003F0FF04002B40F0FE8057F8383041
:1041F0001B0C99B222F8081C002B00F0EC809D4BA0
:1042000022F8064C42F8044C53F82620002A00F00D
:104210002B82994D55F826305860984C45F8260069
:1042200034F81630194424F8161000F059FC002810
:1042300000F01382924A934B19F0080F00F1080026
:1042400018BF1346C9F8040047F8383008238AF825
:1042500000309AF80040E4B260071AD58A4B1B7808
:10426000A3B18A490A7802F0FF0322B1013BDBB215
:104270000B7003B900BE86490A7802F0FF032AB129
:10428000013BDBB20B70002B00F0BD8104238AF8E8
:10429000003004F0080303F0FF02002B00F0C88098
:1042A0009BF80030DBB21E098ED19C08704F57F886
:1042B000342007EBC401C2F38302013A49680C2A97
:1042C00000F28580DFE802F079798383838383833A
:1042D00042838383070008686E4B6F4D0193684BE0
:1042E0004A686E4E47F8343081B240F28164694BBF
:1042F0006A60286000220120A1421A603A61BA6116
:10430000307000F2E380B1F5D06F80F02782B1F514
:10431000817F00F0E08100F2C381802900F03682C5
:10432000822940F0DE81A9885D4B01F07F010429DC
:1043300000F2D8815B4C89000B44227062701A78BD
:10434000930740F122832070022023E2514B019316
:104350001A683AB3544B514E5449188834780D7842
:104360004028864645F0020828BF4FF0400E002C3A
:1043700084F001043470CEEB00000CBF8824C82404
:1043800007EBC80680B285F0010544EA0E4472606E
:10439000188047F8384072440D70002800F0B7804C
:1043A000019B1A603C4B1A88B2F5A06F0FD1002117
:1043B0009A7859703E4B1A7009E0374A108842F2D9
:1043C0002102904200F0A8802D4A47F83420394A53
:1043D000012313703AE72A4A2A4B19F0080F18BF35
:1043E000134647F8383031E700F09AFB324A334938
:1043F00052F82630002B00F03B8158688C5D42F863
:10440000260003F10802C9F80420032C05D8DFE8D0
:1044100004F02C02292602228A551A8819F0080F66
:104420000CBF8823C82343EA024347F838300DE71E
:10443000E00700F1EB80210600F12881A20706D5F4
:104440001F4A204913780220DBB213700870E3067C
:1044500002D51C4B10221A7007B0BDE8F08F042261
:104460008A55DAE705228A55D7E703228A55D4E729
:104470000000FF1F3C21FF1FE820FF1F3422FF1F09
:10448000C800400088004000C421FF1F4D21FF1FCD
:10449000CC21FF1FE420FF1FB021FF1F4C21FF1F75
:1044A000C0200740BC21FF1FF820FF1FB821FF1FBD
:1044B00098200740942007409021FF1FC821FF1F2C
:1044C00088200740802007409020074042F22104C6
:1044D000A14200F0948043D8B1F5086F00F0A881A4
:1044E000B1F5106F40F0FD80B84AB94CA978117051
:1044F00004F1800503E00834AC4200F09E81236A99
:104500001906F8D5606A083800F00AFBF3E7BEF137
:10451000400F18BF002243E7AE4ACD1D11F8013B02
:1045200002F8013FA942F9D1AB4A1268862A00F08D
:104530001181AA49AA4E0A78307882F00105002834
:1045400042F002020D700CBF8821C82147F83210DA
:1045500007EBC20280F0010000213070516033E7A8
:1045600042F22124A14240F0FE81DFF8BCC29D4B03
:104570009D49AC78DCF800501D6081460C7000202D
:10458000029080468446044694490D7845F0020E18
:1045900007EBCE03B9F1000F5C600CBF8824C82480
:1045A00044EA080385F0010447F83E3032700C708D
:1045B000DFF81CE28A4BDFF82482002840F0988064
:1045C000BCF1400F1BD144F0020407EBC403029F6F
:1045D000DFF8FCE15F60002A40F09F80020442F0B7
:1045E000880207444EF8342086F800900D703B4650
:1045F000402804D100207D4A019910800B607C4A3C
:1046000001231370E3E600F0F7FB3FE6704B7848B8
:1046100072491A614FF0020E80F800E0754F0A707F
:10462000754919609960754E754D764C9A610D21EA
:104630003970FF213170DFF8F4E129702270724D7A
:10464000724A8EF800109F27012406F8047C5D60F2
:104650000470DA6007B0BDE8F08F6D4A47F83800A3
:10466000137801331370F1E543F82600694DD4E562
:104670008B5D032B67D801A252F823F04D42000056
:104680004D420000D1460000CB46000059495C4B2A
:1046900080220D2008701A70A2077FF5D8AECFE6F1
:1046A00040F20232914240F05681A98801F07F0128
:1046B000042916D86A88A2B94E4C89000C44814658
:1046C000217841F00201217059E701238B55BDE5A6
:1046D00000238B55BAE5A98801F07F01042940F237
:1046E0004781444B0F221A70414A012313706EE632
:1046F00040287FF668AF44F002040EEBC401029E2E
:104700004E60AAB1444A83F800903346403888F896
:10471000005040334EF834206DE70204029B86F8C7
:10472000009042F0C8020D7003444EF834205FE759
:1047300083F80090029B304A88F80050403840339C
:104740004EF8342057E719F0080F0CBF022303235B
:104750008B557BE5314A0F211170EAE6304A5468E7
:10476000002CBED06888B5F804E003E00C32546831
:10477000002CB6D013888342F8D153887345F5D105
:10478000000A03280CBF2078108903E0254C022082
:1047900022706270EA88824280F00C810F490D78A5
:1047A000402A45F0020E944607EBCE0028BF4FF09A
:1047B000400C04EB0C0344600293CCEB02004FEA84
:1047C0000C484FF001090022C824E9E6C421FF1F6C
:1047D0000000FF1F3B22FF1F3C22FF1FB821FF1FCD
:1047E0004C21FF1F4422FF1FDC21FF1FF820FF1F69
:1047F00094200740C02007408800400088200740E0
:104800008020074098200740FC20FF1F5021FF1FF9
:10481000B921FF1FE820FF1FC80040004D21FF1FE6
:1048200060A30000BC21FF1FDC1DFF1F8C20074080
:10483000684A694C12782270ACE76849684B694A4B
:1048400002916949694C6A4D039405964FF000093D
:1048500088461C4616460495206828B1456800F035
:104860005FF92846002DF9D100232360049B3068AE
:104870001A46002342F8293028B1456800F050F963
:104880002846002DF9D100223260029A98F80030B3
:104890001146002241F8042B039A0291023B4FF08B
:1048A000000122F81910032B07D8DFE803F03402C7
:1048B00034024FF0010388F8003009F10109B9F121
:1048C000040F04F1040406F1040608F10108C3D141
:1048D000484B059EDFF83091DFF8308100211970D8
:1048E000012518F8013B09F8043B1A0718D4AC005D
:1048F00044F0020244F00304002347F8323047F842
:1049000034303D4B994505F10105EAD196F8009008
:1049100089F0010233E64FF0000388F80030CCE75D
:1049200000F0DEF8AC0007EB451300F108020028A8
:1049300037D05A60314B47F8343000F0D1F844F0AA
:10494000010307EBC30200F1080100B351602C4AD8
:1049500047F83320CCE7B1F5A06F7FF4C2AE002258
:104960004FF001090BE642F221329142F7D0B8E64E
:104970006A88002A7FF4B5AE224C89000C44814637
:10498000217821F002012170F9E5022002E7194B9C
:1049900044F001021B7847F83200164A01331370C5
:1049A000A6E7144B134A1B78AC00013347F83400D8
:1049B0001370C2E74028844628BF4FF0400C04EB38
:1049C0000C03CCEB00004FEA0C48029300224FF09E
:1049D0000109D9E5C421FF1FBC21FF1FA021FF1F32
:1049E0003C21FF1F9021FF1FC821FF1F3422FF1F02
:1049F000E820FF1FB921FF1FD42007408800400096
:104A0000C8004000C0200740C42007405CA300004D
:104A10002DE9F041274C00F019FC002204F1880038
:104A200023461A605A60083383424FF00001F8D1E0
:104A30002148224A0368DFF89CE0214E214D224F95
:104A4000DFF894C0DFF8948043F480230360136898
:104A500043F04073136003238EF80030A0233370BB
:104A600002F5C922C4F3072300F528302B708030EB
:104A7000C4F3074310323B70240EFF230470134D20
:104A80008CF80030124888F800301370012306F8C3
:104A9000AC3C4FF400140EF8441C7026102107F8AB
:104AA0002C3C2E70046082F8F810AEF1440EBDE884
:104AB000F08100BF0000FF1F3480044000D8004098
:104AC000402107409C200740B020074035E400E02B
:104AD00004E100E04421074080200740882007408F
:104AE00072B60D480268B2FA82F30B2B10DC4FF05D
:104AF0000041D94022EA0102026062B6074803EB96
:104B0000C303DB00C2180021C1501046516070473A
:104B100062B60020704700BFA007FF1FD003FF1F31
:104B20000D4B0E4AC31AA2FB03231B090B2B0CD8F7
:104B30000B4A127852B972B60A484FF00041026827
:104B400021FA03F31A43026062B67047064A1278EC
:104B5000002AF0D0FFF7ACBAD003FF1F398EE3383C
:104B6000B921FF1FA007FF1FC421FF1F38B50F4D3C
:104B7000286878B143880288C118013393420C7ABF
:104B800002D24380204638BDFFF7CAFF00232046EB
:104B90002B6038BD064B1B782BB10320FFF754FA6E
:104BA00028600028E6D14FF0FF3038BDD821FF1F24
:104BB000C421FF1F10B5094C206818B14388184460
:104BC000007A10BD064B1B782BB10320FFF73CFA8F
:104BD00020600028F2D14FF0FF3010BDD821FF1F18
:104BE000C421FF1F044B054A1B6890881BB11A881B
:104BF0005B88D31A18447047D821FF1F3422FF1F47
:104C00000B4B1B789BB110B50A4C206848B1FFF7DD
:104C100087FF002303202360FFF716FA30B1FFF768
:104C20007FFF0320FFF710FA0028F8D110BD70476E
:104C3000C421FF1FD821FF1F2DE9F04FDFF8F890A6
:104C400083B0012289F80020019169B3DFF8EC807C
:104C5000354F019E8346D8F80000B0B3334D4488E9
:104C6000C4F14001B14228BF314604EB010E0022DD
:104C70001FFA8EFE2A70761AA0F802E000F10802F0
:104C800051B1013C224459441BF8014B02F8014F39
:104C90008B45F9D1B0F802E0BEF13F0F0BD8244AA2
:104CA00005211170002ED6D10198002389F800301B
:104CB00003B0BDE8F08F4022028001460420FFF7D8
:104CC00039FA0022C8F80020E9E73A7822B3194CF3
:104CD000164D4FF0010A07E0013C16D02A78A2B920
:104CE000FCF784FE3A78BAB10420FFF7CBF9072825
:104CF000F2D889F800A0FFF7F3FEC8F800000028FA
:104D0000ADD10D4B013C1870E8D101234FF0FF30BD
:104D10002B7003B0BDE8F08F00234FF0FF3089F80F
:104D2000003003B0BDE8F08FC421FF1FD421FF1F66
:104D3000CC21FF1F21480100CD21FF1FD021FF1FE3
:104D400000B583B002AB012103F8010D1846FFF74F
:104D500073FF03B05DF804FB38B50E4D0E4C2868A8
:104D60000123237028B1408800232370C0F1400044
:104D700038BD0A4B1B7813B90020207038BD0420C1
:104D8000FFF780F90728F7D8FFF7AAFE2860002868
:104D9000E9D1F1E7D021FF1FCD21FF1FC421FF1F63
:104DA000F8B5114B1B788BB1104E114D34680127AB
:104DB0002F7064B10F4A6388002717702146238043
:104DC0000420FFF7B7F9376000232B70F8BDFFF719
:104DD00087FE084B28B1014604201C70FFF7AAF992
:104DE000F2E71F70F0E700BFC421FF1FD021FF1FB3
:104DF000CD21FF1FCC21FF1F38B50E4B1B7873B997
:104E00000D4C216861B103F0FF054B880B80042035
:104E1000FFF790F9256038BD084B01221A7038BDA4
:104E2000FFF75EFE0028F7D00146BDE838400420B9
:104E3000FFF780B9CD21FF1FD021FF1FCC21FF1F1D
:104E4000844641EA000313F003036DD1403A41D395
:104E500051F8043B40F8043B51F8043B40F8043B54
:104E600051F8043B40F8043B51F8043B40F8043B44
:104E700051F8043B40F8043B51F8043B40F8043B34
:104E800051F8043B40F8043B51F8043B40F8043B24
:104E900051F8043B40F8043B51F8043B40F8043B14
:104EA00051F8043B40F8043B51F8043B40F8043B04
:104EB00051F8043B40F8043B51F8043B40F8043BF4
:104EC00051F8043B40F8043B51F8043B40F8043BE4
:104ED000403ABDD2303211D351F8043B40F8043B84
:104EE00051F8043B40F8043B51F8043B40F8043BC4
:104EF00051F8043B40F8043B103AEDD20C3205D394
:104F000051F8043B40F8043B043AF9D2043208D08B
:104F1000D2071CBF11F8013B00F8013B01D30B88FD
:104F200003806046704700BF082A13D38B078DD0DB
:104F300010F003038AD0C3F10403D21ADB071CBFAD
:104F400011F8013B00F8013B80D331F8023B20F817
:104F5000023B7BE7043AD9D3013A11F8013B00F850
:104F6000013BF9D20B7803704B7843708B788370D8
:104F70006046704710B4EFF3108272B6437F33B9C6
:104F8000017F012908D0032910D00123437702B9FA
:104F900062B65DF8044B7047114C2168A1B111490C
:104FA00043610B68836108605861EEE70E4C21682D
:104FB00081B10E4943610B688361086058610C4BF5
:104FC0004FF080511960E0E7064B4161816120603C
:104FD0001860DAE7054B4161816120601860EEE7F7
:104FE000F021FF1FEC21FF1FE021FF1FE421FF1F25
:104FF00004ED00E010B4047F4160022CC26003D0D5
:105000005DF8044BFFF7B6BF83685DF8044B1847A3
:1050100070B5EFF3108272B60C4C206880B10C4E64
:1050200000254369236073B19D6102B962B645777B
:1050300083689847EFF3108272B620680028F0D199
:1050400002B962B670BD3360EFE700BFE021FF1F19
:10505000E421FF1FFFF7DCBF184A30B41468002CAE
:1050600027D0036821688B420ED2CB1A00218460BE
:10507000C1602360E06010600223037530BC70479C
:1050800011688B42144608D3A2685B1A0360002A99
:10509000F6D18260C460A060EEE7D268C26084602E
:1050A000E060C568CB1A0222A8602360027530BC9C
:1050B00070478460C4601060DEE700BFE821FF1F16
:1050C000F8B5224E34682CB32368002B3AD1204F18
:1050D0001D4604E03468ECB12368002B32D1A3688C
:1050E00003B1DD6020693360036825751B68BB422E
:1050F00021D1037F4560022BC46020D0FFF73AFF27
:105100006368002BE6D023602046FFF7A5FF3468D4
:10511000002CE1D1EFF3108372B60E4A0021106823
:10512000116003B962B628B18468FFF795FF204685
:105130000028F9D1F8BD224600219847E0E78368AE
:105140009847DDE7013B2360E4E700BFE821FF1F4C
:10515000F54F0000F821FF1F024A13680133136066
:10516000FFF7AEBFDC1DFF1F704700BF30B42948FA
:10517000294A2A4B2A4D6024E121047011701B78C2
:10518000284C082B30D00A2B2748284937D00C2B25
:105190000CBF35225D2212232A60236002600B605F
:1051A000234B24491B78244ABBB101230B601360B5
:1051B000224B23491B78234A012B26D9042B0FD9D4
:1051C000082B1ED9102B94BF862387230B601360F6
:1051D0001D4B01221A7030BC70470B601360E7E76B
:1051E00084230B601360F3E700F58E200F4908302D
:1051F000212213232A60236002600B60D0E739224A
:10520000F7E785230B601360E2E780230B601360F0
:10521000DEE700BF0040074001400740A407FF1F32
:1052200008B003400CB0034008B00B400CB00B407A
:10523000FD21FF1F20B0034020B00B40A507FF1F3A
:1052400024B0034024B00B40FC21FF1F10B584B0F4
:1052500072B6FCF791FC184A184B1949116070227C
:1052600080211A701A46197013781B06FCD5154B4D
:105270001C68FCF79BFC62B6134B9C429CBF04EB82
:10528000840464002046114C01A90A22FCF7A8FC02
:1052900001A92046002311F8012B01333AB10A2B52
:1052A00020F8022FF7D11623237004B010BD5B0045
:1052B000DBB2237004B010BD0400024000000240C5
:1052C000000007410C0002407F9698003408FF1F41
:1052D00081F0004102E000BF83F0004330B54FEAA7
:1052E00041044FEA430594EA050F08BF90EA020F14
:1052F0001FBF54EA000C55EA020C7FEA645C7FEAA7
:10530000655C00F0E2804FEA5454D4EB5555B8BFC9
:105310006D420CDD2C4480EA020281EA030382EA3A
:10532000000083EA010180EA020281EA0303362DCC
:1053300088BF30BD11F0004F4FEA01314FF4801C9F
:105340004CEA113102D0404261EB410113F0004FB1
:105350004FEA03334CEA133302D0524263EB430368
:1053600094EA050F00F0A780A4F10104D5F1200E06
:105370000DDB02FA0EFC22FA05F2801841F1000161
:1053800003FA0EF2801843FA05F359410EE0A5F135
:1053900020050EF1200E012A03FA0EFC28BF4CF066
:1053A000020C43FA05F3C01851EBE37101F000451C
:1053B00007D54FF0000EDCF1000C7EEB00006EEB29
:1053C0000101B1F5801F1BD3B1F5001F0CD34908B3
:1053D0005FEA30004FEA3C0C04F101044FEA44520A
:1053E00012F5800F80F09A80BCF1004F08BF5FEA91
:1053F000500C50F1000041EB045141EA050130BD71
:105400005FEA4C0C404141EB010111F4801FA4F113
:105410000104E9D191F0000F04BF01460020B1FA68
:1054200081F308BF2033A3F10B03B3F120020CDAA0
:105430000C3208DD02F1140CC2F10C0201FA0CF07E
:1054400021FA02F10CE002F11402D8BFC2F1200CE3
:1054500001FA02F120FA0CFCDCBF41EA0C01904099
:10546000E41AA2BF01EB0451294330BD6FEA0404E2
:105470001F3C1CDA0C340EDC04F11404C4F12002CD
:1054800020FA04F001FA02F340EA030021FA04F3DF
:1054900045EA030130BDC4F10C04C4F1200220FA36
:1054A00002F001FA04F340EA0300294630BD21FA74
:1054B00004F0294630BD94F0000F83F4801306BF3A
:1054C00081F480110134013D4EE77FEA645C18BF2E
:1054D0007FEA655C29D094EA050F08BF90EA020FC5
:1054E00005D054EA000C04BF1946104630BD91EABD
:1054F000030F1EBF0021002030BD5FEA545C05D1C0
:105500004000494128BF41F0004130BD14F58004FE
:105510003CBF01F5801130BD01F0004545F0FE4172
:1055200041F470014FF0000030BD7FEA645C1ABFA7
:10553000194610467FEA655C1CBF0B46024650EADE
:10554000013406BF52EA033591EA030F41F400210A
:1055500030BD00BF90F0000F04BF0021704730B590
:105560004FF4806404F132044FF000054FF0000165
:1055700050E700BF90F0000F04BF0021704730B526
:105580004FF4806404F1320410F0004548BF4042FB
:105590004FF000013EE700BF42004FEAE2014FEA50
:1055A00031014FEA02701FBF12F07F4393F07F4F2B
:1055B00081F06051704792F0000F14BF93F07F4F5D
:1055C000704730B54FF4607401F0004521F00041A0
:1055D00020E700BF50EA010208BF704730B54FF026
:1055E00000050AE050EA010208BF704730B511F02B
:1055F000004502D5404261EB41014FF4806404F163
:1056000032045FEA915C3FF4DCAE4FF003025FEAE4
:10561000DC0C18BF03325FEADC0C18BF033202EB6C
:10562000DC02C2F1200300FA03FC20FA02F001FAC6
:1056300003FE40EA0E0021FA02F11444C1E600BF65
:1056400070B54FF0FF0C4CF4E06C1CEA11541DBF18
:105650001CEA135594EA0C0F95EA0C0F00F0DEF8E3
:105660002C4481EA030621EA4C5123EA4C5350EAC8
:10567000013518BF52EA033541F4801143F4801319
:1056800038D0A0FB02CE4FF00005E1FB02E506F0AA
:105690000042E0FB03E54FF00006E1FB03569CF0FF
:1056A000000F18BF4EF0010EA4F1FF04B6F5007F05
:1056B00064F5407404D25FEA4E0E6D4146EB060677
:1056C00042EAC62141EA55514FEAC52040EA5E5000
:1056D0004FEACE2EB4F1FD0C88BFBCF5E06F1ED8AA
:1056E000BEF1004F08BF5FEA500E50F1000041EBE1
:1056F000045170BD06F0004646EA010140EA02008E
:1057000081EA0301B4EB5C04C2BFD4EB0C0541EAAF
:10571000045170BD41F480114FF0000E013C00F3C4
:10572000AB8014F1360FDEBF002001F0004170BDE8
:10573000C4F10004203C35DA0C341BDC04F1140401
:10574000C4F1200500FA05F320FA04F001FA05F28D
:1057500040EA020001F0004221F0004110EBD3705A
:1057600021FA04F642EB06015EEA430E08BF20EA86
:10577000D37070BDC4F10C04C4F1200500FA04F329
:1057800020FA05F001FA04F240EA020001F00041BB
:1057900010EBD37041F100015EEA430E08BF20EA2E
:1057A000D37070BDC4F1200500FA05F24EEA020E76
:1057B00020FA04F301FA05F243EA020321FA04F0A5
:1057C00001F0004121FA04F220EA020000EBD3705C
:1057D0005EEA430E08BF20EAD37070BD94F0000F5C
:1057E0000FD101F00046400041EB010111F4801F90
:1057F00008BF013CF7D041EA060195F0000F18BF41
:10580000704703F00046520043EB030313F4801F7C
:1058100008BF013DF7D043EA0603704794EA0C0F36
:105820000CEA135518BF95EA0C0F0CD050EA41064C
:1058300018BF52EA4306D1D181EA030101F00041C9
:105840004FF0000070BD50EA410606BF10461946F1
:1058500052EA430619D094EA0C0F02D150EA0136FD
:1058600013D195EA0C0F05D152EA03361CBF10463E
:1058700019460AD181EA030101F0004141F0FE41DD
:1058800041F470014FF0000070BD41F0FE4141F461
:10589000780170BD70B54FF0FF0C4CF4E06C1CEA61
:1058A00011541DBF1CEA135594EA0C0F95EA0C0F16
:1058B00000F0A7F8A4EB050481EA030E52EA0335D1
:1058C0004FEA013100F088804FEA03334FF08055F2
:1058D00045EA131343EA12634FEA022245EA11151F
:1058E00045EA10654FEA00260EF000419D4208BFD0
:1058F000964244F1FD0404F5407402D25B084FEA7D
:105900003202B61A65EB03055B084FEA32024FF428
:1059100080104FF4002CB6EB020E75EB030E22BF85
:10592000B61A754640EA0C005B084FEA3202B6EB45
:10593000020E75EB030E22BFB61A754640EA5C00F4
:105940005B084FEA3202B6EB020E75EB030E22BF84
:10595000B61A754640EA9C005B084FEA3202B6EB85
:10596000020E75EB030E22BFB61A754640EADC0044
:1059700055EA060E18D04FEA051545EA16754FEAA6
:1059800006164FEAC30343EA52734FEAC2025FEAC4
:105990001C1CC0D111F4801F0BD141EA00014FF053
:1059A00000004FF0004CB6E711F4801F04BF014324
:1059B0000020B4F1FD0C88BFBCF5E06F3FF6AFAE40
:1059C000B5EB030C04BFB6EB020C5FEA500C50F1D0
:1059D000000041EB045170BD0EF0004E4EEA113153
:1059E00014EB5C04C2BFD4EB0C0541EA045170BD5A
:1059F00041F480114FF0000E013C90E645EA060E9E
:105A00008DE60CEA135594EA0C0F08BF95EA0C0FCB
:105A10003FF43BAF94EA0C0F0AD150EA01347FF413
:105A200034AF95EA0C0F7FF425AF104619462CE7EA
:105A300095EA0C0F06D152EA03353FF4FDAE10464D
:105A4000194622E750EA410618BF52EA43067FF49E
:105A5000C5AE50EA41047FF40DAF52EA43057FF42E
:105A6000EBAE12E74FF0FF3C06E000BF4FF0010C39
:105A700002E000BF4FF0010C4DF804CD4FEA410C9D
:105A80007FEA6C5C4FEA430C18BF7FEA6C5C1BD06A
:105A900001B050EA410C0CBF52EA430C91EA030FEB
:105AA00002BF90EA020F0020704710F1000F91EA48
:105AB000030F58BF994208BF90422CBFD8176FEA16
:105AC000E37040F0010070474FEA410C7FEA6C5CE4
:105AD00002D150EA013C07D14FEA430C7FEA6C5CEB
