:100000000C945C000C946E000C946E000C946E00CA
:100010000C946E000C946E000C946E000C946E00A8
:100020000C946E000C946E000C946E000C946E0098
:100030000C946E000C94C7010C946E000C946E002E
:100040000C947D010C946E000C946E000C946E0068
:100050000C946E000C946E000C946E000C946E0068
:100060000C946E000C946E00000000002400270029
:100070002A0000000000250028002B0004040404CE
:100080000404040402020202020203030303030342
:10009000010204081020408001020408102001021F
:1000A00004081020000000080002010000030407FB
:1000B000000000000000000011241FBECFEFD8E0B8
:1000C000DEBFCDBF21E0A0E0B1E001C01D92A532AE
:1000D000B207E1F70E94F8010C94EE020C940000C4
:1000E000E1EBF0E02491EDE9F0E09491E9E8F0E053
:1000F000E491EE2309F43BC0222339F1233091F03F
:1001000038F42130A9F0223001F524B52F7D12C03A
:10011000273091F02830A1F02430B9F420918000EC
:100120002F7D03C0209180002F77209380000DC089
:1001300024B52F7724BD09C02091B0002F7703C0CC
:100140002091B0002F7D2093B000F0E0EE0FFF1F54
:10015000EE58FF4FA591B4912FB7F894EC9181110F
:1001600003C090959E2301C09E2B9C932FBF0895A2
:1001700090E0FC01E057FF4F2491FC01E458FF4F51
:100180008491882399F090E0880F991FFC01E85929
:10019000FF4FA591B491FC01EE58FF4F85919491CA
:1001A0008FB7F894EC91E22BEC938FBF08959FE00A
:1001B000981B892F93E0899FF0011124F695E7950C
:1001C000E35FFE4F80FF05C08081807F808381E0F8
:1001D00004C0108281818F708061818308953FB750
:1001E000F8948091090190910A01A0910B01B091BE
:1001F0000C0126B5A89B05C02F3F19F00196A11D43
:10020000B11D3FBFBA2FA92F982F8827820F911DAC
:10021000A11DB11DBC01CD0142E0660F771F881FF3
:10022000991F4A95D1F708958F929F92AF92BF92EE
:10023000CF92DF92EF92FF926B017C010E94EF0060
:100240004B015C01C114D104E104F104F1F00E94FE
:10025000EF00DC01CB0188199909AA09BB09883E86
:100260009340A105B10570F321E0C21AD108E1085D
:10027000F10888EE880E83E0981EA11CB11CC11401
:10028000D104E104F10419F7DDCFFF90EF90DF9086
:10029000CF90BF90AF909F908F90089580E2809311
:1002A000800080910201882319F01092020102C09F
:1002B0002D9A2D98EDE0F1E080818EBD0DB407FE02
:1002C000FDCF81818EBD0DB407FEFDCF3396DF01DA
:1002D00011978C918EBD0DB407FEFDCF81E0E53204
:1002E000F80750F381E08093030190EA9093800037
:1002F000B09A80936F0080E008951F920F920FB61E
:100300000F9211242F933F938F939F93AF93BF939B
:100310008091050190910601A0910701B09108011B
:100320003091040123E0230F2D3720F40196A11D05
:10033000B11D05C026E8230F0296A11DB11D209313
:1003400004018093050190930601A0930701B093E7
:1003500008018091090190910A01A0910B01B091CF
:100360000C010196A11DB11D8093090190930A0112
:10037000A0930B01B0930C01BF91AF919F918F910E
:100380003F912F910F900FBE0F901F9018951F92C5
:100390000F920FB60F9211242F933F934F935F93B9
:1003A0006F937F938F939F93AF93BF93EF93FF933D
:1003B00080E28093800010926F0010920301E09120
:1003C0000001F0910101309711F078940995FF91A7
:1003D000EF91BF91AF919F918F917F916F915F91BD
:1003E0004F913F912F910F900FBE0F901F90189536
:1003F000789484B5826084BD84B5816084BD85B500
:10040000826085BD85B5816085BD80916E0081600B
:1004100080936E00109281008091810082608093B1
:1004200081008091810081608093810080918000B3
:100430008160809380008091B10084608093B100DE
:100440008091B00081608093B00080917A008460D8
:1004500080937A0080917A00826080937A00809104
:100460007A00816080937A0080917A00806880931E
:100470007A001092C10085E00E94B80086E00E94D8
:10048000B80088E00E94B8008DE00E94B800CAE081
:10049000D0E081E00E94700064E670E080E090E0CF
:1004A0000E94140180E00E94700064E670E080E029
:1004B00090E00E941401219761F764EF71E080E001
:1004C00090E00E94140181E00E94700064EF71E0EE
:1004D00080E090E00E941401219A229A539A2A9A6D
:1004E000239A259A229A2D9881E08DBD80E58CBDB6
:1004F000EDE0F1E0108211823396DF0111971C923A
:1005000081E0E532F807B0F380910301811102C068
:100510000E944E0180E28093800010926F00109242
:100520000301299A29988093800080E180938100BB
:1005300081E090E0909389008093880082E090E0D1
:1005400090938B0080938A0080E090E290938700E4
:100550008093860083E28093B00088E08093B100AE
:100560001092B40083E08093B3008091B100816069
:100570008093B1008091810081608093810080919F
:100580000301811102C00E944E0100E010E0EDE085
:10059000F1E0108211823396DF0111971C9281E005
:1005A000E532F807B0F3C0E08C2F0E94D70080E15D
:1005B0008C0F0E94D70080E28C0F0E94D700CF5F83
:1005C000C03191F780910301811102C00E944E0158
:1005D00001151105E1F20E940000D9CFF894FFCF78
:00000001FF
