:1000000000000320D1010000C51500007D1500008F
:100010007D1500007D1500007D1500007D15000098
:100020007D1500007D1500007D150000C515000040
:10003000C51500007D150000C51500006D150000F8
:10004000C5150000C5150000C5150000C515000048
:10005000C5150000C5150000C5150000C515000038
:10006000C5150000C5150000C5150000C515000028
:10007000C5150000C5150000C5150000C515000018
:10008000C5150000C5150000C5150000C515000008
:10009000C5150000C5150000C5150000C5150000F8
:1000A000C5150000C5150000C5150000C5150000E8
:1000B000C5150000C5150000C5150000F920000099
:1000C000C515000055280000C5150000D52D0000FD
:1000D000C5150000ED330000C5150000C515000072
:1000E000C5150000C5150000C5150000C1080000B9
:1000F000C5150000C5150000C5150000C515000098
:10010000C5150000C5150000C5150000C515000087
:10011000C5150000CD410000C5150000C515000043
:10012000C5150000C5150000C5150000C515000067
:10013000C5150000C5150000C5150000C515000057
:10014000C5150000C515000039390000C5150000AF
:10015000C5150000C5150000C5150000C515000037
:10016000C5150000C5150000C5150000C515000027
:10017000C5150000C5150000C5150000C515000017
:10018000C5150000C5150000C5150000C515000007
:10019000C5150000C5150000793F0000C515000019
:1001A000C5150000C5150000C5150000C5150000E7
:1001B000C5150000C5150000C5150000C5150000D7
:1001C000C5150000C5150000C5150000C5150000C7
:1001D0005C4B4CF2205210B51A804DF628121A8052
:1001E00000BF00BF01F0F2F9574B4FF030621A60C8
:1001F000564A9A60564ADA60564B4FF470021A60BB
:10020000554B564A1A60564A136813F4807304D14A
:1002100054490B604FF4A8531360534B1A781107DD
:1002200003D51A7842F008021A70504B5049AA229E
:100230001A70504A504B8B4204D252F8040F43F8C4
:10024000040BF8E74D4B4E4900228B4202D243F893
:10025000042BFAE74B494C4A002352F8230041F89B
:1002600023000133742BF8D1484B494A802103F80D
:10027000011B9342FBD1474B424A1A60464B8A22EC
:100280001A70A3F5805324225A70A0221A709A790A
:100290009207FCD59A79D406FCD4404A937903F0AE
:1002A0000C03082BFAD13E4B60221A7002331A78E5
:1002B000802AFCD1394B01221A715D225A719A7938
:1002C0009006FCD59979354A4906FBD5354B364918
:1002D00019600021596020231370937903F00C03F7
:1002E0000C2BFAD1314B324A1A60324B324A1A6027
:1002F00000225A60072243F8042C304AC3F80C2D20
:1003000062B601F0D3FA174B1B68DA0705D52C4803
:1003100001F05CFA2B4B2C4A1A602C4B1B785B06C5
:1003200009D5284C284B22689A4204D1244801F070
:100330004DFA0023236005F03DFD01F04DF901F079
:100340007BF8FEE70E20054030800440823F040029
:100350000100002B88ED00E0002008E0030000858C
:1003600010D0034014D0034002D0074000E0074003
:100370009811FF1FD4A800003007FF1F9811FF1F1E
:100380003422FF1F0002FF1F0000000000E400E015
:1003900064E400E008ED00E0005006400040064044
:1003A00001E007404480044000000602048004404D
:1003B000C010070014E000E01FBF02000000202072
:1003C000081A82591CE00340A5C3945A00F0074064
:1003D000FFFFFFFFFFFFFFFFFFFFFFFFFFFFFFFF2D
:1003E000FFFFFFFFFFFFFFFFFFFFFFFFFFFFFFFF1D
:1003F000FFFFFFFFFFFFFFFFFFFFFFFFFFFFFFFF0D
:10040000FFFFFFFFFFFFFFFFFFFFFFFFDEF9FFFF23
:1004100010B5054C237833B9044B13B10448AFF33E
:1004200000800123237010BD9811FF1F0000000001
:10043000D0A80000084B10B51BB108490848AFF31D
:1004400000800848036803B910BD074B002BFBD0A0
:10045000BDE81040184700BF000000009C11FF1FBE
:10046000D0A800009811FF1F0000000010B5034B3A
:100470000360044600F07AFB204610BD40A1000056
:1004800010B5054B0360044600F070FB204600F0F9
:10049000DBFF204610BD00BF40A100002D4A2E49C1
:1004A000106870B52D4C2E4E0B783BB123789B070E
:1004B00004D0136835685B1B182B04D813681B1A0B
:1004C000B3F57A7FF0D90521264804F0BDFB13214E
:1004D000254804F0B9FB254800F0B8FF0322244961
:1004E000224800F0CBFF10231A4622491F4800F093
:1004F000C5FF0121172001F081F90121162001F02B
:100500007DF90121152001F079F901210D2001F07B
:1005100075F9194800F0FCFB184800F0F9FB0121BF
:100520000D2001F065F94FF4FA7001F06DF900212A
:100530000D2001F05DF94FF4FA7001F065F9012129
:100540000D2001F055F900210D48BDE8704000F084
:100550002FBA00BFB01DFF1F9821FF1FB021FF1F42
:100560002C22FF1F74A000007CA000009C1DFF1F18
:1005700090A000009CA00000B411FF1FE015FF1F19
:100580005C1DFF1F00B5ADF5437D42A94FF4FF731D
:100590000122194800F084FCB0F5FF7F1DD0421CF9
:1005A00005D00346154A1649164800F067FF01A911
:1005B0004FF481730122144800F072FCB0F5817F82
:1005C00011D0431C05D00346104A0D490D4800F0D8
:1005D00055FF0DF5437D5DF804FB024642A90C482A
:1005E00004F012FCE3E7024601A90A4804F00CFCFF
:1005F0000DF5437D5DF804FBB411FF1FB0A00000B2
:10060000F0A000009C1DFF1FE015FF1FF8A00000D8
:100610000C1AFF1F0A1CFF1FF0B50123104FDFF853
:100620004CE0104D104C03FA00F002233B6080B206
:1006300000230426402240FA03F1C9074CBFCEF83C
:1006400000603E602A6000BF00BF0133102B2260B3
:10065000F1D10349054B0420022208601A60F0BD65
:1006600088F00F40C4F00F40C8F00F4084F00F40F6
:100670002DE9F84FFFF786FF264DDFF8AC90264FA7
:10068000264E4FF00008264800F044F9CB460024DF
:100690005FFA84FA9BF800202148514600F054F993
:1006A0009BF801201E480AF11001C9B2120100F0A6
:1006B0004BF99BF802201A480AF120010134C9B213
:1006C000120100F041F9102C0BF1030BE0D10223D1
:1006D0002B6004214023296004223B6000BF00BF3F
:1006E000013CA4B23360002CF5D10A490D4B0A60DD
:1006F000022240461A60FFF78FFF08F10108084800
:1007000000F018F9B8F1100F09F13009BBD1BDE8BC
:10071000F88F00BF88F00F40C4F00F40C8F00F40C2
:100720005C1DFF1F84F00F400C1AFF1F2DE9F04FD6
:10073000294E2A4B2A4A2B4D72603746002447F82F
:10074000103B83B040F2012806F2112B21464246AD
:10075000DFF89CA03472F4603846019305F094FEF3
:1007600042462146584605F08FFE4FF00109C6F873
:10077000147452462F4630461B49C6F818B4C6F8C2
:100780001C44C6F8204486F8289405F001FB019B20
:1007900047F8103B4246154B6B60214605F2112687
:1007A00038462C72EC6005F06FFE4246214630461A
:1007B00005F06AFE0C4985F8289452462846C5F88B
:1007C0001474C5F81864C5F81C44C5F8204403B077
:1007D000BDE8F04F05F0DCBAB411FF1F40A10000E6
:1007E0006C1DFF1FE015FF1F6D0400007C1DFF1F27
:1007F0003007FF1FF0B52B4A2B4B4FF4A27111604D
:100800001A78002A47D000221A70284F2849294A0E
:1008100007F1480E1025042317F8036C08248020E4
:10082000064214BF15600D60136000BF013C0B60F1
:100830004FEA5000F4D117F8026C082480200642D9
:1008400014BF15600D60136000BF013C0B604FEAE0
:100850005000F4D117F8016C08208024264214BF00
:1008600015600D60136000BF01380B604FEA54043F
:10087000F4D103377745CFD10F4C0A4B0F4A0125EE
:100880004FF4517125701960136803F0070343F0AA
:1008900068031360F0BD074A0423136000BF536070
:1008A000B3E700BF309004400D1DFF1F171DFF1F51
:1008B000C8F00F40C4F00F400C1DFF1F0090034014
:1008C000104A11481368190648BF03F07F0310B49B
:1008D00048BF13600D4B0B4A0D494FF4A2741C60C6
:1008E000136803F0070343F0280313600B6800222A
:1008F000027023B162B60B685DF8044B18475DF8CF
:10090000044B7047009003400C1DFF1F30900440C3
:10091000101DFF1F064B002203F1480103F8032CB2
:1009200003F8022C03F8012C03338B42F6D17047F5
:10093000171DFF1F034B1B780BB9FFF75BBF01208F
:10094000704700BF0C1DFF1FC1F12F01C9B201EBA1
:1009500041030E485B10C90710B400EB03040AD42E
:100960001111C154637803F00F0343EA021262705D
:100970005DF8044B7047C15C21F00F0141EA122180
:10098000C15462705DF8044B704700BF141DFF1F17
:1009900008B50121062000F031FF0121072000F0F9
:1009A0002DFF024B04221A6008BD00BFC8F00F40A3
:1009B0002DE9F04103200C46012100F01FFF012129
:1009C000042000F01BFF0121052000F017FF4A4B17
:1009D0004FF400521A60FFF7DBFF2212474B42EA46
:1009E0000412D2B2C4F30715E1B203F1480003F8D0
:1009F000035C03F8022C03F8011C03338342F6D195
:100A00003F4C2378002B74D03E4B3F493A4D4FF476
:100A1000A2721A600A6802F0070242F0280200235C
:100A20004FF480500A602370286000BF374A384F67
:100A30001060A5F53625A5F57D6510602A68354856
:100A4000DFF8E480344EDFF8E4C0DFF8E4E042F0A1
:100A500004022A600422037005F5CF3588F80030BF
:100A60003A700B22327005F5E8750122A8F5AF380F
:100A70008CF8002008378EF80030A8F5F7783B7026
:100A8000ACF1021C337260262E70A7F52437027079
:100A9000ACF5104C4FF41172AEF5233EC8F80020AF
:100AA0001E4E0B604FF4F042AEF2FB3EA5F523352F
:100AB0003A60A5F57D75CCF800302423CEF80030DF
:100AC00017483360174A47F2FC7647F2FB732E60F3
:100AD0003B6128264FF451734FF400650E600560AA
:100AE000136023780BB1BDE8F081BDE8F041FFF75A
:100AF00081BEFFF77FFE87E704F00F40171DFF1F41
:100B00000C1DFF1F309004400090034008F00F4080
:100B100000200640052006400120064014900340B6
:100B200004E100E0349004400A200640062006401C
:100B3000072006400B4B1A79920611D50A4ADB7939
:100B40009168D1F81C24B2F5007FDBB208DCD1F843
:100B5000140410B4541CC1F81C4483545DF8044BB5
:100B6000704700BF00C00640601DFF1F08B5037A34
:100B70005BB143681C4900228B42027224D01B499E
:100B80008B4203D01A498B4217D008BD1948196807
:100B900042600A6A18469047174A18499379042018
:100BA00003F0FD0393710860154A1449937903F02B
:100BB000FD0310209371086008BD0E48196882601B
:100BC0000A6A18469047EFE719680A4802600A6AFD
:100BD000184690470B4A09499379012003F0FD0319
:100BE00093710860D8E700BF6C1DFF1F7C1DFF1FBD
:100BF0008C1DFF1F601DFF1F00B0064084E100E058
:100C000000C0064000A006401E48037913F0300FD4
:100C100030D01D4B70B41C6872B6827D02F0FF03A9
:100C20004AB362B6D4F81C14013B13F0FF0301F180
:100C3000010511D0C279B1F5007FD2B2F4DCD4F84D
:100C40001464C4F81C547254013BD4F81C1413F0FF
:100C5000FF0301F10105EDD10A4B1A79DB79B1F5FA
:100C6000007FDBB20BDCD4F81424481CC4F81C044D
:100C7000535470BC70474023C279437462B670BC51
:100C8000704700BF00A00640601DFF1F1E4803798B
:100C900013F0300F30D01D4B70B45C6872B6827D9B
:100CA00002F0FF034AB362B6D4F81C14013B13F000
:100CB000FF0301F1010511D0C279B1F5007FD2B275
:100CC000F4DCD4F81464C4F81C547254013BD4F816
:100CD0001C1413F0FF0301F10105EDD10A4B1A7941
:100CE000DB79B1F5007FDBB20BDCD4F81424481CAF
:100CF000C4F81C04535470BC70474023C279437439
:100D000062B670BC704700BF00B00640601DFF1F98
:100D1000037A73B970B54D4B04464068012298427E
:100D2000227230D04A4B984204D04A4B98424FD05E
:100D300070BD7047484D6B68002B71D103686C60C3
:100D4000DB69464904229847454D46493423EB70F8
:100D5000212000F033FD4449222000F02FFD434ABA
:100D6000434B12781A70AB79424A43F002030421D4
:100D7000AB71116004F1100204F21123C4F81424C1
:100D8000C4F8183470BD344D2B68002B41D0184680
:100D9000FFF7ECFE6068314903682C60DB690422D0
:100DA0009847354D35493423EB701F2000F006FD80
:100DB0003349202000F002FD324A334B12781A707A
:100DC000AB792C4A43F002030121AB711160D1E7EA
:100DD000214DAB68002B2ED10368AC60DB691F4945
:100DE00004229847294D2A4924262320EE7000F03A
:100DF000E5FC2849304600F0E1FC274A274B1278F1
:100E00001A70AB791B4A43F002031021AB711160D9
:100E1000B0E703682C60DB69104904229847C0E7FB
:100E20001846FFF7A3FE60680C4903686C60DB6935
:100E30000422984788E71846FFF798FE606807493C
:100E40000368AC60DB6904229847CBE76C1DFF1F89
:100E50007C1DFF1F8C1DFF1F601DFF1F90D0030016
:100E600000B006408D0C00000110000021E400E0FD
:100E700022E400E004E100E000A00640090C0000CC
:100E8000A10F00001FE400E020E400E000C00640E5
:100E9000350B00007D0F000023E400E024E400E0B7
:100EA00030B5D0F82054002D83B02FDD002B14DD99
:100EB000B2F5007F11D8044672B6D0F8200400289D
:100EC00021DDD4F8200482420ADB00230022C4F88A
:100ED000202462B6184603B030BD002003B030BDF8
:100EE000D4F820049D188542C8BFD4F82034D4F823
:100EF0001854C8BF9B1A0846A9181A46019303F054
:100F000083FF019BE2E74FF0FF33E2E74FF0FF3052
:100F1000E4E700BFD0F81C34002B1EDD90F8282435
:100F2000E2B9D0F8141400F11002914282B01CD042
:100F300000F21121C0F81424C0F81814C2680E4938
:100F40000132C260C0F820340B680193019BC0F8E5
:100F500024340023C0F81C3402B07047002380F80A
:100F600028340023C0F81C34704700F21122C0F866
:100F70001814C0F81424E1E7B01DFF1F064B1A79BE
:100F8000920706D5054ADB7990681BB10023C0F8AB
:100F90001C347047FFF7BEBF00C00640601DFF1F36
:100FA00070B4154C23799B0721D5A37D134ADBB27E
:100FB000012B106815D9013B13F0FF0311D0D0F8B5
:100FC0001C24E179B2F5007FC9B202F10105F2DC1F
:100FD000D0F81464C0F81C54013B13F0FF03B15463
:100FE000EDD1054BDB7923B10023C0F81C3470BC74
:100FF000704770BCFFF78EBF00A00640601DFF1F4A
:1010000070B4154C23799B0721D5A37D134ADBB21D
:10101000012B506815D9013B13F0FF0311D0D0F814
:101020001C24E179B2F5007FC9B202F10105F2DCBE
:10103000D0F81464C0F81C54013B13F0FF03B15402
:10104000EDD1054BDB7923B10023C0F81C3470BC13
:10105000704770BCFFF75EBF00B00640601DFF1F09
:101060000368C9B21B6818470368C9B21B681847F0
:101070000368C9B21B6818470368C9B21B681847E0
:1010800008B5084600F02AFF012008BD08B508464B
:1010900000F024FF012008BD38B508460D4605F0D4
:1010A0004FFC04460146284600F022FF204638BD8A
:1010B00010B508461446114600F01AFF204610BD30
:1010C00000F086BF00F0F2BF08B5084600F0DEFE73
:1010D000003018BF012008BD08B5084600F0B4FE76
:1010E000003018BF012008BD0846114600F028BE98
:1010F000084600F06FBE00BF084600F005BE00BF06
:1011000000F092BD034B03EB5100B0FBF1F000F097
:10111000D5BC00BF002A751510B5064B144603EB6D
:101120005100B0FBF1F000F0C9FC2046BDE81040D2
:1011300000F044BD002A751500F03EBF00F09EBFD0
:1011400000F068BF00F056BF704700BF044B054A6F
:101150001A604FF47A71002299601A711A737047FD
:101160006C1DFF1F58A1000008B5084601F016FAD3
:10117000012008BD08B5084601F010FA012008BD9D
:1011800038B508460D4605F0DBFB04460146284607
:1011900001F05CFA204638BD10B5084614461146E9
:1011A00001F054FA204610BD01F0C0BA01F02CBB8A
:1011B00008B5084601F0CAF9003018BF012008BD83
:1011C00008B5084601F0A0F9003018BF012008BD9D
:1011D0000846114601F030B9084601F067B900BF72
:1011E000084601F00DB900BF01F0AEB8034B03EBA8
:1011F0005100B0FBF1F001F005B800BF002A7515F1
:1012000010B5064B144603EB5100B0FBF1F000F0B3
:10121000F9FF2046BDE8104001F060B8002A7515BE
:1012200001F078BA01F0D8BA01F0A2BA01F090BA90
:101230000368064A1B68934205D110B5C8B201F095
:10124000ADF9012010BDC9B2184700BF75110000EB
:101250000368064A1B68934205D110B5C8B201F075
:101260009DF9012010BDC9B2184700BF75110000DB
:101270000368064A1B68934205D110B5C8B201F055
:101280008DF9012010BDC9B2184700BF75110000CB
:101290000368064A1B68934205D110B5C8B201F035
:1012A0007DF9012010BDC9B2184700BF75110000BB
:1012B000704700BF044B054A1A604FF47A71002250
:1012C00099601A711A7370477C1DFF1FB8A1000046
:1012D00008B5084601F0D2FC012008BD08B5084653
:1012E00001F0CCFC012008BD38B508460D4605F0DC
:1012F00027FB04460146284601F0CAFC204638BDBB
:1013000010B508461446114601F0C2FC204610BD37
:1013100001F0E0BC01F04CBD08B5084601F08EFCC0
:10132000003018BF012008BD08B5084601F064FC74
:10133000003018BF012008BD0846114601F030BC3E
:10134000084601F057BC00BF084601F00DBC00BFC5
:1013500001F0D4BB034B03EB5100B0FBF1F001F003
:1013600051BB00BF000E270710B5064B144603EB18
:101370005100B0FBF1F001F045FB2046BDE8104004
:1013800001F086BB000E270701F098BC01F0F8BC05
:1013900001F0C2BC01F0B0BC0368064A1B6893426E
:1013A00005D110B5C8B201F069FC012010BDC9B269
:1013B000184700BFDD1200000368064A1B6893420D
:1013C00005D110B5C8B201F059FC012010BDC9B259
:1013D000184700BFDD1200000368064A1B689342ED
:1013E00005D110B5C8B201F049FC012010BDC9B249
:1013F000184700BFDD1200000368064A1B689342CD
:1014000005D110B5C8B201F039FC012010BDC9B238
:10141000184700BFDD120000704700BF044B054AAB
:101420001A604FF47A71002299601A711A7370472A
:101430008C1DFF1F18A2000008B5FFF72FF8FFF75B
:1014400017F900F04BF8FAE704F0E4BC00B5064ADF
:10145000036812885B6883B001A9ADF804200222FA
:10146000984703B05DF804FB70A2000010B5036854
:1014700014465B689847204610BD00BF0EB400B507
:1014800082B003AA52F8041B019205F0EDFA02B0F3
:101490005DF804EB03B0704703F0BABB03F064BC23
:1014A00003F090BB03F06ABB03F0A4BB08461146EF
:1014B00003F0CABB084603F04BBC00BF704700BF37
:1014C000044B054A1A604FF47A71002299601A7130
:1014D0001A7370479C1DFF1F7CA2000010B5224CA0
:1014E000237803B110BD0123237003F083FBA0B95F
:1014F00000F080FDB8B901F02BF9D0B901F0FCFB88
:10150000E8B901F005FF00BB02F0A8F918BB02F032
:10151000C5FC30BB0023237010BDFFF7CFFF00F0E8
:1015200069FD0028E7D0FFF70FFE01F011F9002850
:10153000E4D0FFF7BDFE01F0DFFB0028E1D0FFF7AC
:101540006BFF01F0E5FE0028DED003F09BFD02F00A
:1015500085F90028DBD003F049FE02F09FFC00284B
:10156000D8D003F0EBFED5E7AC1DFF1F024A13688D
:1015700001331360704700BFB01DFF1F08B5104C4A
:1015800008E0236859050DD423681A050FD4236891
:10159000DB0411D423685803F3D502F017FE236847
:1015A0005905F1D500F0A8FD23681A05EFD501F023
:1015B00051F92368DB04EDD501F00CFCEAE700BF2C
:1015C0003480044008B5FFF7D9FF00BF014B10225B
:1015D0001A80704700200540704700BF094908B5D0
:1015E0000B6830B16A461844A2F50052904202D20C
:1015F0000860184608BD04F0D7FB0C2303604FF0C9
:10160000FF3008BD3407FF1FEFF3138070B9EFF30D
:1016100010836BB9EFF305825AB94FF48070EFF382
:1016200011832BB1984228BF184670474FF0FF3006
:1016300070470F2A01D81846F1E7014BD05CEEE75E
:10164000F0E300E0084A1378802B01D000207047B7
:101650000649074B07480860002119701378802B52
:10166000FCD00120704700BF03E0074044800440E5
:1016700001E0074000002822094A1378012B01D01D
:101680000020704703F1804303F5FC2360211970AB
:101690001378802BFCD1034B034A1A60012070475A
:1016A00003E007404480044000000602F0B44D1EF1
:1016B0002E46002400E00134B0FBF2F302FB1300DD
:1016C000092800F130078ABF3730F8B2C0B206F8F7
:1016D000010F1846002BEED10A1953704CB1107847
:1016E00015F8016F28700133E01A834202F801698E
:1016F000F5DB0846F0BC704710B4114B53F83020AE
:1017000092F8804234B1012379B182F880305DF8DB
:10171000044B704703EBC0035B681A6851B922F0B1
:1017200002021A605DF8044B704782F800315DF8E0
:10173000044B704742F003021A605DF8044B704797
:1017400098A200001C4A02EBC00301295B6811D07B
:1017500004291BD052F83000002280F8802229B1E1
:10176000022920D0032922D01A6070474FF48072DA
:101770001A60704752F830004FF4A27280F880125D
:101780001A601A6822F020021A60704752F830106E
:101790004FF4A272012081F880021A601A6842F0A8
:1017A00020021A60704740F203121A6070474FF42B
:1017B00081721A60704700BF98A200001030024B7F
:1017C00043F82010704700BF0002FF1F30B4054BE4
:1017D000054D064C002210211A602A602060196015
:1017E00030BC704714D0034004D0034000D0034005
:1017F0003F2801D8FFF780BF704700BF3F2801D8BE
:10180000FFF7A0BF704700BF2DE9F843054672B649
:10181000224F234B234A1B683C68126862B6520170
:1018200002D5322B88BF0134B5B3C3F52F3303F291
:101830001F331D4EDFF86890DFF868809B084FF477
:101840007A72A6FB031302FB04F404EB930472B652
:10185000D9F800103A68D8F800E062B6C1F52F3325
:1018600003F21F339B08A6FB03031EF0806FC4EB3B
:1018700093034FF47A7002D0322988BF013200FB03
:101880000233B3F57A7F04D3013D05D004F57A74B1
:10189000DDE7FFF723FEDAE7BDE8F883B01DFF1FA1
:1018A00018E000E004ED00E0176CC116F8B54E4BEF
:1018B0004E48DFF85CC14E4C4E49DFF858E14E4EC1
:1018C0004E4D4F4F4FF000621A604FF080521A6039
:1018D0004FF000521A604FF080421A604FF0004201
:1018E0001A600022026028234EF6FF70CCF8000038
:1018F000CEF8003023600EF5012E0B6033602B60B4
:1019000006F500263B6005F50025A36207F50027D4
:101910008B6204F5012401F5012106F6E87605F64F
:10192000E87507F57F6710310EF1100E2034336033
:101930002B60CEF800303B600B602360314CBB6104
:101940008B6109212160A7F5002704F58054203F11
:1019500008343A602060BB60E36047F8041C04F57B
:10196000FD2407F5FE27043704F2FC74226038607A
:10197000A360FB6044F8041C083404F6FC74C7F848
:10198000FC2F2060A4F5E124A4F2DC7433602B600A
:10199000C7F8F81F21681C4841F4007121600168F4
:1019A0001A4C0EF57F4E0EF1E80E07F5883706F556
:1019B000803605F5803541F000710160CEF80020D9
:1019C00047F6FF710822396033602B60226003F014
:1019D000C5FC3220FFF718FF03F022F84FF4AF7078
:1019E000BDE8F840FFF710BF04E100E004800340C9
:1019F000148003401C800340248003402C8003405B
:101A000034800340008003400480044000900C4078
:101A1000088003400C8003402DE9F84F214B1B68E0
:101A200007460BB101221A70DFF888901E4D99F815
:101A30000040DFF884801D4E01343F2C8ABF4FF0F8
:101A4000000A5FFA84FA5446AB462B78A34216D1BB
:101A5000FFF7DAFD40281FDC33791B06F5D59BF82C
:101A6000003001333F2B86BF00221346DAB218F84C
:101A70000330DBB2F3712A702B78A342E8D00C4913
:101A80000A4BFFB208F804700120BC22087089F8E4
:101A900000A0DA70BDE8F88FFF28D6DDFFF71EFD45
:101AA000D3E700BF441EFF1F411EFF1F00A00640DA
:101AB000401EFF1F481EFF1FBC1DFF1F2E4A2F493F
:101AC0001368F0B543F4806313600A782C4F2D4EF1
:101AD0002D4D2E4C2E490023152A3B7033702B7050
:101AE00023700B7043D01B2A3CD04AB3294B1B7880
:101AF000052B2DD01A2B30D0012B1CD0264B274C78
:101B00002749C0F34436C0F347151E7000F01F008C
:101B10005D7004224FF0020E88273C264025987203
:101B20009A704FF0004083F813E05A751F74DE700E
:101B300025700860F0BD1B4B4FF451721A60DDE751
:101B4000194B40F213321A60124B1B78052BD1D17E
:101B5000164B4FF451721A60D0E7154B4FF4517287
:101B60001A60CBE7134B40F213321A60BEE7124BF8
:101B700040F213321A60B9E734800440FC1DFF1FA5
:101B8000B81DFF1FB91DFF1F481EFF1F411EFF1F6D
:101B9000401EFF1F3807FF1F00A006401FE400E0A3
:101BA00000E100E044A0044040A004401CC0044008
:101BB000389004403C90044018C00440194B194927
:101BC0009B7803F0EC0200F003031343420700F09C
:101BD0000F0248BF43F01003042A8B701CD0114B36
:101BE000104A5B79C10603F0EF0348BF43F01003CE
:101BF00053719379820603F0EF030A4A48BF43F01A
:101C000010039371C30506D553781178DBB241F008
:101C100020011170537070478B7943F040038B7132
:101C2000DDE700BF00A00640284B1B685B0533D5ED
:101C300010B5274C237823B1FFF750FC2378002BF5
:101C4000FAD12448244A254B4FF000440021046077
:101C5000D1701B78152B20D01B2B32D01BB9204BF9
:101C600040F203121A601F4B1B7803F07F03052B11
:101C70001DD01A2B20D0012B03D11B4B40F2031295
:101C80001A601A4B1A481B491A68002303700B701C
:101C90000AB10123137010BD7047174B40F20312B5
:101CA0001A60104B1B7803F07F03052BE1D1134B17
:101CB00040F203121A60E4E7114B40F203121A607B
:101CC000DFE7104B40F203121A60CCE73480044087
:101CD000401EFF1F80E100E000A00640FC1DFF1F2A
:101CE00040A004403807FF1F44A00440B41DFF1F5C
:101CF000B81DFF1FB91DFF1F18C004401CC00440C1
:101D0000389004403C9004400A4A38B505461378A0
:101D100003F0FF04002BFAD101212846FFF76EFDE6
:101D200021462846FFF764FD034A044B52F835204C
:101D30001A6038BD401EFF1F98A20000441EFF1FFE
:101D400009B140F080001E4A137898421BD010B4AD
:101D50001C4C2468640513D503F07F03052B2AD09F
:101D60001A2B24D0012B14D0002900F07F0114BFBE
:101D700060234423052915D01A290ED0012903D048
:101D800010705DF8044B70470F4943F440730B60CB
:101D9000F6E70D4B00241C60E6E70C4943F4407362
:101DA0000B60EDE70A4943F440730B60E8E7074B2B
:101DB00000241C60D8E7064B00241C60D4E700BF59
:101DC0003807FF1F3480044044A00440389004408A
:101DD0001CC00440174A137883420ED01649096884
:101DE000490509D5152B20D01B2B1AD05BB115281E
:101DF0000DD01B2810D008B1107070470F4B40F267
:101E000013311960F8E70D4915280B60F1D10C4B1F
:101E100040F213311960EFE70A4B40F213311960B9
:101E2000EAE7084B00211960E1E7054B0021196042
:101E3000DDE700BFFC1DFF1F3480044040A00440CC
:101E400018C004403C9004400D4B1B6813F48063A1
:101E500005D03F2805D90B4B002018607047184665
:101E60007047094B10B5074C53F8303023600121FF
:101E7000FFF7C4FC236800221A70012010BD00BFC8
:101E800034800440B41DFF1F98A200000F4B1B6854
:101E900013F4806308D0122808D0142811D00C4AFB
:101EA000537B03F0FE03537300207047094B40F24D
:101EB00002321A60064A537B43F001035373012038
:101EC0007047054B40F202321A60F3E73480044059
:101ED00000A006400CA0044014C00440034B1B6843
:101EE0005B0501D5FFF798BD704700BF3480044003
:101EF0002DE9F84F294B1B685A0548D5284B1B681C
:101F000005460BB101221A7005EB010A554540D276
:101F1000DFF89C80234CDFF89C90234F0AE015F8F3
:101F2000012B09F80B20214A0123AA45137088F8D8
:101F300000602ED098F80030227803F1010BBBF13D
:101F40003F0F86BF0026B3465FFA8BF69345E6D176
:101F5000BC22FA7005E03A7913060BD42278934537
:101F6000DDD1FFF751FB4028F5DDFF28F6DDFFF757
:101F7000B5FAF3E7227801323F2A86BF00210A46EC
:101F8000D1B219F80220D2B2FA712170E6E7BDE8A9
:101F9000F88F054BBC22DA70BDE8F88F348004401E
:101FA000441EFF1F411EFF1F00A00640401EFF1FD2
:101FB000481EFF1FBC1DFF1F10B5044C237823B122
:101FC000FFF78CFA2378002BFAD110BD401EFF1FBB
:101FD000064A074B1B781078DBB2C0B283422CBF95
:101FE0003F3000F1FF30C01A704700BF411EFF1F95
:101FF000481EFF1F054A064B10781B78C0B2DBB2A3
:10200000984238BF4030C01A704700BFB81DFF1F4C
:10201000B91DFF1F30B4154B154C1A782378D2B276
:10202000DBB29A421ED001333F2B0ED91149124B1D
:10203000087819680023C0B2237021B1D31A1A2B73
:1020400001DC00230B7030BC70470A480A49C05CB1
:102050000968DDB2C0B225700029F4D09A4238BFB9
:102060004032EBE74FF0FF30EDE700BFB81DFF1F38
:10207000B91DFF1F001EFF1FB41DFF1F084A094B9B
:1020800012781B78DBB29A4207D00133402B28BF6D
:102090000023054AD05CC0B270474FF0FF30704754
:1020A000B81DFF1FB91DFF1F001EFF1F0D4B1B6832
:1020B0005B0516D530B40C4B0C4CDA780C480D4946
:1020C00002F0CB024025DA705D74DA7842F0340217
:1020D000DA7023780268DBB20B700AB10023137048
:1020E00030BC70473480044000A00640B91DFF1F7B
:1020F000B41DFF1FB81DFF1FF0B4384B1A7912F042
:10210000300F2CD072B6997D01F0FF0200293DD02E
:1021100062B6334F334938780D78334E1C46C0B21F
:10212000EDB2431C402BE17928BF0023AB4202F102
:10213000FF32C9B21CBFF154184612F0FF02F0D1B1
:102140002A4B1B68C2B23A704BB1A84236BFC5F1E8
:102150004005401B40192728C4BF01221A701F499F
:10216000CA78D2B2150616D452060DD51B4B1B7970
:102170005B0609D51E4B1F491B6800220A7003B17C
:102180001A70164B3C22DA70F0BC70474022D979A5
:102190005A7462B6E3E70B791C06E5D5164B174E69
:1021A0001C783378E4B2DBB29C420ED0144D01E0CF
:1021B000A3420AD00133402B28BF00230879E85CF2
:1021C000C0B2C871087D0728F2D9DBB20349337069
:1021D0000B79180644BF7C23CB70C5E700A00640EE
:1021E000B81DFF1FB91DFF1F001EFF1FB41DFF1FDD
:1021F000441EFF1F401EFF1F481EFF1F411EFF1FE2
:10220000BC1DFF1F264A27491368F0B443F400633E
:1022100013600A78244F254E254D264C264900236D
:10222000092A3B7033702B7023700B7032D03B2A1D
:1022300023D0224B1B780A2B27D03A2B03D1204BDB
:102240004FF451721A601F4B1F4D204CC0F344379E
:10225000C0F3471600F01F001F7004215E700222B9
:10226000987288273C2640209970DA7459751F743B
:10227000DE7028702260F0BC7047154B40F21332BC
:102280001A600E4B1B780A2BD7D1124B4FF45172A8
:102290001A60D8E7104B40F213321A60C9E700BF4A
:1022A000348004403907FF1FBC1EFF1F511EFF1F53
:1022B000C41EFF1FBD1EFF1F501EFF1F3A07FF1F3A
:1022C00000D0044000B0064021E400E004E100E05A
:1022D00004D0044010B004400CB00440194B19491C
:1022E0009B7803F0EC0200F003031343420700F075
:1022F0000F0248BF43F01003042A8B701CD0114B0F
:10230000104A5B79C10603F0EF0348BF43F01003A6
:1023100053719379820603F0EF030A4A48BF43F0F2
:1023200010039371C30506D553781178DBB241F0E1
:1023300020011170537070478B7943F040038B710B
:10234000DDE700BF00B00640204B1B681B053BD5F6
:1023500010B51F4C237823B1FFF7C0F82378002B6A
:10236000FAD11C481C491D4B022400220460CA708B
:102370001B78092B19D03B2B01D1194B1A60194B33
:102380001B7803F07F030A2B19D03A2B02D1164B8E
:1023900000221A60154B164816491A68002303706C
:1023A0000B700AB10123137010BD134B40F20312DE
:1023B0001A600C4B1B7803F07F030A2BE5D10F4BFF
:1023C00040F203121A60E5E7704700BF3480044012
:1023D000501EFF1F84E100E000B006403907FF1FD8
:1023E00004D004403A07FF1F00D004404C1EFF1FDA
:1023F000BC1EFF1F511EFF1F0CB0044010B0044054
:102400000A4A38B50546137803F0FF04002BFAD1C9
:1024100001212846FFF7F2F921462846FFF7E8F99F
:10242000034A044B52F835201A6038BD501EFF1F76
:1024300098A20000C01EFF1F09B140F08000174A9B
:102440001378984217D010B4154C246824050FD582
:1024500003F07F030A2B1DD03A2B12D0002900F085
:102460007F0114BF602344230A290ED03A2903D0E8
:1024700010705DF8044B70470A4943F440730B60D9
:10248000F6E7084B00241C60E8E7074943F4407373
:102490000B60EDE7044B00241C60DFE73A07FF1FE9
:1024A0003480044000D0044010B00440124B1A782D
:1024B00082420CD011490968090507D5092A16D0AE
:1024C0003B2A0AD009280DD03B2801D0187070474C
:1024D0000B4A40F213311160F8E7094A002109283C
:1024E0001160F1D1074A40F213311160EEE7054A5D
:1024F00000211160E6E700BF3907FF1F3480044068
:1025000004D004400CB004400D4B1B6813F400636E
:1025100005D03F2805D90B4B00201860704718469E
:102520007047094B10B5074C53F830302360012138
:10253000FFF764F9236800221A70012010BD00BF64
:10254000348004404C1EFF1F98A200000F4B1B68F4
:1025500013F4006308D0172808D03C2811D00C4A87
:10256000537B03F0FE03537300207047094B40F286
:1025700002321A60064A537B43F001035373012071
:102580007047054B40F202321A60F3E73480044092
:1025900000B0064008B0044008D004402DE9F84FD0
:1025A000234B1B681A053BD5224B1B680BB101223C
:1025B0001A70DFF89090204D99F80040DFF888807D
:1025C0001E4E0134272C8ABF4FF0000A5FFA84FAAE
:1025D00054460746AB462B789C4216D1FFF714F8B9
:1025E00040281FDC33791B06F5D59BF800300133FA
:1025F000272B86BF00221346DAB218F80330DBB26D
:10260000F3712A702B789C42E8D00D490B4BFFB236
:102610000120BC2208F80470087089F800A0DA7064
:10262000BDE8F88FFF28D6DDFEF758FFD3E700BFDF
:1026300034800440C01EFF1FBD1EFF1F00B00640B7
:10264000501EFF1FC41EFF1F541EFF1F2DE9F84F11
:10265000294B1B681A0548D5284B1B6805460BB14A
:1026600001221A7005EB010A554540D2DFF89C8023
:10267000234CDFF89C90234F0AE015F8012B09F852
:102680000B20214A0123AA45137088F800602ED040
:1026900098F80030227803F1010BBBF1270F86BFB9
:1026A0000026B3465FFA8BF69345E6D1BC22FA705A
:1026B00005E03A7913060BD422789345DDD1FEF775
:1026C000A3FF4028F5DDFF28F6DDFEF707FFF3E75F
:1026D00022780132272A86BF00210A46D1B219F892
:1026E0000220D2B2FA712170E6E7BDE8F88F054BFF
:1026F000BC22DA70BDE8F88F34800440C01EFF1F92
:10270000BD1EFF1F00B00640501EFF1FC41EFF1F4E
:10271000541EFF1F10B5044C237823B1FEF7DEFED4
:102720002378002BFAD110BD501EFF1F064A074B1D
:102730001B781078DBB2C0B283422CBF273000F187
:10274000FF30C01A704700BFBD1EFF1FC41EFF1F11
:10275000054A064B10781B78C0B2DBB2984238BFEE
:102760004030C01A704700BFBC1EFF1F511EFF1F24
:1027700030B4154B154C1A782378D2B2DBB29A429A
:102780001ED001333F2B0ED91149124B087819681E
:102790000023C0B2237021B1D31A1A2B01DC00230D
:1027A0000B7030BC70470A480A49C05C0968DDB24A
:1027B000C0B225700029F4D09A4238BF4032EBE70E
:1027C0004FF0FF30EDE700BFBC1EFF1F511EFF1F83
:1027D0007C1EFF1F4C1EFF1F084A094B12781B78F6
:1027E000DBB29A4207D00133402B28BF0023054AB1
:1027F000D05CC0B270474FF0FF307047BC1EFF1F67
:10280000511EFF1F7C1EFF1F0D4B1B681B0516D59D
:1028100030B40C4B0C4CDA780C480D4902F0CB026A
:102820004025DA705D74DA7842F03402DA70237889
:102830000268DBB20B700AB10023137030BC704722
:102840003480044000B00640511EFF1F4C1EFF1F85
:10285000BC1EFF1FF0B4384B1A7912F0300F2CD089
:1028600072B6997D01F0FF0200293DD062B6334F68
:10287000334938780D78334E1C46C0B2EDB2431C54
:10288000402BE17928BF0023AB4202F1FF32C9B2ED
:102890001CBFF154184612F0FF02F0D12A4B1B68FE
:1028A000C2B23A704BB1A84236BFC5F14005401BD9
:1028B00040192728C4BF01221A701F49CA78D2B212
:1028C000150616D452060DD51B4B1B795B0609D590
:1028D0001E4B1F491B6800220A7003B11A70164B69
:1028E0003C22DA70F0BC70474022D9795A7462B643
:1028F000E3E70B791C06E5D5164B174E1C783378A9
:10290000E4B2DBB29C420ED0144D01E0A3420AD0E7
:102910000133282B28BF00230879E85CC0B2C871B6
:10292000087D0728F2D9DBB2034933700B7918060A
:1029300044BF7C23CB70C5E700B00640BC1EFF1F20
:10294000511EFF1F7C1EFF1F4C1EFF1FC01EFF1FBE
:10295000501EFF1FC41EFF1FBD1EFF1F541EFF1F62
:102960002DE9F84F214B1B6807460BB101221A7065
:10297000DFF888901E4D99F80040DFF884801D4EE6
:102980000134272C8ABF4FF0000A5FFA84FA5446BC
:10299000AB462B78A34216D1FEF736FE40281FDC4B
:1029A00033791B06F5D59BF800300133272B86BF02
:1029B00000221346DAB218F80330DBB2F3712A7042
:1029C0002B78A342E8D00C490A4BFFB208F80470F8
:1029D0000120AC22087089F800A0DA70BDE8F88FF9
:1029E000FF28D6DDFEF77AFDD3E700BF3C1FFF1FAF
:1029F000391FFF1F00C00640381FFF1F401FFF1F69
:102A0000D01EFF1F174A18491368F0B543F48053CE
:102A1000164C174D174FDFF874E01360164E174A27
:102A2000002323708EF80030154C2B700B703B7018
:102A300040F213373760134D1349C0F344364FF457
:102A4000517727601670C0F347142C2700F01F0041
:102A5000402654709072082493701374D7702E70AF
:102A60000C60F0BD34800440391FFF1FCC1EFF1FD7
:102A7000401FFF1F381FFF1F08C0044000C0064052
:102A80000CC0044023E400E004E100E0CD1EFF1F81
:102A9000194B19499B7803F0EC0200F00303134330
:102AA000420700F00F0248BF43F01003042A8B7066
:102AB0001CD0114B104A5B79C10603F0EF0348BFED
:102AC00043F0100353719379820603F0EF030A4A2F
:102AD00048BF43F010039371C30506D553781178AE
:102AE000DBB241F020011170537070478B7943F0D5
:102AF00040038B71DDE700BF00C00640F8B5114B05
:102B00001B68DB041CD5104C237823B1FEF7E6FCD0
:102B10002378002BFAD10D4B0D4F0E4E0E4D0F4C5E
:102B20000F48104908221A600023FB7040F203127C
:102B300032602A60226803700B7012B10123137097
:102B4000F8BDF8BD34800440381FFF1F84E100E069
:102B500000C0064008C004400CC00440C81EFF1F4F
:102B6000CC1EFF1FCD1EFF1F0A4A38B5054613783D
:102B700003F0FF04002BFAD101212846FEF73EFEA8
:102B800021462846FEF734FE034A044B52F835200E
:102B90001A6038BD381FFF1F98A200003C1FFF1F9E
:102BA00009B140F08000104A137898421AD010B44E
:102BB0000E4C2468E40412D503F07F03082B02D1E5
:102BC0000B4B00241C60002900F07F0314BF602120
:102BD0004421082B03D1064B41F440711960107059
:102BE0005DF8044B704700BF3B07FF1F3480044073
:102BF0000CC00440704700BF0D4B1B6813F480539A
:102C000005D03F2805D90B4B0020186070471846A7
:102C10007047094B10B5074C53F830302360012141
:102C2000FEF7ECFD236800221A70012010BD00BFE2
:102C300034800440C81EFF1F98A200000C4B1B6884
:102C400013F4805306D00E2806D00A4A537B03F0B3
:102C5000FE03537300207047074B064A40F20231CF
:102C60001960537B43F0010353730120704700BF89
:102C70003480044000C0064004C00440034B1B687D
:102C8000DB0401D5FFF76CBE704700BF3480044001
:102C900070B5094E04464518AC4204F101040AD04F
:102CA0003368DB04F8D514F8010CFFF759FEAC4289
:102CB00004F10104F4D170BD3480044010B5044C1B
:102CC000237823B1FEF70AFC2378002BFAD110BD3C
:102CD000381FFF1F064A074B1B781078DBB2C0B2C3
:102CE00083422CBF273000F1FF30C01A704700BF6D
:102CF000391FFF1F401FFF1F054A064B10781B7826
:102D0000C0B2DBB2984238BF4030C01A704700BF33
:102D1000CC1EFF1FCD1EFF1F30B4154B154C1A786B
:102D20002378D2B2DBB29A421ED001333F2B0ED9A8
:102D30001149124B087819680023C0B2237021B1E1
:102D4000D31A1A2B01DC00230B7030BC70470A48E1
:102D50000A49C05C0968DDB2C0B225700029F4D010
:102D60009A4238BF4032EBE74FF0FF30EDE700BF4B
:102D7000CC1EFF1FCD1EFF1FF81EFF1FC81EFF1F0A
:102D8000084A094B12781B78DBB29A4207D001330C
:102D9000402B28BF0023054AD05CC0B270474FF0DB
:102DA000FF307047CC1EFF1FCD1EFF1FF81EFF1FF8
:102DB000054B064A1B7806491268DBB20B700AB154
:102DC00000231370704700BFCD1EFF1FC81EFF1FDA
:102DD000CC1EFF1F30B42B4B1A7994061FD52A48FE
:102DE000DA790378294901333F2B0978C8BF0023DA
:102DF0008B42D2B203D0264CD9B2E2540170254A9C
:102E0000116861B1244A1278D2B2934236BFC2F13E
:102E100040029B1A9B18272BC4BF01230B70194A31
:102E2000D378DBB2180611D45A060DD5154B1B7991
:102E30005B0609D5194B1A491B6800220A7003B1B9
:102E40001A70104B2C22DA7030BC704711790906C9
:102E5000EAD5144910480C780178C9B28C420DD0DB
:102E60004A1C272A84BF00210A460F4D054C98BFF3
:102E7000D1B2AA5CD2B2E2710170D5E76C21D170F7
:102E8000D2E700BF00C00640CC1EFF1FCD1EFF1FB3
:102E9000F81EFF1FC81EFF1F391FFF1F3C1FFF1F0B
:102EA000381FFF1F401FFF1FD01EFF1F2DE9F84FC7
:102EB000214B1B6807460BB101221A70DFF888907E
:102EC0001E4D99F80040DFF884801D4E0134272CF8
:102ED0008ABF4FF0000A5FFA84FA5446AB462B785B
:102EE000A34216D1FEF790FB40281FDC33791B0666
:102EF000F5D59BF800300133272B86BF00221346FF
:102F0000DAB218F80330DBB2F3712A702B78A342DF
:102F1000E8D00C490A4BFFB208F804700120AC223B
:102F2000087089F800A0DA70BDE8F88FFF28D6DDB8
:102F3000FEF7D4FAD3E700BFB81FFF1FB51FFF1F6E
:102F400000D00640B41FFF1FBC1FFF1F4C1FFF1FF8
:102F5000244A25491368F0B443F4005313600A78F7
:102F6000224F234E234D244C244900231F2A3B701B
:102F700033702B7023700B702FD03F2A20D0204B42
:102F80001B78202B24D03E2B03D11E4B4FF45172C3
:102F90001A601D4B1D4D1E49C0F344361E70C0F310
:102FA000471400222C27402600F01F005C70987206
:102FB00020249A701A74DF702E700C60F0BC704779
:102FC000144B40F213321A600D4B1B78202BDAD1D0
:102FD000114B4FF451721A60DBE7104B40F2133281
:102FE0001A60CCE7348004403C07FF1F481FFF1FD6
:102FF000491FFF1FBC1FFF1FB51FFF1FB41FFF1F6F
:103000003D07FF1F10D0044000D0064025E400E03B
:1030100004E100E014D004402CA0044028A00440A7
:10302000194B19499B7803F0EC0200F0030313439A
:10303000420700F00F0248BF43F01003042A8B70D0
:103040001CD0114B104A5B79C10603F0EF0348BF57
:1030500043F0100353719379820603F0EF030A4A99
:1030600048BF43F010039371C30506D55378117818
:10307000DBB241F020011170537070478B7943F03F
:1030800040038B71DDE700BF00D00640204B1B687A
:103090009B043BD510B51F4C237823B1FEF71EFAD5
:1030A0002378002BFAD11C481C491D4B20240022F8
:1030B0000460CA701B781F2B19D03F2B01D1194B0C
:1030C0001A60194B1B7803F07F03202B19D03E2B7D
:1030D00002D1164B00221A60154B164816491A6881
:1030E000002303700B700AB10123137010BD134B42
:1030F00040F203121A600C4B1B7803F07F03202B65
:10310000E5D10F4B40F203121A60E5E7704700BFAC
:1031100034800440B41FFF1F84E100E000D006406B
:103120003C07FF1F14D004403D07FF1F10D0044090
:10313000441FFF1F481FFF1F491FFF1F28A00440F7
:103140002CA004400A4A38B50546137803F0FF0462
:10315000002BFAD101212846FEF750FB21462846D4
:10316000FEF746FB034A044B52F835201A6038BD7F
:10317000B41FFF1F98A20000B81FFF1F09B140F045
:103180008000174A1378984217D010B4154C246861
:10319000A4040FD503F07F03202B1DD03E2B12D0AB
:1031A000002900F07F0114BF6023442320290ED0A2
:1031B0003E2903D010705DF8044B70470A4943F470
:1031C00040730B60F6E7084B00241C60E8E70749F2
:1031D00043F440730B60EDE7044B00241C60DFE711
:1031E0003D07FF1F3480044010D004402CA0044051
:1031F000124B1A7882420CD011490968890407D50C
:103200001F2A16D03F2A0AD01F280DD03F2801D0F0
:10321000187070470B4A40F213311160F8E7094A01
:1032200000211F281160F1D1074A40F213311160CB
:10323000EEE7054A00211160E6E700BF3C07FF1FEB
:103240003480044014D0044028A004400D4B1B6877
:1032500013F4005305D03F2805D90B4B002018600C
:10326000704718467047094B10B5074C53F830307B
:1032700023600121FEF7C2FA236800221A700120A0
:1032800010BD00BF34800440441FFF1F98A20000FF
:1032900000207047034B1B689B0401D5FFF706BE57
:1032A000704700BF3480044070B5094E044645188D
:1032B000AC4204F101040AD033689B04F8D514F839
:1032C000010CFFF7F3FDAC4204F10104F4D170BD31
:1032D0003480044010B5044C237823B1FEF7FEF887
:1032E0002378002BFAD110BDB41FFF1F064A074BED
:1032F0001B781078DBB2C0B283422CBF273000F1BC
:10330000FF30C01A704700BFB51FFF1FBC1FFF1F53
:10331000054A064B10781B78C0B2DBB2984238BF22
:103320004030C01A704700BF481FFF1F491FFF1FD2
:1033300030B4154B154C1A782378D2B2DBB29A42CE
:103340001ED001333F2B0ED91149124B0878196852
:103350000023C0B2237021B1D31A1A2B01DC002341
:103360000B7030BC70470A480A49C05C0968DDB27E
:10337000C0B225700029F4D09A4238BF4032EBE742
:103380004FF0FF30EDE700BF481FFF1F491FFF1F31
:10339000741FFF1F441FFF1F084A094B12781B7838
:1033A000DBB29A4207D00133402B28BF0023054AE5
:1033B000D05CC0B270474FF0FF307047481FFF1F0E
:1033C000491FFF1F741FFF1F054B064A1B78064944
:1033D0001268DBB20B700AB100231370704700BF94
:1033E000491FFF1F441FFF1F481FFF1F30B42B4BF7
:1033F0001A7994061FD52A48DA79037829490133C6
:103400003F2B0978C8BF00238B42D2B203D0264C91
:10341000D9B2E2540170254A116861B1244A127888
:10342000D2B2934236BFC2F140029B1A9B18272B9F
:10343000C4BF01230B70194AD378DBB2180611D42C
:103440005A060DD5154B1B795B0609D5194B1A4940
:103450001B6800220A7003B11A70104B2C22DA701C
:1034600030BC704711790906EAD5144910480C7828
:103470000178C9B28C420DD04A1C272A84BF002192
:103480000A460F4D054C98BFD1B2AA5CD2B2E27188
:103490000170D5E76C21D170D2E700BF00D00640A3
:1034A000481FFF1F491FFF1F741FFF1F441FFF1FDF
:1034B000B51FFF1FB81FFF1FB41FFF1FBC1FFF1F3B
:1034C0004C1FFF1F2DE9F84F214B1B6807460BB11E
:1034D00001221A70DFF888901E4D99F80040DFF83D
:1034E00084801D4E0134272C8ABF4FF0000A5FFAFA
:1034F00084FA5446AB462B78A34216D1FEF784F8E3
:1035000040281FDC33791B06F5D59BF800300133CA
:10351000272B86BF00221346DAB218F80330DBB23D
:10352000F3712A702B78A342E8D00C490A4BFFB202
:1035300008F804700120AC22087089F800A0DA7045
:10354000BDE8F88FFF28D6DDFDF7C8FFD3E700BF41
:103550003420FF1F3120FF1F00A00E403020FF1F2E
:103560003820FF1FC81FFF1F174A18491368F0B5FE
:1035700043F48063164C174D174FDFF874E0136067
:10358000164E174A002323708EF80030154C2B700E
:103590000B703B7040F213373760134D1349C0F383
:1035A00044364FF4517727601670C0F347142C2728
:1035B00000F01F004026547090720424937013741E
:1035C000D7702E700C60F0BD288004403120FF1FA2
:1035D000C41FFF1F3820FF1F3020FF1F64D004408E
:1035E00000A00E4060D0044042E400E008E100E0AA
:1035F000C51FFF1F194B19499B7803F0EC0200F01F
:1036000003031343420700F00F0248BF43F01003C7
:10361000042A8B701CD0114B104A5B79C10603F051
:10362000EF0348BF43F0100353719379820603F010
:10363000EF030A4A48BF43F010039371C30506D550
:1036400053781178DBB241F020011170537070474C
:103650008B7943F040038B71DDE700BF00A00E4083
:10366000F8B5114B1B685B051CD5104C237823B1B2
:10367000FDF734FF2378002BFAD10D4B0D4F0E4E82
:103680000E4D0F4C0F48104904221A600023FB70A6
:1036900040F2031232602A60226803700B7012B18C
:1036A00001231370F8BDF8BD288004403020FF1FAF
:1036B00088E100E000A00E4064D0044060D00440E7
:1036C000C01FFF1FC41FFF1FC51FFF1F0A4A38B5B9
:1036D0000546137803F0FF04002BFAD10121284698
:1036E000FEF78CF821462846FEF782F8034A044B81
:1036F00052F835201A6038BD3020FF1F98A2000014
:103700003420FF1F09B140F08000104A137898421E
:103710001AD010B40E4C2468640512D503F07F0350
:10372000212B02D10B4B00241C60002900F07F03E9
:1037300014BF60214421212B03D1064B41F4407179
:10374000196010705DF8044B704700BF3E07FF1F03
:103750002880044060D00440704700BF0D4B1B68B8
:1037600013F4806305D03F2805D90B4B0020186067
:10377000704718467047094B10B5074C53F8303066
:1037800023600121FEF73AF8236800221A70012015
:1037900010BD00BF28800440C01FFF1F98A200007A
:1037A0000C4B1B6813F4806306D0182806D00A4A15
:1037B000537B03F0FE03537300207047074B064A08
:1037C00040F202311960537B43F00103537301202F
:1037D000704700BF2880044000A00E4068D004401D
:1037E000034B1B685B0501D5FFF76CBE704700BF3C
:1037F0002880044070B5094E04464518AC4204F1D7
:1038000001040AD033685B05F8D514F8010CFFF702
:1038100059FEAC4204F10104F4D170BD288004408B
:1038200010B5044C237823B1FDF758FE2378002B04
:10383000FAD110BD3020FF1F064A074B1B781078C5
:10384000DBB2C0B283422CBF273000F1FF30C01A78
:10385000704700BF3120FF1F3820FF1F054A064B6D
:1038600010781B78C0B2DBB2984238BF4030C01A23
:10387000704700BFC41FFF1FC51FFF1F30B4154B8B
:10388000154C1A782378D2B2DBB29A421ED001339B
:103890003F2B0ED91149124B087819680023C0B28A
:1038A000237021B1D31A1A2B01DC00230B7030BC1A
:1038B00070470A480A49C05C0968DDB2C0B2257089
:1038C0000029F4D09A4238BF4032EBE74FF0FF3086
:1038D000EDE700BFC41FFF1FC51FFF1FF01FFF1F25
:1038E000C01FFF1F084A094B12781B78DBB29A42AF
:1038F00007D00133402B28BF0023054AD05CC0B25B
:1039000070474FF0FF307047C41FFF1FC51FFF1FD8
:10391000F01FFF1F054B064A1B7806491268DBB2F1
:103920000B700AB100231370704700BFC51FFF1F43
:10393000C01FFF1FC41FFF1F30B42B4B1A79940602
:103940001FD52A48DA790378294901333F2B0978B2
:10395000C8BF00238B42D2B203D0264CD9B2E25466
:103960000170254A116861B1244A1278D2B293429B
:1039700036BFC2F140029B1A9B18272BC4BF0123FC
:103980000B70194AD378DBB2180611D45A060DD53C
:10399000154B1B795B0609D5194B1A491B68002288
:1039A0000A7003B11A70104B2C22DA7030BC7047C9
:1039B00011790906EAD5144910480C780178C9B282
:1039C0008C420DD04A1C272A84BF00210A460F4D85
:1039D000054C98BFD1B2AA5CD2B2E2710170D5E7B2
:1039E0006C21D170D2E700BF00A00E40C41FFF1FA2
:1039F000C51FFF1FF01FFF1FC01FFF1F3120FF1F2C
:103A00003420FF1F3020FF1F3820FF1FC81FFF1F5B
:103A10002DE9F84F204B1B6880460BB101221A702C
:103A2000DFF88CA01D4D9AF800401D4F1D4E01344B
:103A3000272C8ABF4FF0000B5FFA84FB5C46A94637
:103A40002B78A34215D1FDF7DFFD40281EDC7368FB
:103A50001B02F5D599F800300133272B86BF0022D1
:103A60001346DAB2FB5CDBB2F3602A702B78A34218
:103A7000E9D00D490D4A5FFA88F807F80480012360
:103A80000B708AF800B01360BDE8F88FFF28D7DD0F
:103A9000FDF724FDD4E700BFB020FF1FAD20FF1FBE
:103AA0004420FF1F00400C40AC20FF1F5C018843F6
:103AB000B420FF1F4D4A4E49136843F010032DE90F
:103AC000F04113600F6807F44033B3F5403F00F056
:103AD0008680484F484AB3F5803F18BF1746860096
:103AE000B7FBF6FC1FFA8CFCBCF1000F69D04FEA63
:103AF0008C0EB7FBFEFEBEEB000E64D10644052122
:103B00004FF0040808E0002B6BD188469E4694468F
:103B10000131212906441AD0B7FBF6F292B2541CA7
:103B2000A4B201FB02F301FB04F582B1B7FBF3F38E
:103B30001B1A7345E7D9B7FBF5F5451B7545E7D863
:103B4000884601312129AE46A4460644E4D108F155
:103B5000FF331B06CCF30C0C03F0F853274A24491F
:103B6000274D284C2848DFF8B8E0284F284E43EA74
:103B70000C03B8F1070F98BF43F4003313600B68D0
:103B8000DFF8A0C043F080630B6000238CF80030A6
:103B900040F244512B7040F213558EF800303B70C8
:103BA0003370256001609360136153609368194C12
:103BB000194943F4301340254FF480009360257079
:103BC0000860BDE8F0810CF101029300B7FBF3F34C
:103BD000C31A9E4584BF1FFA82FC9E468EE70F4F94
:103BE0007DE79E4694468846A5E700BF2C800440AA
:103BF000048004400095BA0A40A5AE0200400C4083
:103C00004120FF1F20C0044024C00440AD20FF1FFE
:103C1000AC20FF1F56E400E008E100E0006CDC028D
:103C2000B420FF1F4020FF1F1B4B1B499B6800F067
:103C3000030223F013031343420700F00F0248BFAF
:103C400043F01003042A8B6020D0030704D5124AE6
:103C5000136843F0005313600F4B0F4A5B68C106B3
:103C600023F0805348BF43F080535360936882062B
:103C700023F08053084A48BF43F080539360C30544
:103C800003D5136843F40053136070478B6843F007
:103C900080438B60D9E700BF00400C40F8B5124B61
:103CA0001B68DB061DD5114C237823B1FDF716FCEC
:103CB0002378002BFAD10E4B0E4F0F4E0F4D104CA8
:103CC000104811494FF480021A60002340F2031299
:103CD000BB6032602A60226803700B7012B101234E
:103CE0001370F8BDF8BD00BF2C800440AC20FF1F4E
:103CF00088E100E000400C4020C0044024C00440A3
:103D00003C20FF1F4020FF1F4120FF1F0A4A38B5FB
:103D10000546137803F0FF04002BFAD10121284651
:103D2000FDF76CFD21462846FDF762FD034A044B72
:103D300052F835201A6038BDAC20FF1F98A2000051
:103D4000B020FF1F09B140F08000104A137898425C
:103D50001AD010B40E4C2468E40612D503F07F0389
:103D6000302B02D10B4B00241C60002900F07F0394
:103D700014BF60214421302B03D1064B41F4A061D4
:103D8000196010705DF8044B704700BF3F07FF1FBC
:103D90002C80044024C00440704700BF0D4B1B68BA
:103DA00013F0100305D03F2805D90B4B00201860F5
:103DB000704718467047094B10B5074C53F8303020
:103DC00023600121FDF71AFD236800221A700120EB
:103DD00010BD00BF2C8004403C20FF1F98A20000B3
:103DE0000C4B1B6813F0100306D0382806D00A4A83
:103DF000537B03F0FE03537300207047074B064AC2
:103E000040F202511960537B43F0010353730120C8
:103E1000704700BF2C80044000B00E4028D0044002
:103E2000034B1B68DB0601D5FFF7F2BD704700BFEF
:103E30002C80044070B5094E04464518AC4204F18C
:103E400001040AD03368DB06F8D514F8010CFFF73B
:103E5000DFFDAC4204F10104F4D170BD2C800440BC
:103E600010B5044C237823B1FDF738FB2378002BE1
:103E7000FAD110BDAC20FF1F064A074B1B78107803
:103E8000DBB2C0B283422CBF273000F1FF30C01A32
:103E9000704700BFAD20FF1FB420FF1F054A064B2F
:103EA00010781B78C0B2DBB2984238BF4030C01ADD
:103EB000704700BF4020FF1F4120FF1F30B4154B4B
:103EC000154C1A782378D2B2DBB29A421ED0013355
:103ED0003F2B0ED91149124B087819680023C0B244
:103EE000237021B1D31A1A2B01DC00230B7030BCD4
:103EF00070470A480A49C05C0968DDB2C0B2257043
:103F00000029F4D09A4238BF4032EBE74FF0FF303F
:103F1000EDE700BF4020FF1F4120FF1F6C20FF1F67
:103F20003C20FF1F084A094B12781B78DBB29A42EB
:103F300007D00133402B28BF0023054AD05CC0B214
:103F400070474FF0FF3070474020FF1F4120FF1F98
:103F50006C20FF1F054B064A1B7806491268DBB22E
:103F60000B700AB100231370704700BF4120FF1F80
:103F70003C20FF1F4020FF1F30B42C4B5A68940296
:103F80001FD52B48DA6803782A4901333F2B09787B
:103F9000C8BF00238B4204D0274CD2B2D9B2E2541E
:103FA0000170264A116861B1254A1278D2B2934253
:103FB00036BFC2F140029B1A9B18272BC4BF0123B6
:103FC0000B701A4A9368180202D55268110211D474
:103FD0005A020DD5154B5B685B0209D5194B1A497E
:103FE0001B6800220A7003B11A70184B00221A6075
:103FF00030BC7047164A124910780A78D2B2904203
:104000000DD00132272A84BF00200246114D074CF3
:1040100098BFD0B2AA5CD2B2E2600870D8E70E486E
:104020000A4A0024012104601160D1E700400C40DD
:104030004020FF1F4120FF1F6C20FF1F3C20FF1F5F
:10404000AD20FF1FB020FF1FAC20FF1F5801884389
:10405000B420FF1F4420FF1F5C018843431E032B35
:1040600014D872B60A4951F8230068B170B4094CEB
:10407000058834F81320466841F82360521B24F861
:10408000132062B670BC704762B67047002070475C
:104090001021FF1F1C22FF1F013803280BD872B606
:1040A000074B53F8203043B100205B680130002BF0
:1040B000FBD162B67047002070471846F9E700BF91
:1040C0006421FF1FF0B472B61A491B4E012311F888
:1040D000014B194F9A00240742F0010505D556F807
:1040E000324064B156F83520BAB10133052BEED118
:1040F00062B6124B00221A70F0BC00F019BD0F4CD2
:104100000F4D217847F8325007EB431308304A1E11
:104110005860227062B6F0BC70470849094B0A78B3
:1041200047F8353007EBC5030830013A58600A708C
:1041300062B6F0E7B8A500000000FF1F8D21FF1F49
:1041400088004000C8004000431E032B1DD81B4AB6
:10415000400140F0100030B4104472B6184CE25CDC
:10416000032A1BD8DFE802F00212151703220D887C
:10417000E25410F0080F14BFC823882343EA054314
:1041800008310360416062B630BC704708300222DB
:10419000EDE70522EBE708300422E8E7094A52F888
:1041A000230038B1084A52F82300416042F8231036
:1041B00062B6E9E742F82310034AF7E70000FF1F61
:1041C0009C21FF1F6421FF1F7421FF1F2DE9F04F69
:1041D000DFF800A3DFF800B387B044E0A84F4FEA50
:1041E000930807EBC809013ED9F8042003F008033F
:1041F000F6B2A2F1080003F0FF04002B40F0FC80AF
:1042000057F838301B0C99B222F8081C002B00F02C
:10421000EA809C4B22F8064C42F8044C53F82620C6
:10422000002A00F02982984D55F826305860974CA6
:1042300045F8260034F81630194424F8161000F01A
:1042400057FC002800F01182914A924B19F0080F98
:1042500000F1080018BF1346C9F8040047F83830C9
:1042600008238AF800309AF80040E4B260071AD5B3
:10427000894B1B78A3B189490A7802F0FF0322B168
:10428000013BDBB20B7003B900BE85490A7802F02E
:10429000FF032AB1013BDBB20B70002B00F0BB81A6
:1042A00004238AF8003004F0080303F0FF02002B17
:1042B00000F0C6809BF80030DBB21E098ED19C084E
:1042C0006F4F57F8342007EBC401C2F38302013A61
:1042D00049680C2A00F28380DFE802F07777818159
:1042E0008181818140818181070008686D4B6E4D1D
:1042F0000193674B4A686D4E47F8343081B240F203
:104300008164684B6A60286000220120A1421A6023
:104310003A61BA61307000F2E180B1F5D06F80F09F
:104320002582B1F5817F00F0DE8100F2C181802914
:1043300000F03482822940F0DC81A9885C4B04299A
:1043400000F2D8815B4C89000B44227062701A78AD
:10435000930740F122832070022023E2514B019306
:104360001A683AB3544B514E5449188834780D7832
:104370004028864645F0020828BF4FF0400E002C2A
:1043800084F001043470CEEB00000CBF8824C824F4
:1043900007EBC80680B285F0010544EA0E4472605E
:1043A000188047F8384072440D70002800F0B7803C
:1043B000019B1A603C4B1A88B2F5A06F0FD1002107
:1043C0009A7859703E4B1A7009E0374A108842F2C9
:1043D0002102904200F0A8802D4A47F83420394A43
:1043E000012313703CE72A4A2A4B19F0080F18BF23
:1043F000134647F8383033E700F09AFB324A334926
:1044000052F82630002B00F03B8158688C5D42F852
:10441000260003F10802C9F80420032C05D8DFE8C0
:1044200004F02C02292602228A551A8819F0080F56
:104430000CBF8823C82343EA024347F838300FE70C
:10444000E00700F1EB80210600F12881A20706D5E4
:104450001F4A204913780220DBB213700870E3066C
:1044600002D51C4B10221A7007B0BDE8F08F042251
:104470008A55DAE705228A55D7E703228A55D4E719
:104480000000FF1F1021FF1FBC20FF1F1C22FF1F69
:10449000C8004000880040009821FF1F2121FF1F15
:1044A000A021FF1FB820FF1F8421FF1F2021FF1F15
:1044B000C02007409021FF1FCC20FF1F8C21FF1F31
:1044C00098200740942007406421FF1F9C21FF1F74
:1044D00088200740802007409020074042F22104B6
:1044E000A14200F0948043D8B1F5086F00F0A88194
:1044F000B1F5106F40F0FD80B84AB94CA978117041
:1045000004F1800503E00834AC4200F09E81236A88
:104510001906F8D5606A083800F00AFBF3E7BEF127
:10452000400F18BF002243E7AE4ACD1D11F8013BF2
:1045300002F8013FA942F9D1AB4A1268862A00F07D
:104540001181AA49AA4E0A78307882F00105002824
:1045500042F002020D700CBF8821C82147F83210CA
:1045600007EBC20280F0010000213070516033E798
:1045700042F22124A14240F0FE81DFF8BCC29D4BF3
:104580009D49AC78DCF800501D6081460C7000201D
:10459000029080468446044694490D7845F0020E08
:1045A00007EBCE03B9F1000F5C600CBF8824C82470
:1045B00044EA080385F0010447F83E3032700C707D
:1045C000DFF81CE28A4BDFF82482002840F0988054
:1045D000BCF1400F1BD144F0020407EBC403029F5F
:1045E000DFF8FCE15F60002A40F09F80020442F0A7
:1045F000880207444EF8342086F800900D703B4640
:10460000402804D100207D4A019910800B607C4A2B
:1046100001231370E3E600F0D3FB41E6704B7848CA
:1046200072491A614FF0020E80F800E0754F0A706F
:10463000754919609960754E754D764C9A610D21DA
:104640003970FF213170DFF8F4E129702270724D6A
:10465000724A8EF800109F27012406F8047C5D60E2
:104660000470DA6007B0BDE8F08F6D4A47F8380093
:10467000137801331370F3E543F82600694DD6E54E
:104680008B5D032B67D801A252F823F06142000032
:1046900061420000E1460000DB46000059495C4BE6
:1046A00080220D2008701A70A2077FF5D8AECFE6E1
:1046B00040F20232914240F05681A98801F07F0118
:1046C000042916D86A88A2B94E4C89000C44814648
:1046D000217841F00201217059E701238B55BFE594
:1046E00000238B55BCE5A98801F07F01042940F225
:1046F0004781444B0F221A70414A012313706EE622
:1047000040287FF668AF44F002040EEBC401029E1D
:104710004E60AAB1444A83F800903346403888F886
:10472000005040334EF834206DE70204029B86F8B7
:10473000009042F0C8020D7003444EF834205FE749
:1047400083F80090029B304A88F80050403840338C
:104750004EF8342057E719F0080F0CBF022303234B
:104760008B557DE5314A0F211170EAE6304A5468D5
:10477000002CBED06888B5F804E003E00C32546821
:10478000002CB6D013888342F8D153887345F5D1F5
:10479000000A03280CBF2078108903E0254C022072
:1047A00022706270EA88824280F00C810F490D7895
:1047B000402A45F0020E944607EBCE0028BF4FF08A
:1047C000400C04EB0C0344600293CCEB02004FEA74
:1047D0000C484FF001090022C824E9E69821FF1F88
:1047E0000000FF1F2322FF1F2422FF1F8C21FF1F19
:1047F0002021FF1F2C22FF1FB021FF1FCC20FF1FF5
:1048000094200740C02007408800400088200740CF
:104810008020074098200740D020FF1F2421FF1F41
:104820008D21FF1FBC20FF1FC80040002121FF1F5A
:10483000BCA500009021FF1FB01DFF1F8C2007406A
:10484000684A694C12782270ACE76849684B694A3B
:1048500002916949694C6A4D039405964FF000092D
:1048600088461C4616460495206828B1456800F025
:104870005FF92846002DF9D100232360049B30689E
:104880001A46002342F8293028B1456800F050F953
:104890002846002DF9D100223260029A98F80030A3
:1048A0001146002241F8042B039A0291023B4FF07B
:1048B000000122F81910032B07D8DFE803F03402B7
:1048C00034024FF0010388F8003009F10109B9F111
:1048D000040F04F1040406F1040608F10108C3D131
:1048E000484B059EDFF83091DFF8308100211970C8
:1048F000012518F8013B09F8043B1A0718D4AC004D
:1049000044F0020244F00304002347F8323047F831
:1049100034303D4B994505F10105EAD196F80090F8
:1049200089F0010233E64FF0000388F80030CCE74D
:1049300000F0DEF8AC0007EB451300F10802002898
:1049400037D05A60314B47F8343000F0D1F844F09A
:10495000010307EBC30200F1080100B351602C4AC8
:1049600047F83320CCE7B1F5A06F7FF4C2AE002248
:104970004FF001090BE642F221329142F7D0B8E63E
:104980006A88002A7FF4B5AE224C89000C44814627
:10499000217821F002012170F9E5022002E7194B8C
:1049A00044F001021B7847F83200164A01331370B5
:1049B000A6E7144B134A1B78AC00013347F83400C8
:1049C0001370C2E74028844628BF4FF0400C04EB28
:1049D0000C03CCEB00004FEA0C48029300224FF08E
:1049E0000109D9E59821FF1F9021FF1F7421FF1FA6
:1049F0001021FF1F6421FF1F9C21FF1F1C22FF1F8E
:104A0000BC20FF1F8D21FF1FD420074088004000DD
:104A1000C8004000C0200740C4200740B8A50000DF
:104A20002DE9F041274C00F009FD002204F1880037
:104A300023461A605A60083383424FF00001F8D1D0
:104A40002148224A0368DFF89CE0214E214D224F85
:104A5000DFF894C0DFF8948043F480230360136888
:104A600043F04073136003238EF80030A0233370AB
:104A700002F5C922C4F3072300F528302B708030DB
:104A8000C4F3074310323B70240EFF230470134D10
:104A90008CF80030124888F800301370012306F8B3
:104AA000AC3C4FF400140EF8441C7026102107F89B
:104AB0002C3C2E70046082F8F810AEF1440EBDE874
:104AC000F08100BF0000FF1F3480044000D8004088
:104AD000402107409C200740B020074035E400E01B
:104AE00004E100E04421074080200740882007407F
:104AF00072B60D480268B2FA82F30B2B10DC4FF04D
:104B00000041D94022EA0102026062B6074803EB85
:104B1000C303DB00C2180021C1501046516070472A
:104B200062B60020704700BF4007FF1FD003FF1F81
:104B30000D4B0E4AC31AA2FB03231B090B2B0CD8E7
:104B40000B4A127852B972B60A484FF00041026817
:104B500021FA03F31A43026062B67047064A1278DC
:104B6000002AF0D0FFF7AEBAD003FF1F398EE3382A
:104B70008D21FF1F4007FF1F9821FF1F38B50F4DE4
:104B8000286878B143880288C118013393420C7AAF
:104B900002D24380204638BDFFF7CAFF00232046DB
:104BA0002B6038BD064B1B782BB10320FFF756FA5C
:104BB00028600028E6D14FF0FF3038BDAC21FF1F40
:104BC0009821FF1F10B5094C206818B1438818447C
:104BD000007A10BD064B1B782BB10320FFF73EFA7D
:104BE00020600028F2D14FF0FF3010BDAC21FF1F34
:104BF0009821FF1F044B054A1B6890881BB11A8837
:104C00005B88D31A18447047AC21FF1F1C22FF1F7A
:104C10000B4B1B789BB110B50A4C206848B1FFF7CD
:104C200087FF002303202360FFF718FA30B1FFF756
:104C30007FFF0320FFF712FA0028F8D110BD70475C
:104C40009821FF1FAC21FF1F2DE9F04FDFF8F890EE
:104C500083B0012289F80020019169B3DFF8EC806C
:104C6000354F019E8346D8F80000B0B3334D4488D9
:104C7000C4F14001B14228BF314604EB010E0022CD
:104C80001FFA8EFE2A70761AA0F802E000F10802E0
:104C900051B1013C224459441BF8014B02F8014F29
:104CA0008B45F9D1B0F802E0BEF13F0F0BD8244A92
:104CB00005211170002ED6D10198002389F800300B
:104CC00003B0BDE8F08F4022028001460420FFF7C8
:104CD0003BFA0022C8F80020E9E73A7822B3194CE1
:104CE000164D4FF0010A07E0013C16D02A78A2B910
:104CF000FCF7F4FB3A78BAB10420FFF7CDF90728A6
:104D0000F2D889F800A0FFF7F3FEC8F800000028E9
:104D1000ADD10D4B013C1870E8D101234FF0FF30AD
:104D20002B7003B0BDE8F08F00234FF0FF3089F8FF
:104D3000003003B0BDE8F08F9821FF1FA821FF1FAE
:104D4000A021FF1F21480100A121FF1FA421FF1F57
:104D500000B583B002AB012103F8010D1846FFF73F
:104D600073FF03B05DF804FBF8B5114B1B788BB1F2
:104D7000104E114D346801272F7064B10F4A6388BB
:104D800000271770214623800420FFF7DDF93760E4
:104D900000232B70F8BDFFF7ABFE084B28B101468E
:104DA00004201C70FFF7D0F9F2E71F70F0E700BF96
:104DB0009821FF1FA421FF1FA121FF1FA021FF1F7A
:104DC00038B50E4B1B7873B90D4C216861B103F0F7
:104DD000FF054B880B800420FFF7B6F9256038BD2E
:104DE000084B01221A7038BDFFF782FE0028F7D069
:104DF0000146BDE838400420FFF7A6B9A121FF1FF6
:104E0000A421FF1FA021FF1F844641EA000313F0E5
:104E100003036DD1403A41D351F8043B40F8043BC1
:104E200051F8043B40F8043B51F8043B40F8043B84
:104E300051F8043B40F8043B51F8043B40F8043B74
:104E400051F8043B40F8043B51F8043B40F8043B64
:104E500051F8043B40F8043B51F8043B40F8043B54
:104E600051F8043B40F8043B51F8043B40F8043B44
:104E700051F8043B40F8043B51F8043B40F8043B34
:104E800051F8043B40F8043B51F8043B40F8043B24
:104E900051F8043B40F8043B403ABDD2303211D3C4
:104EA00051F8043B40F8043B51F8043B40F8043B04
:104EB00051F8043B40F8043B51F8043B40F8043BF4
:104EC000103AEDD20C3205D351F8043B40F8043BC4
:104ED000043AF9D2043208D0D2071CBF11F8013BC2
:104EE00000F8013B01D30B8803806046704700BF88
:104EF000082A13D38B078DD010F003038AD0C3F197
:104F00000403D21ADB071CBF11F8013B00F8013B78
:104F100080D331F8023B20F8023B7BE7043AD9D337
:104F2000013A11F8013B00F8013BF9D20B7803700C
:104F30004B7843708B7883706046704708B508469D
:104F4000FEF7A8F9012008BD08B50846FEF7A2F94A
:104F5000012008BD38B508460D4601F0F1FC0446B5
:104F600001462846FEF7A0F9204638BD10B5084690
:104F700014461146FEF798F9204610BDFEF7B6B963
:104F8000FEF722BA08B50846FEF782F9003018BFCE
:104F9000012008BD08B50846FEF758F9003018BFD3
:104FA000012008BD08461146FEF7E8B80846FEF79E
:104FB0001FB900BF0846FEF7C5B800BFFEF766B8C8
:104FC000034B03EB5100B0FBF1F0FDF7C1BF00BF95
:104FD000000E270710B5064B144603EB5100B0FB3B
:104FE000F1F0FDF7B5FF2046BDE81040FEF718B818
:104FF000000E2707FEF76EB9FEF7CEB9FEF798B997
:10500000FEF786B90368064A1B68934205D110B5BE
:10501000C8B2FEF73FF9012010BDC9B2184700BF62
:10502000494F00000368064A1B68934205D110B53A
:10503000C8B2FEF72FF9012010BDC9B2184700BF52
:10504000494F00000368064A1B68934205D110B51A
:10505000C8B2FEF71FF9012010BDC9B2184700BF42
:10506000494F00000368064A1B68934205D110B5FA
:10507000C8B2FEF70FF9012010BDC9B2184700BF32
:10508000494F0000704700BF044B054A1A604FF4B7
:105090007A71002299601A711A737047B421FF1F48
:1050A000A0A4000008B50846FEF79AFB012008BD41
:1050B00008B50846FEF794FB012008BD38B5084640
:1050C0000D4601F03DFC044601462846FEF792FBE2
:1050D000204638BD10B5084614461146FEF78AFB37
:1050E000204610BDFEF7A8BBFEF714BC08B5084665
:1050F000FEF756FB003018BF012008BD08B5084672
:10510000FEF72CFB003018BF012008BD08461146F1
:10511000FEF7F8BA0846FEF71FBB00BF0846FEF7C9
:10512000D5BA00BFFEF79CBA034B03EB5100B0FBAE
:10513000F1F0FEF719BA00BF000E270710B5064BB5
:10514000144603EB5100B0FBF1F0FEF70DFA2046D8
:10515000BDE81040FEF74EBA000E2707FEF760BB11
:10516000FEF7C0BBFEF78ABBFEF778BB0368064AB2
:105170001B68934205D110B5C8B2FEF731FB012080
:1051800010BDC9B2184700BFB15000000368064AFD
:105190001B68934205D110B5C8B2FEF721FB012070
:1051A00010BDC9B2184700BFB15000000368064ADD
:1051B0001B68934205D110B5C8B2FEF711FB012060
:1051C00010BDC9B2184700BFB15000000368064ABD
:1051D0001B68934205D110B5C8B2FEF701FB012050
:1051E00010BDC9B2184700BFB1500000704700BFE2
:1051F000044B054A1A604FF47A71002299601A71C3
:105200001A737047C421FF1F00A5000008B50846A7
:10521000FEF706FE012008BD08B50846FEF700FEB1
:10522000012008BD38B508460D4601F089FB04464B
:1052300001462846FEF7FEFD204638BD10B508465B
:1052400014461146FEF7F6FD204610BDFEF714BECB
:10525000FEF780BE08B50846FEF7C2FD003018BF55
:10526000012008BD08B50846FEF798FD003018BFBC
:10527000012008BD08461146FEF764BD0846FEF74A
:105280008BBD00BF0846FEF741BD00BFFEF706BD5F
:105290000846FEF70FBC00BF10B508461446FEF7DF
:1052A00009FC2046BDE81040FEF7BEBCFEF7D8BDA5
:1052B000FEF738BEFEF702BEFEF7F0BD0368064AF1
:1052C0001B68934205D110B5C8B2FEF7A9FD0120B5
:1052D00010BDC9B2184700BF195200000368064A42
:1052E0001B68934205D110B5C8B2FEF799FD0120A5
:1052F00010BDC9B2184700BF195200000368064A22
:105300001B68934205D110B5C8B2FEF789FD012094
:1053100010BDC9B2184700BF195200000368064A01
:105320001B68934205D110B5C8B2FEF779FD012084
:1053300010BDC9B2184700BF19520000704700BF26
:10534000044B054A1A604FF47A71002299601A7171
:105350001A737047D421FF1F60A5000030B429489C
:10536000294A2A4B2A4D6024E121047011701B78D0
:10537000284C082B30D00A2B2748284937D00C2B33
:105380000CBF35225D2212232A60236002600B606D
:10539000234B24491B78244ABBB101230B601360C3
:1053A000224B23491B78234A012B26D9042B0FD9E2
:1053B000082B1ED9102B94BF862387230B60136004
:1053C0001D4B01221A7030BC70470B601360E7E779
:1053D00084230B601360F3E700F58E200F4908303B
:1053E000212213232A60236002600B60D0E7392258
:1053F000F7E785230B601360E2E780230B601360FF
:10540000DEE700BF00400740014007404407FF1FA0
:1054100008B003400CB0034008B00B400CB00B4088
:10542000E521FF1F20B0034020B00B404507FF1FC0
:1054300024B0034024B00B40E421FF1F10B584B01A
:1054400072B6FCF7FFF8184A184B19491160702220
:1054500080211A701A46197013781B06FCD5154B5B
:105460001C68FCF709F962B6134B9C429CBF04EB25
:10547000840464002046114C01A90A22FCF716F9A5
:1054800001A92046002311F8012B01333AB10A2B60
:1054900020F8022FF7D11623237004B010BD5B0053
:1054A000DBB2237004B010BD0400024000000240D3
:1054B000000007410C0002407F969800D407FF1FB0
:1054C00081F0004102E000BF83F0004330B54FEAB5
:1054D00041044FEA430594EA050F08BF90EA020F22
:1054E0001FBF54EA000C55EA020C7FEA645C7FEAB5
:1054F000655C00F0E2804FEA5454D4EB5555B8BFD8
:105500006D420CDD2C4480EA020281EA030382EA48
:10551000000083EA010180EA020281EA0303362DDA
:1055200088BF30BD11F0004F4FEA01314FF4801CAD
:105530004CEA113102D0404261EB410113F0004FBF
:105540004FEA03334CEA133302D0524263EB430376
:1055500094EA050F00F0A780A4F10104D5F1200E14
:105560000DDB02FA0EFC22FA05F2801841F100016F
:1055700003FA0EF2801843FA05F359410EE0A5F143
:1055800020050EF1200E012A03FA0EFC28BF4CF074
:10559000020C43FA05F3C01851EBE37101F000452A
:1055A00007D54FF0000EDCF1000C7EEB00006EEB37
:1055B0000101B1F5801F1BD3B1F5001F0CD34908C1
:1055C0005FEA30004FEA3C0C04F101044FEA445218
:1055D00012F5800F80F09A80BCF1004F08BF5FEA9F
:1055E000500C50F1000041EB045141EA050130BD7F
:1055F0005FEA4C0C404141EB010111F4801FA4F122
:105600000104E9D191F0000F04BF01460020B1FA76
:1056100081F308BF2033A3F10B03B3F120020CDAAE
:105620000C3208DD02F1140CC2F10C0201FA0CF08C
:1056300021FA02F10CE002F11402D8BFC2F1200CF1
:1056400001FA02F120FA0CFCDCBF41EA0C019040A7
:10565000E41AA2BF01EB0451294330BD6FEA0404F0
:105660001F3C1CDA0C340EDC04F11404C4F12002DB
:1056700020FA04F001FA02F340EA030021FA04F3ED
:1056800045EA030130BDC4F10C04C4F1200220FA44
:1056900002F001FA04F340EA0300294630BD21FA82
:1056A00004F0294630BD94F0000F83F4801306BF48
:1056B00081F480110134013D4EE77FEA645C18BF3C
:1056C0007FEA655C29D094EA050F08BF90EA020FD3
:1056D00005D054EA000C04BF1946104630BD91EACB
:1056E000030F1EBF0021002030BD5FEA545C05D1CE
:1056F0004000494128BF41F0004130BD14F580040D
:105700003CBF01F5801130BD01F0004545F0FE4180
:1057100041F470014FF0000030BD7FEA645C1ABFB5
:10572000194610467FEA655C1CBF0B46024650EAEC
:10573000013406BF52EA033591EA030F41F4002118
:1057400030BD00BF90F0000F04BF0021704730B59E
:105750004FF4806404F132044FF000054FF0000173
:1057600050E700BF90F0000F04BF0021704730B534
:105770004FF4806404F1320410F0004548BF404209
:105780004FF000013EE700BF42004FEAE2014FEA5E
:1057900031014FEA02701FBF12F07F4393F07F4F39
:1057A00081F06051704792F0000F14BF93F07F4F6B
:1057B000704730B54FF4607401F0004521F00041AE
:1057C00020E700BF50EA010208BF704730B54FF034
:1057D00000050AE050EA010208BF704730B511F039
:1057E000004502D5404261EB41014FF4806404F171
:1057F00032045FEA915C3FF4DCAE4FF003025FEAF3
:10580000DC0C18BF03325FEADC0C18BF033202EB7A
:10581000DC02C2F1200300FA03FC20FA02F001FAD4
:1058200003FE40EA0E0021FA02F11444C1E600BF73
:1058300070B54FF0FF0C4CF4E06C1CEA11541DBF26
:105840001CEA135594EA0C0F95EA0C0F00F0DEF8F1
:105850002C4481EA030621EA4C5123EA4C5350EAD6
:10586000013518BF52EA033541F4801143F4801327
:1058700038D0A0FB02CE4FF00005E1FB02E506F0B8
:105880000042E0FB03E54FF00006E1FB03569CF00D
:10589000000F18BF4EF0010EA4F1FF04B6F5007F13
:1058A00064F5407404D25FEA4E0E6D4146EB060685
:1058B00042EAC62141EA55514FEAC52040EA5E500E
:1058C0004FEACE2EB4F1FD0C88BFBCF5E06F1ED8B8
:1058D000BEF1004F08BF5FEA500E50F1000041EBEF
:1058E000045170BD06F0004646EA010140EA02009C
:1058F00081EA0301B4EB5C04C2BFD4EB0C0541EABE
:10590000045170BD41F480114FF0000E013C00F3D2
:10591000AB8014F1360FDEBF002001F0004170BDF6
:10592000C4F10004203C35DA0C341BDC04F114040F
:10593000C4F1200500FA05F320FA04F001FA05F29B
:1059400040EA020001F0004221F0004110EBD37068
:1059500021FA04F642EB06015EEA430E08BF20EA94
:10596000D37070BDC4F10C04C4F1200500FA04F337
:1059700020FA05F001FA04F240EA020001F00041C9
:1059800010EBD37041F100015EEA430E08BF20EA3C
:10599000D37070BDC4F1200500FA05F24EEA020E84
:1059A00020FA04F301FA05F243EA020321FA04F0B3
:1059B00001F0004121FA04F220EA020000EBD3706A
:1059C0005EEA430E08BF20EAD37070BD94F0000F6A
:1059D0000FD101F00046400041EB010111F4801F9E
:1059E00008BF013CF7D041EA060195F0000F18BF4F
:1059F000704703F00046520043EB030313F4801F8B
:105A000008BF013DF7D043EA0603704794EA0C0F44
:105A10000CEA135518BF95EA0C0F0CD050EA41065A
:105A200018BF52EA4306D1D181EA030101F00041D7
:105A30004FF0000070BD50EA410606BF10461946FF
:105A400052EA430619D094EA0C0F02D150EA01360B
:105A500013D195EA0C0F05D152EA03361CBF10464C
:105A600019460AD181EA030101F0004141F0FE41EB
:105A700041F470014FF0000070BD41F0FE4141F46F
:105A8000780170BD70B54FF0FF0C4CF4E06C1CEA6F
:105A900011541DBF1CEA135594EA0C0F95EA0C0F24
:105AA00000F0A7F8A4EB050481EA030E52EA0335DF
:105AB0004FEA013100F088804FEA03334FF0805500
:105AC00045EA131343EA12634FEA022245EA11152D
:105AD00045EA10654FEA00260EF000419D4208BFDE
