:100000000C945D000C9485000C9485000C94850084
:100010000C9485000C9485000C9485000C9485004C
:100020000C9485000C9485000C9485000C9485003C
:100030000C9485000C94C4030C9485000C948500EA
:100040000C9422030C9485000C9492030C946C0382
:100050000C9485000C9485000C9485000C9485000C
:100060000C9485000C94850000000008000201003B
:100070000003040700000000000000000000000072
:10008000250028002B0000000000240027002A0083
:10009000040404040404040402020202020203032E
:1000A0000303030301020408102040800102040836
:1000B00010200102040810205B0511241FBECFEFA1
:1000C000D8E0DEBFCDBF11E0A0E0B1E0EEE6FBE09E
:1000D00002C005900D92A431B107D9F722E0A4E146
:1000E000B1E001C01D92A630B207E1F710E0CDE506
:1000F000D0E004C02197FE010E94AA05CC35D107AB
:10010000C9F70E94F5030C94B5050C9400009FE21A
:10011000981B892F93E0899FF0011124F695E795AC
:10012000E254FE4F80FF05C08081807F872B808353
:100130000CC0CB0124E0969587952A95E1F7808342
:1001400081818F706295607F682B6183089590E054
:10015000FC01EC55FF4F2491FC01E057FF4F8491C7
:10016000882399F090E0880F991FFC01EA57FF4F10
:10017000A591B491FC01E458FF4F859194918FB7FC
:10018000F894EC91E22BEC938FBF089590E0FC0182
:10019000E859FF4F3491FC01EC55FF4F2491FC01CD
:1001A000E057FF4FE491EE2309F43BC0332339F1CC
:1001B000333091F038F43130A9F0323001F584B5A4
:1001C0008F7D12C0373091F03830A1F03430B9F45F
:1001D000809180008F7D03C0809180008F77809315
:1001E00080000DC084B58F7784BD09C08091B000B8
:1001F0008F7703C08091B0008F7D8093B000F0E0D6
:10020000EE0FFF1FE458FF4FA591B4918FB7F894FC
:10021000EC91611103C020952E2301C02E2B2C934D
:100220008FBF08950F931F93CF93DF9360E080E01B
:100230000E94C60060E082E00E94C600C0E0D0E0FC
:100240000FEF10E060E082E00E94C600C8010C2EB3
:1002500002C0959587950A94E2F780FF02C061E09D
:1002600001C060E080E00E94C60061E082E00E9480
:10027000C60060E082E00E94C60060E080E00E946C
:10028000C6002196C830D105E9F6DF91CF911F91C4
:100290000F9108953FB7F89480911D0190911E0130
:1002A000A0911F01B091200126B5A89B05C02F3F4A
:1002B00019F00196A11DB11D3FBFBA2FA92F982F8C
:1002C0008827820F911DA11DB11DBC01CD0142E007
:1002D000660F771F881F991F4A95D1F708958F924F
:1002E0009F92AF92BF92CF92DF92EF92FF926B01FB
:1002F0007C010E944A014B015C01C114D104E1045C
:10030000F104F1F00E944A01DC01CB01881999093E
:10031000AA09BB09883E9340A105B10570F321E00D
:10032000C21AD108E108F10888EE880E83E0981E11
:10033000A11CB11CC114D104E104F10419F7DDCFF3
:10034000FF90EF90DF90CF90BF90AF909F908F90F5
:100350000895CF92DF92EF92FF920F931F93CF9366
:10036000DF936C017A018B01C0E0D0E0CE15DF0590
:1003700089F0D8016D918D01D601ED91FC9101902C
:10038000F081E02DC6010995892B11F47E0102C090
:100390002196ECCFC701DF91CF911F910F91FF9074
:1003A000EF90DF90CF900895FC01918D828D98178A
:1003B00061F0828DDF01A80FB11D5D968C91928D49
:1003C0009F5F9F73928F90E008958FEF9FEF089546
:1003D000FC01918D828D981731F0828DE80FF11D0F
:1003E000858D90E008958FEF9FEF0895FC01918D2A
:1003F000228D892F90E0805C9F4F821B91098F7323
:100400009927089581E291E00E94F60121E0892B6D
:1004100009F420E0822F0895FC01848DDF01A80FEC
:10042000B11DA35ABF4F2C91848D90E001968F731C
:100430009927848FA689B7892C93A089B1898C913B
:1004400080648C93938D848D981306C00288F38901
:10045000E02D80818F7D80830895EF92FF920F932E
:100460001F93CF93DF93EC0181E0888F9B8D8C8D60
:10047000981305C0E889F989808185FD24C0F62E8E
:100480000B8D10E00F5F1F4F0F731127E02E8C8D27
:10049000E8120CC00FB607FCFACFE889F989808111
:1004A00085FFF5CFCE010E940C02F1CF8B8DFE01AE
:1004B000E80FF11DE35AFF4FF0820B8FEA89FB89A9
:1004C0008081806207C0EE89FF896083E889F989AD
:1004D00080818064808381E090E0DF91CF911F91E3
:1004E0000F91FF90EF900895CF93DF93EC01888DEB
:1004F0008823C9F0EA89FB89808185FD05C0A88928
:10050000B9898C9186FD0FC00FB607FCF5CF8081AD
:1005100085FFF2CFA889B9898C9185FFEDCFCE01F7
:100520000E940C02E7CFDF91CF91089580E090E028
:10053000892B29F00E94020281110C940000089579
:1005400080E28093800080911601882319F0109238
:10055000160102C02D9A2D98EEEBF1E080818EBD40
:100560000DB407FEFDCF81818EBD0DB407FEFDCF1A
:100570003396DF0111978C918EBD0DB407FEFDCF30
:1005800082E0E630F80750F381E08093170190EAAB
:1005900090938000B09A80936F0080E008958F92CE
:1005A0009F92AF92BF920F931F93CF93DF93CDB7DC
:1005B000DEB7A1970FB6F894DEBF0FBECDBF19A26C
:1005C000423008F44AE08E010F5D1F4F842E912CBB
:1005D000A12CB12CA50194010E948805E62FB90138
:1005E000CA0101501109EA3014F4E05D01C0E95C70
:1005F000D801EC93232B242B252B61F70115110532
:1006000071F0F80101900020E9F73197AF01401B2C
:10061000510BB80181E291E00E94A90102C080E083
:1006200090E0A1960FB6F894DEBF0FBECDBFDF916C
:10063000CF911F910F91BF90AF909F908F90089591
:100640000E94B0051F920F920FB60F9211242F93A4
:100650003F938F939F93AF93BF9380911901909194
:100660001A01A0911B01B0911C013091180123E0E7
:10067000230F2D3720F40196A11DB11D05C026E8DA
:10068000230F0296A11DB11D20931801809319011B
:1006900090931A01A0931B01B0931C0180911D013E
:1006A00090911E01A0911F01B09120010196A11D02
:1006B000B11D80931D0190931E01A0931F01B09363
:1006C0002001BF91AF919F918F913F912F910F90FA
:1006D0000FBE0F901F9018951F920F920FB60F929A
:1006E00011242F933F934F935F936F937F938F9337
:1006F0009F93AF93BF93EF93FF9381E291E00E94AA
:100700000C02FF91EF91BF91AF919F918F917F91DB
:100710006F915F914F913F912F910F900FBE0F906E
:100720001F9018951F920F920FB60F9211242F93BE
:100730008F939F93EF93FF93E0913101F0913201FA
:100740008081E0913701F091380182FD12C09081E3
:1007500080913A018F5F8F7320913B01821751F096
:10076000E0913A01F0E0EF5DFE4F958F80933A0102
:1007700001C08081FF91EF919F918F912F910F90F8
:100780000FBE0F901F9018951F920F920FB60F92E9
:1007900011242F933F934F935F936F937F938F9386
:1007A0009F93AF93BF93EF93FF9380E2809380007A
:1007B00010926F0010921701E0911401F091150151
:1007C000309711F078940995FF91EF91BF91AF9117
:1007D0009F918F917F916F915F914F913F912F9159
:1007E0000F900FBE0F901F901895789484B582607B
:1007F00084BD84B5816084BD85B5826085BD85B5C5
:10080000816085BD80916E00816080936E00109242
:1008100081008091810082608093810080918100BD
:10082000816080938100809180008160809380004E
:100830008091B10084608093B1008091B0008160AC
:100840008093B00080917A00846080937A008091D8
:100850007A00826080937A0080917A008160809330
:100860007A0080917A00806880937A001092C100AB
:10087000E0913101F091320182E08083E0912D011D
:10088000F0912E011082E0912F01F09130018FEC58
:10089000808310923901E0913501F091360186E0B4
:1008A0008083E0913301F091340180818061808305
:1008B000E0913301F0913401808188608083E09180
:1008C0003301F0913401808180688083E0913301AD
:1008D000F091340180818F7D80834AE063E070E095
:1008E00080E090E00E94CF0242E050E060E171E0E1
:1008F00081E291E00E94A90180E00E94A70081E0CE
:100900000E94A70082E00E94A7008DE00E94A7003D
:10091000CAE0D0E061E08DE00E94C60062E370E0D2
:1009200080E090E00E946F0160E08DE00E94C600D0
:1009300062E370E080E090E00E946F01219751F740
:1009400064EF71E080E090E00E946F0161E08DE073
:100950000E94C60064EF71E080E090E00E946F01A9
:10096000219A229A539A2A9A239A259A229A2D9862
:1009700081E08DBD80E58CBDEEEBF1E0108211824F
:100980003396DF0111971C9282E0E630F807B0F34E
:1009900080911701811102C00E94A00280E2809321
:1009A000800010926F0010921701299A2998809365
:1009B000800080E18093810081E090E09093890045
:1009C0008093880082E090E090938B0080938A006F
:1009D00080E090E2909387008093860083E280938A
:1009E000B00088E08093B1001092B40083E080935F
:1009F000B3008091B10081608093B100809181004B
:100A000081608093810080911701811102C00E9452
:100A1000A00280911701811102C00E94A00260E033
:100A200081E00E94C6000E9412010E94120161E052
:100A300081E00E94C60001E010E0C0E0D0E0EEEBF3
:100A4000F1E0108211823396DF0111971C9282E04F
:100A5000E630F807B0F3209739F068EE73E08C2F9A
:100A600081500E94870002C001E010E06FEF7FE03C
:100A70008C2F0E948700CF32D10539F068EE73E0E9
:100A80008C2F8F5F0E94870002C00FEF1FEF8091B5
:100A90001701811102C00E94A0026BE470E080E0A7
:100AA00090E00E946F01C00FD11FC033D1053CF20E
:100AB0000E949602C0CFE1E2F1E01382128288EE3A
:100AC00093E0A0E0B0E084839583A683B78384E0BD
:100AD00091E09183808385EC90E09587848784EC16
:100AE00090E09787868780EC90E0918B808B81ECFB
:100AF00090E0938B828B82EC90E0958B848B86ECDC
:100B000090E0978B868B118E128E138E148E089523
:100B1000A1E21A2EAA1BBB1BFD010DC0AA1FBB1F01
:100B2000EE1FFF1FA217B307E407F50720F0A21B73
:100B3000B30BE40BF50B661F771F881F991F1A94E0
:100B400069F760957095809590959B01AC01BD010A
:100B5000CF010895EE0FFF1F0590F491E02D099449
:0E0B600081E090E0F8940C94B505F894FFCF76
:100B6E00000000002D02A901F601D401E801740273
:040B7E000D0A00005C
:00000001FF
