:1000000000000320D10100007946000031460000C5
:100010003146000031460000314600003146000004
:1000200031460000314600003146000079460000AC
:100030007946000031460000794600002146000064
:1000400079460000794600007946000079460000B4
:1000500079460000794600007946000079460000A4
:100060007946000079460000794600007946000094
:100070007946000079460000794600007946000084
:100080007946000079460000794600007946000074
:100090007946000079460000794600007946000064
:1000A0007946000079460000794600007946000054
:1000B000794600007946000079460000F50F0000FF
:1000C000794600005117000079460000D11C00005D
:1000D00079460000E92200007946000079460000D8
:1000E0007946000079460000794600007946000014
:1000F0007946000079460000794600007946000004
:1001000079460000794600007946000079460000F3
:1001100079460000C93000007946000079460000A9
:1001200079460000794600007946000079460000D3
:1001300079460000794600007946000079460000C3
:100140007946000079460000352800007946000015
:1001500079460000794600007946000079460000A3
:100160007946000079460000794600007946000093
:100170007946000079460000794600007946000083
:100180007946000079460000794600007946000073
:100190007946000079460000752E0000794600007F
:1001A0007946000079460000794600007946000053
:1001B0007946000079460000794600007946000043
:1001C0007946000079460000794600007946000033
:1001D0005C4B4CF2205210B51A804DF628121A8052
:1001E00000BF00BF04F04CFA574B4FF030621A606A
:1001F000564A9A60564ADA60564B4FF470021A60BB
:10020000554B564A1A60564A136813F4807304D14A
:1002100054490B604FF4A8531360534B1A781107DD
:1002200003D51A7842F008021A70504B5049AA229E
:100230001A70504A504B8B4204D252F8040F43F8C4
:10024000040BF8E74D4B4E4900228B4202D243F893
:10025000042BFAE74B494C4A002352F8230041F89B
:1002600023000133742BF8D1484B494A802103F80D
:10027000011B9342FBD1474B424A1A60464B8A22EC
:100280001A70A3F5805324225A70A0221A709A790A
:100290009207FCD59A79D406FCD4404A937903F0AE
:1002A0000C03082BFAD13E4B60221A7002331A78E5
:1002B000802AFCD1394B01221A715D225A719A7938
:1002C0009006FCD59979354A4906FBD5354B364918
:1002D00019600021596020231370937903F00C03F7
:1002E0000C2BFAD1314B324A1A60324B324A1A6027
:1002F00000225A60072243F8042C304AC3F80C2D20
:1003000062B600F051FA174B1B68DA0705D52C4886
:1003100000F0DAF92B4B2C4A1A602C4B1B785B0649
:1003200009D5284C284B22689A4204D1244800F071
:10033000CBF90023236004F065FA04F0A7F900F07C
:1003400011F9FEE70E20054030800440823F040092
:100350000100002B88ED00E0002008E0030000858C
:1003600010D0034014D0034002D0074000E0074003
:10037000100CFF1F384F00003007FF1F100CFF1F2D
:10038000BC10FF1F0002FF1F0000000000E400E09F
:1003900064E400E008ED00E0005006400040064044
:1003A00001E007404480044000000602048004404D
:1003B000C010070014E000E01FBF02000000202072
:1003C00027F181591CE00340A5C3945A00F007406F
:1003D000FFFFFFFFFFFFFFFFFFFFFFFFFFFFFFFF2D
:1003E000FFFFFFFFFFFFFFFFFFFFFFFFFFFFFFFF1D
:1003F000FFFFFFFFFFFFFFFFFFFFFFFFFFFFFFFF0D
:10040000FFFFFFFFFFFFFFFFFFFFFFFFDEF9FFFF23
:1004100010B5054C237833B9044B13B10448AFF33E
:1004200000800123237010BD100CFF1F000000008E
:100430003C4F0000084B10B51BB108490848AFF30A
:1004400000800848036803B910BD074B002BFBD0A0
:10045000BDE81040184700BF00000000140CFF1F4B
:100460003C4F0000100CFF1F0000000008B50121E8
:10047000172000F041F90121162000F03DF901217B
:10048000152000F039F90021172000F02FF9002184
:10049000162000F02BF90021152000F027F901218A
:1004A0000D2000F029F901210D20BDE8084000F0E1
:1004B0001DB900BF70B500210646172000F016F9DF
:1004C0000021152000F012F900243C252B46013BA9
:1004D000FDD10021152000F009F946FA04F111F0D0
:1004E00001034FF017004FF0010104BF1720194618
:1004F00000F0FCF82B46013BFDD10121152000F056
:10050000F5F82B46013BFDD10021152000F0EEF857
:1005100001340021172000F0E9F8082CD6D170BD75
:1005200038B5012505FA00F40021162000F0DEF8A8
:10053000E0B2FFF7BFFFC4F30720FFF7BBFF294678
:100540001620BDE8384000F0D1B800BF10B5002437
:10055000E0B2FFF7E5FF0134012000F0D3F8102CE2
:10056000F6D110BD08B5FFF781FFFFF7EFFF00F0F0
:1005700001F8FAE710B5224C237803B110BD01232E
:10058000237003F0B5FAA0B900F0B2FCB8B901F0DD
:100590005DF8D0B901F02EFBE8B901F037FE00BBE1
:1005A00002F0DAF818BB02F0F7FB30BB002323702F
:1005B00010BD03F0B5FF00F09BFC0028E7D003F06E
:1005C00015FC01F043F80028E4D003F0C3FC01F06F
:1005D00011FB0028E1D003F071FD01F017FE0028A7
:1005E000DED003F01FFE02F0B7F80028DBD003F0E6
:1005F000CDFE02F0D1FB0028D8D003F06FFFD5E785
:100600002C0CFF1F10B4114B53F8302092F880428D
:1006100034B1012379B182F880305DF8044B704722
:1006200003EBC0035B681A6851B922F002021A603A
:100630005DF8044B704782F800315DF8044B704759
:1006400042F003021A605DF8044B7047484A00000C
:100650001C4A02EBC00301295B6811D004291BD09E
:1006600052F83000002280F8802229B1022920D0DF
:10067000032922D01A6070474FF480721A607047C5
:1006800052F830004FF4A27280F880121A601A6893
:1006900022F020021A60704752F830104FF4A27214
:1006A000012081F880021A601A6842F020021A6064
:1006B000704740F203121A6070474FF481721A605B
:1006C000704700BF484A000030B4054B054D064C4A
:1006D000002210211A602A602060196030BC704727
:1006E00014D0034004D0034000D003403F2801D879
:1006F000FFF788BF704700BF3F2801D8FFF7A8BFAA
:10070000704700BF2DE9F843054672B6224F234BD0
:10071000234A1B683C68126862B6520102D5322B2C
:1007200088BF0134B5B3C3F52F3303F21F331D4E19
:10073000DFF86890DFF868809B084FF47A72A6FBB8
:10074000031302FB04F404EB930472B6D9F800100F
:100750003A68D8F800E062B6C1F52F3303F21F33D0
:100760009B08A6FB03031EF0806FC4EB93034FF4BA
:100770007A7002D0322988BF013200FB0233B3F510
:100780007A7F04D3013D05D004F57A74DDE7FFF7E5
:10079000F1FEDAE7BDE8F883300CFF1F18E000E057
:1007A00004ED00E0176CC116F8B54E4B4E48DFF86B
:1007B0005CC14E4C4E49DFF858E14E4E4E4D4F4F06
:1007C0004FF000621A604FF080521A604FF00052F2
:1007D0001A604FF080421A604FF000421A60002207
:1007E000026028234EF6FF70CCF80000CEF80030EF
:1007F00023600EF5012E0B6033602B6006F500269A
:100800003B6005F50025A36207F500278B6204F520
:10081000012401F5012106F6E87605F6E87507F5ED
:100820007F6710310EF1100E203433602B60CEF84C
:1008300000303B600B602360314CBB618B61092150
:100840002160A7F5002704F58054203F08343A6062
:100850002060BB60E36047F8041C04F5FD2407F545
:10086000FE27043704F2FC7422603860A360FB604A
:1008700044F8041C083404F6FC74C7F8FC2F20600C
:10088000A4F5E124A4F2DC7433602B60C7F8F81FF0
:1008900021681C4841F40071216001681A4C0EF572
:1008A0007F4E0EF1E80E07F5883706F5803605F520
:1008B000803541F000710160CEF8002047F6FF71ED
:1008C0000822396033602B60226003F039FE322049
:1008D000FFF718FF03F022F84FF4AF70BDE8F840BF
:1008E000FFF710BF04E100E00480034014800340E0
:1008F0001C800340248003402C800340348003404C
:10090000008003400480044000900C4008800340B5
:100910000C8003402DE9F84F214B1B6807460BB1B3
:1009200001221A70DFF888901E4D99F80040DFF818
:1009300084801D4E01343F2C8ABF4FF0000A5FFABD
:1009400084FA5446AB462B78A34216D103F0A0FE9E
:1009500040281FDC33791B06F5D59BF800300133A6
:100960003F2B86BF00221346DAB218F80330DBB201
:10097000F3712A702B78A342E8D00C490A4BFFB2DE
:1009800008F804700120BC22087089F800A0DA7011
:10099000BDE8F88FFF28D6DDFFF7ECFDD3E700BFF9
:1009A000C40CFF1FC10CFF1F00A00640C00CFF1F9E
:1009B000C80CFF1F3C0CFF1F2E4A2F491368F0B5CF
:1009C00043F4806313600A782C4F2D4E2D4D2E4C2E
:1009D0002E490023152A3B7033702B7023700B7047
:1009E00043D01B2A3CD04AB3294B1B78052B2DD072
:1009F0001A2B30D0012B1CD0264B274C2749C0F393
:100A00004436C0F347151E7000F01F005D700422CD
:100A10004FF0020E88273C26402598729A704FF0BE
:100A2000004083F813E05A751F74DE70257008606B
:100A3000F0BD1B4B4FF451721A60DDE7194B40F2C9
:100A400013321A60124B1B78052BD1D1164B4FF481
:100A500051721A60D0E7154B4FF451721A60CBE710
:100A6000134B40F213321A60BEE7124B40F21332BE
:100A70001A60B9E7348004407C0CFF1F380CFF1F5C
:100A8000390CFF1FC80CFF1FC10CFF1FC00CFF1F3C
:100A90003007FF1F00A006401FE400E000E100E077
:100AA00044A0044040A004401CC0044038900440CE
:100AB0003C90044018C00440194B19499B7803F03E
:100AC000EC0200F003031343420700F00F0248BF9B
:100AD00043F01003042A8B701CD0114B104A5B7931
:100AE000C10603F0EF0348BF43F01003537193793D
:100AF000820603F0EF030A4A48BF43F010039371E4
:100B0000C30506D553781178DBB241F0200111708E
:100B1000537070478B7943F040038B71DDE700BF62
:100B200000A00640284B1B685B0533D510B5274C49
:100B3000237823B1FFF71EFD2378002BFAD1244838
:100B4000244A254B4FF0004400210460D1701B78EB
:100B5000152B20D01B2B32D01BB9204B40F2031297
:100B60001A601F4B1B7803F07F03052B1DD01A2B37
:100B700020D0012B03D11B4B40F203121A601A4BF9
:100B80001A481B491A68002303700B700AB101232D
:100B9000137010BD7047174B40F203121A60104BD0
:100BA0001B7803F07F03052BE1D1134B40F20312B6
:100BB0001A60E4E7114B40F203121A60DFE7104BB2
:100BC00040F203121A60CCE734800440C00CFF1FCF
:100BD00080E100E000A006407C0CFF1F40A0044024
:100BE0003007FF1F44A00440340CFF1F380CFF1FC8
:100BF000390CFF1F18C004401CC00440389004404A
:100C00003C9004400A4A38B50546137803F0FF04C7
:100C1000002BFAD101212846FFF76EFD2146284618
:100C2000FFF764FD034A044B52F835201A6038BDC3
:100C3000C00CFF1F484A0000C40CFF1F09B140F060
:100C400080001E4A137898421BD010B41C4C2468B4
:100C5000640513D503F07F03052B2AD01A2B24D06B
:100C6000012B14D0002900F07F0114BF602344231E
:100C7000052915D01A290ED0012903D010705DF86E
:100C8000044B70470F4943F440730B60F6E70D4B7C
:100C900000241C60E6E70C4943F440730B60EDE769
:100CA0000A4943F440730B60E8E7074B00241C60DB
:100CB000D8E7064B00241C60D4E700BF3007FF1FB5
:100CC0003480044044A00440389004401CC00440D8
:100CD000174A137883420ED016490968490509D589
:100CE000152B20D01B2B1AD05BB115280DD01B283B
:100CF00010D008B1107070470F4B40F213311960DB
:100D0000F8E70D4915280B60F1D10C4B40F2133177
:100D10001960EFE70A4B40F213311960EAE7084B1C
:100D200000211960E1E7054B00211960DDE700BFF4
:100D30007C0CFF1F3480044040A0044018C00440D5
:100D40003C9004400D4B1B6813F4806305D03F2892
:100D500005D90B4B00201860704718467047094BA7
:100D600010B5074C53F8303023600121FFF7C4FC65
:100D7000236800221A70012010BD00BF3480044097
:100D8000340CFF1F484A00000F4B1B6813F48063AC
:100D900008D0122808D0142811D00C4A537B03F035
:100DA000FE03537300207047094B40F202321A6071
:100DB000064A537B43F00103537301207047054BF0
:100DC00040F202321A60F3E73480044000A006408B
:100DD0000CA0044014C00440034B1B685B0501D504
:100DE000FFF798BD704700BF348004402DE9F84FED
:100DF000294B1B685A0548D5284B1B6805460BB183
:100E000001221A7005EB010A554540D2DFF89C809B
:100E1000234CDFF89C90234F0AE015F8012B09F8CA
:100E20000B20214A0123AA45137088F800602ED0B8
:100E300098F80030227803F1010BBBF13F0F86BF19
:100E40000026B3465FFA8BF69345E6D1BC22FA70D2
:100E500005E03A7913060BD422789345DDD103F0EF
:100E600017FC4028F5DDFF28F6DDFFF783FBF3E7ED
:100E7000227801323F2A86BF00210A46D1B219F8F2
:100E80000220D2B2FA712170E6E7BDE8F88F054B77
:100E9000BC22DA70BDE8F88F34800440C40CFF1F18
:100EA000C10CFF1F00A00640C00CFF1FC80CFF1F95
:100EB0003C0CFF1F10B5044C237823B1FFF75AFBFD
:100EC0002378002BFAD110BDC00CFF1F064A074B38
:100ED0001B781078DBB2C0B283422CBF3F3000F1E8
:100EE000FF30C01A704700BFC10CFF1FC80CFF1FA6
:100EF000054A064B10781B78C0B2DBB2984238BF67
:100F00004030C01A704700BF380CFF1F390CFF1F5C
:100F100030B4154B154C1A782378D2B2DBB29A4212
:100F20001ED001333F2B0ED91149124B0878196896
:100F30000023C0B2237021B1D31A1A2B01DC002385
:100F40000B7030BC70470A480A49C05C0968DDB2C2
:100F5000C0B225700029F4D09A4238BF4032EBE786
:100F60004FF0FF30EDE700BF380CFF1F390CFF1FBB
:100F7000800CFF1F340CFF1F084A094B12781B78A6
:100F8000DBB29A4207D00133402B28BF0023054A29
:100F9000D05CC0B270474FF0FF307047380CFF1F75
:100FA000390CFF1F800CFF1F0D4B1B685B0516D50E
:100FB00030B40C4B0C4CDA780C480D4902F0CB02E3
:100FC0004025DA705D74DA7842F03402DA70237802
:100FD0000268DBB20B700AB10023137030BC70479B
:100FE0003480044000A00640390CFF1F340CFF1F62
:100FF000380CFF1FF0B4384B1A7912F0300F2CD098
:1010000072B6997D01F0FF0200293DD062B6334FE0
:10101000334938780D78334E1C46C0B2EDB2431CCC
:10102000402BE17928BF0023AB4202F1FF32C9B265
:101030001CBFF154184612F0FF02F0D12A4B1B6876
:10104000C2B23A704BB1A84236BFC5F14005401B51
:1010500040192728C4BF01221A701F49CA78D2B28A
:10106000150616D452060DD51B4B1B795B0609D508
:101070001E4B1F491B6800220A7003B11A70164BE1
:101080003C22DA70F0BC70474022D9795A7462B6BB
:10109000E3E70B791C06E5D5164B174E1C78337821
:1010A000E4B2DBB29C420ED0144D01E0A3420AD060
:1010B0000133402B28BF00230879E85CC0B2C87117
:1010C000087D0728F2D9DBB2034933700B79180683
:1010D00044BF7C23CB70C5E700A00640380CFF1F3F
:1010E000390CFF1F800CFF1F340CFF1FC40CFF1FA7
:1010F000C00CFF1FC80CFF1FC10CFF1F3C0CFF1FC3
:10110000264A27491368F0B443F4006313600A7851
:10111000244F254E254D264C26490023092A3B7095
:1011200033702B7023700B7032D03B2A23D0224BAC
:101130001B780A2B27D03A2B03D1204B4FF4517246
:101140001A601F4B1F4D204CC0F34437C0F34716A5
:1011500000F01F001F7004215E7002229872882721
:101160003C2640209970DA7459751F74DE7028701F
:101170002260F0BC7047154B40F213321A600E4BE0
:101180001B780A2BD7D1124B4FF451721A60D8E753
:10119000104B40F213321A60C9E700BF348004409C
:1011A0003107FF1F3C0DFF1FD10CFF1F440DFF1F18
:1011B0003D0DFF1FD00CFF1F3207FF1F00D0044062
:1011C00000B0064021E400E004E100E004D0044067
:1011D00010B004400CB00440194B19499B7803F03F
:1011E000EC0200F003031343420700F00F0248BF74
:1011F00043F01003042A8B701CD0114B104A5B790A
:10120000C10603F0EF0348BF43F010035371937915
:10121000820603F0EF030A4A48BF43F010039371BC
:10122000C30506D553781178DBB241F02001117067
:10123000537070478B7943F040038B71DDE700BF3B
:1012400000B00640204B1B681B053BD510B51F4C5A
:10125000237823B1FFF78EF92378002BFAD11C48AD
:101260001C491D4B022400220460CA701B78092B04
:1012700019D03B2B01D1194B1A60194B1B7803F085
:101280007F030A2B19D03A2B02D1164B00221A6089
:10129000154B164816491A68002303700B700AB1E3
:1012A0000123137010BD134B40F203121A600C4B54
:1012B0001B7803F07F030A2BE5D10F4B40F203129A
:1012C0001A60E5E7704700BF34800440D00CFF1F70
:1012D00084E100E000B006403107FF1F04D0044065
:1012E0003207FF1F00D00440CC0CFF1F3C0DFF1F36
:1012F000D10CFF1F0CB0044010B004400A4A38B5AE
:101300000546137803F0FF04002BFAD1012128468B
:10131000FFF7F2F921462846FFF7E8F9034A044BA4
:1013200052F835201A6038BDD00CFF1F484A000023
:10133000400DFF1F09B140F08000174A1378984212
:1013400017D010B4154C246824050FD503F07F0383
:101350000A2B1DD03A2B12D0002900F07F0114BFB8
:10136000602344230A290ED03A2903D010705DF877
:10137000044B70470A4943F440730B60F6E7084B8F
:1013800000241C60E8E7074943F440730B60EDE775
:10139000044B00241C60DFE73207FF1F3480044049
:1013A00000D0044010B00440124B1A7882420CD096
:1013B00011490968090507D5092A16D03B2A0AD020
:1013C00009280DD03B2801D0187070470B4A40F215
:1013D00013311160F8E7094A002109281160F1D1A1
:1013E000074A40F213311160EEE7054A002111600F
:1013F000E6E700BF3107FF1F3480044004D00440FB
:101400000CB004400D4B1B6813F4006305D03F285B
:1014100005D90B4B00201860704718467047094BE0
:1014200010B5074C53F8303023600121FFF764F901
:10143000236800221A70012010BD00BF34800440D0
:10144000CC0CFF1F484A00000F4B1B6813F40063CD
:1014500008D0172808D03C2811D00C4A537B03F041
:10146000FE03537300207047094B40F202321A60AA
:10147000064A537B43F00103537301207047054B29
:1014800040F202321A60F3E73480044000B00640B4
:1014900008B0044008D004402DE9F84F234B1B68E6
:1014A0001A053BD5224B1B680BB101221A70DFF8DD
:1014B0009090204D99F80040DFF888801E4E01344E
:1014C000272C8ABF4FF0000A5FFA84FA5446074679
:1014D000AB462B789C4216D103F0DAF840281FDC8B
:1014E00033791B06F5D59BF800300133272B86BFD7
:1014F00000221346DAB218F80330DBB2F3712A7017
:101500002B789C42E8D00D490B4BFFB20120BC2246
:1015100008F80470087089F800A0DA70BDE8F88F48
:10152000FF28D6DDFFF726F8D3E700BF348004405C
:10153000400DFF1F3D0DFF1F00B00640D00CFF1FE8
:10154000440DFF1FD40CFF1F2DE9F84F294B1B68DA
:101550001A0548D5284B1B6805460BB101221A70A5
:1015600005EB010A554540D2DFF89C80234CDFF89B
:101570009C90234F0AE015F8012B09F80B20214A13
:101580000123AA45137088F800602ED098F8003027
:10159000227803F1010BBBF1270F86BF0026B3466B
:1015A0005FFA8BF69345E6D1BC22FA7005E03A79F2
:1015B00013060BD422789345DDD103F069F8402857
:1015C000F5DDFF28F6DDFEF7D5FFF3E722780132DF
:1015D000272A86BF00210A46D1B219F80220D2B2CA
:1015E000FA712170E6E7BDE8F88F054BBC22DA708E
:1015F000BDE8F88F34800440400DFF1F3D0DFF1FF4
:1016000000B00640D00CFF1F440DFF1FD40CFF1F7D
:1016100010B5044C237823B1FEF7ACFF2378002BE0
:10162000FAD110BDD00CFF1F064A074B1B7810786B
:10163000DBB2C0B283422CBF273000F1FF30C01AAA
:10164000704700BF3D0DFF1F440DFF1F054A064BAD
:1016500010781B78C0B2DBB2984238BF4030C01A55
:10166000704700BF3C0DFF1FD10CFF1F30B4154B5E
:10167000154C1A782378D2B2DBB29A421ED00133CD
:101680003F2B0ED91149124B087819680023C0B2BC
:10169000237021B1D31A1A2B01DC00230B7030BC4C
:1016A00070470A480A49C05C0968DDB2C0B22570BB
:1016B0000029F4D09A4238BF4032EBE74FF0FF30B8
:1016C000EDE700BF3C0DFF1FD10CFF1FFC0CFF1FFF
:1016D000CC0CFF1F084A094B12781B78DBB29A42E8
:1016E00007D00133402B28BF0023054AD05CC0B28D
:1016F00070474FF0FF3070473C0DFF1FD10CFF1FAC
:10170000FC0CFF1F0D4B1B681B0516D530B40C4B92
:101710000C4CDA780C480D4902F0CB024025DA7007
:101720005D74DA7842F03402DA7023780268DBB252
:101730000B700AB10023137030BC70473480044032
:1017400000B00640D10CFF1FCC0CFF1F3C0DFF1F4B
:10175000F0B4384B1A7912F0300F2CD072B6997D54
:1017600001F0FF0200293DD062B6334F334938788B
:101770000D78334E1C46C0B2EDB2431C402BE179CC
:1017800028BF0023AB4202F1FF32C9B21CBFF154A3
:10179000184612F0FF02F0D12A4B1B68C2B23A7011
:1017A0004BB1A84236BFC5F14005401B4019272860
:1017B000C4BF01221A701F49CA78D2B2150616D4C6
:1017C00052060DD51B4B1B795B0609D51E4B1F49D5
:1017D0001B6800220A7003B11A70164B3C22DA70A3
:1017E000F0BC70474022D9795A7462B6E3E70B79AE
:1017F0001C06E5D5164B174E1C783378E4B2DBB2E5
:101800009C420ED0144D01E0A3420AD00133282B94
:1018100028BF00230879E85CC0B2C871087D07289A
:10182000F2D9DBB2034933700B79180644BF7C232D
:10183000CB70C5E700B006403C0DFF1FD10CFF1F69
:10184000FC0CFF1FCC0CFF1F400DFF1FD00CFF1F17
:10185000440DFF1F3D0DFF1FD40CFF1F2DE9F84F56
:10186000214B1B6807460BB101221A70DFF88890E4
:101870001E4D99F80040DFF884801D4E0134272C5E
:101880008ABF4FF0000A5FFA84FA5446AB462B78C1
:10189000A34216D102F0FCFE40281FDC33791B0660
:1018A000F5D59BF800300133272B86BF0022134665
:1018B000DAB218F80330DBB2F3712A702B78A34246
:1018C000E8D00C490A4BFFB208F804700120AC22A2
:1018D000087089F800A0DA70BDE8F88FFF28D6DD1F
:1018E000FEF748FED3E700BFBC0DFF1FB90DFF1F79
:1018F00000C00640B80DFF1FC00DFF1F500DFF1F99
:10190000174A18491368F0B543F48053164C174D25
:10191000174FDFF874E01360164E174A0023237048
:101920008EF80030154C2B700B703B7040F2133763
:101930003760134D1349C0F344364FF45177276095
:101940001670C0F347142C2700F01F004026547077
:101950009072082493701374D7702E700C60F0BDD1
:1019600034800440B90DFF1F4C0DFF1FC00DFF1F39
:10197000B80DFF1F08C0044000C006400CC0044062
:1019800023E400E004E100E04D0DFF1F194B19496D
:101990009B7803F0EC0200F003031343420700F0CE
:1019A0000F0248BF43F01003042A8B701CD0114B68
:1019B000104A5B79C10603F0EF0348BF43F0100300
:1019C00053719379820603F0EF030A4A48BF43F04C
:1019D00010039371C30506D553781178DBB241F03B
:1019E00020011170537070478B7943F040038B7165
:1019F000DDE700BF00C00640F8B5114B1B68DB04F3
:101A00001CD5104C237823B1FEF7B4FD2378002BAE
:101A1000FAD10D4B0D4F0E4E0E4D0F4C0F48104985
:101A200008221A600023FB7040F2031232602A6021
:101A3000226803700B7012B101231370F8BDF8BD5A
:101A400034800440B80DFF1F84E100E000C0064070
:101A500008C004400CC00440480DFF1F4C0DFF1F80
:101A60004D0DFF1F0A4A38B50546137803F0FF04F1
:101A7000002BFAD101212846FEF73EFE21462846DA
:101A8000FEF734FE034A044B52F835201A6038BD85
:101A9000B80DFF1F484A0000BC0DFF1F09B140F000
:101AA0008000104A137898421AD010B40E4C246863
:101AB000E40412D503F07F03082B02D10B4B002462
:101AC0001C60002900F07F0314BF60214421082B13
:101AD00003D1064B41F44071196010705DF8044B5E
:101AE000704700BF3307FF1F348004400CC0044020
:101AF000704700BF0D4B1B6813F4805305D03F287F
:101B000005D90B4B00201860704718467047094BE9
:101B100010B5074C53F8303023600121FEF7ECFD7F
:101B2000236800221A70012010BD00BF34800440D9
:101B3000480DFF1F484A00000C4B1B6813F48053EC
:101B400006D00E2806D00A4A537B03F0FE035373D7
:101B500000207047074B064A40F202311960537B60
:101B600043F0010353730120704700BF34800440E9
:101B700000C0064004C00440034B1B68DB0401D5D1
:101B8000FFF76CBE704700BF3480044070B5094E4B
:101B900004464518AC4204F101040AD03368DB0462
:101BA000F8D514F8010CFFF759FEAC4204F101041A
:101BB000F4D170BD3480044010B5044C237823B1B7
:101BC000FEF7D8FC2378002BFAD110BDB80DFF1F0B
:101BD000064A074B1B781078DBB2C0B283422CBF99
:101BE000273000F1FF30C01A704700BFB90DFF1F4A
:101BF000C00DFF1F054A064B10781B78C0B2DBB240
:101C0000984238BF4030C01A704700BF4C0DFF1FCC
:101C10004D0DFF1F30B4154B154C1A782378D2B2F6
:101C2000DBB29A421ED001333F2B0ED91149124B21
:101C3000087819680023C0B2237021B1D31A1A2B77
:101C400001DC00230B7030BC70470A480A49C05CB5
:101C50000968DDB2C0B225700029F4D09A4238BFBD
:101C60004032EBE74FF0FF30EDE700BF4C0DFF1FB8
:101C70004D0DFF1F780DFF1F480DFF1F084A094B30
:101C800012781B78DBB29A4207D00133402B28BF71
:101C90000023054AD05CC0B270474FF0FF30704758
:101CA0004C0DFF1F4D0DFF1F780DFF1F054B064A02
:101CB0001B7806491268DBB20B700AB1002313705F
:101CC000704700BF4D0DFF1F480DFF1F4C0DFF1F3C
:101CD00030B42B4B1A7994061FD52A48DA79037849
:101CE000294901333F2B0978C8BF00238B42D2B268
:101CF00003D0264CD9B2E2540170254A116861B173
:101D0000244A1278D2B2934236BFC2F140029B1AE3
:101D10009B18272BC4BF01230B70194AD378DBB261
:101D2000180611D45A060DD5154B1B795B0609D53B
:101D3000194B1A491B6800220A7003B11A70104B24
:101D40002C22DA7030BC704711790906EAD51449A3
:101D500010480C780178C9B28C420DD04A1C272A51
:101D600084BF00210A460F4D054C98BFD1B2AA5C32
:101D7000D2B2E2710170D5E76C21D170D2E700BF19
:101D800000C006404C0DFF1F4D0DFF1F780DFF1FBB
:101D9000480DFF1FB90DFF1FBC0DFF1FB80DFF1F22
:101DA000C00DFF1F500DFF1F2DE9F84F214B1B6881
:101DB00007460BB101221A70DFF888901E4D99F882
:101DC0000040DFF884801D4E0134272C8ABF4FF07D
:101DD000000A5FFA84FA5446AB462B78A34216D128
:101DE00002F056FC40281FDC33791B06F5D59BF822
:101DF00000300133272B86BF00221346DAB218F8D1
:101E00000330DBB2F3712A702B78A342E8D00C497F
:101E10000A4BFFB208F804700120AC22087089F860
:101E200000A0DA70BDE8F88FFF28D6DDFEF7A2FB30
:101E3000D3E700BF380EFF1F350EFF1F00D006404E
:101E4000340EFF1F3C0EFF1FCC0DFF1F244A2549F7
:101E50001368F0B443F4005313600A78224F234E02
:101E6000234D244C244900231F2A3B7033702B70D0
:101E700023700B702FD03F2A20D0204B1B78202BB3
:101E800024D03E2B03D11E4B4FF451721A601D4BD0
:101E90001D4D1E49C0F344361E70C0F34714002286
:101EA0002C27402600F01F005C70987220249A7046
:101EB0001A74DF702E700C60F0BC7047144B40F247
:101EC00013321A600D4B1B78202BDAD1114B4FF4D3
:101ED00051721A60DBE7104B40F213321A60CCE704
:101EE000348004403407FF1FC80DFF1FC90DFF1FBA
:101EF0003C0EFF1F350EFF1F340EFF1F3507FF1F5F
:101F000010D0044000D0064025E400E004E100E0E9
:101F100014D004402CA0044028A00440194B1949B7
:101F20009B7803F0EC0200F003031343420700F038
:101F30000F0248BF43F01003042A8B701CD0114BD2
:101F4000104A5B79C10603F0EF0348BF43F010036A
:101F500053719379820603F0EF030A4A48BF43F0B6
:101F600010039371C30506D553781178DBB241F0A5
:101F700020011170537070478B7943F040038B71CF
:101F8000DDE700BF00D00640204B1B689B043BD51B
:101F900010B51F4C237823B1FEF7ECFA2378002B01
:101FA000FAD11C481C491D4B202400220460CA7031
:101FB0001B781F2B19D03F2B01D1194B1A60194BDD
:101FC0001B7803F07F03202B19D03E2B02D1164B38
:101FD00000221A60154B164816491A680023037030
:101FE0000B700AB10123137010BD134B40F20312A2
:101FF0001A600C4B1B7803F07F03202BE5D10F4BAD
:1020000040F203121A60E5E7704700BF34800440D5
:10201000340EFF1F84E100E000D006403407FF1FAC
:1020200014D004403507FF1F10D00440C40DFF1F1B
:10203000C80DFF1FC90DFF1F28A004402CA004409D
:102040000A4A38B50546137803F0FF04002BFAD18D
:1020500001212846FEF750FB21462846FEF746FBA5
:10206000034A044B52F835201A6038BD340EFF1F66
:10207000484A0000380EFF1F09B140F08000174A9F
:102080001378984217D010B4154C2468A4040FD5C7
:1020900003F07F03202B1DD03E2B12D0002900F02F
:1020A0007F0114BF6023442320290ED03E2903D092
:1020B00010705DF8044B70470A4943F440730B609D
:1020C000F6E7084B00241C60E8E7074943F4407337
:1020D0000B60EDE7044B00241C60DFE73507FF1FB2
:1020E0003480044010D004402CA00440124B1A78D5
:1020F00082420CD011490968890407D51F2A16D0DD
:102100003F2A0AD01F280DD03F2801D018707047F1
:102110000B4A40F213311160F8E7094A00211F28E9
:102120001160F1D1074A40F213311160EEE7054A20
:1021300000211160E6E700BF3407FF1F3480044030
:1021400014D0044028A004400D4B1B6813F4005326
:1021500005D03F2805D90B4B002018607047184662
:102160007047094B10B5074C53F8303023600121FC
:10217000FEF7C2FA236800221A70012010BD00BFCA
:1021800034800440C40DFF1F484A000000207047FF
:10219000034B1B689B0401D5FFF706BE704700BFC9
:1021A0003480044070B5094E04464518AC4204F131
:1021B00001040AD033689B04F8D514F8010CFFF72A
:1021C000F3FDAC4204F10104F4D170BD348004404D
:1021D00010B5044C237823B1FEF7CCF92378002BFB
:1021E000FAD110BD340EFF1F064A074B1B7810783A
:1021F000DBB2C0B283422CBF273000F1FF30C01ADF
:10220000704700BF350EFF1F3C0EFF1F054A064BEF
:1022100010781B78C0B2DBB2984238BF4030C01A89
:10222000704700BFC80DFF1FC90DFF1F30B4154B0D
:10223000154C1A782378D2B2DBB29A421ED0013301
:102240003F2B0ED91149124B087819680023C0B2F0
:10225000237021B1D31A1A2B01DC00230B7030BC80
:1022600070470A480A49C05C0968DDB2C0B22570EF
:102270000029F4D09A4238BF4032EBE74FF0FF30EC
:10228000EDE700BFC80DFF1FC90DFF1FF40DFF1FB5
:10229000C40DFF1F084A094B12781B78DBB29A4223
:1022A00007D00133402B28BF0023054AD05CC0B2C1
:1022B00070474FF0FF307047C80DFF1FC90DFF1F5B
:1022C000F40DFF1F054B064A1B7806491268DBB266
:1022D0000B700AB100231370704700BFC90DFF1FB8
:1022E000C40DFF1FC80DFF1F30B42B4B1A79940685
:1022F0001FD52A48DA790378294901333F2B097819
:10230000C8BF00238B42D2B203D0264CD9B2E254CC
:102310000170254A116861B1244A1278D2B2934201
:1023200036BFC2F140029B1A9B18272BC4BF012362
:102330000B70194AD378DBB2180611D45A060DD5A2
:10234000154B1B795B0609D5194B1A491B680022EE
:102350000A7003B11A70104B2C22DA7030BC70472F
:1023600011790906EAD5144910480C780178C9B2E8
:102370008C420DD04A1C272A84BF00210A460F4DEB
:10238000054C98BFD1B2AA5CD2B2E2710170D5E718
:102390006C21D170D2E700BF00D00640C80DFF1FEE
:1023A000C90DFF1FF40DFF1FC40DFF1F350EFF1FCA
:1023B000380EFF1F340EFF1F3C0EFF1FCC0DFF1FFA
:1023C0002DE9F84F214B1B6807460BB101221A700B
:1023D000DFF888901E4D99F80040DFF884801D4E8C
:1023E0000134272C8ABF4FF0000A5FFA84FA544662
:1023F000AB462B78A34216D102F04AF940281FDCE5
:1024000033791B06F5D59BF800300133272B86BFA7
:1024100000221346DAB218F80330DBB2F3712A70E7
:102420002B78A342E8D00C490A4BFFB208F804709D
:102430000120AC22087089F800A0DA70BDE8F88F9E
:10244000FF28D6DDFEF796F8D3E700BFB40EFF1FD6
:10245000B10EFF1F00A00E40B00EFF1FB80EFF1FF1
:10246000480EFF1F174A18491368F0B543F48063FC
:10247000164C174D174FDFF874E01360164E174ACD
:10248000002323708EF80030154C2B700B703B70BE
:1024900040F213373760134D1349C0F344364FF4FD
:1024A000517727601670C0F347142C2700F01F00E7
:1024B000402654709072042493701374D7702E7059
:1024C0000C60F0BD28800440B10EFF1F440EFF1FBA
:1024D000B80EFF1FB00EFF1F64D0044000A00E40D6
:1024E00060D0044042E400E008E100E0450EFF1F38
:1024F000194B19499B7803F0EC0200F003031343D6
:10250000420700F00F0248BF43F01003042A8B700B
:102510001CD0114B104A5B79C10603F0EF0348BF92
:1025200043F0100353719379820603F0EF030A4AD4
:1025300048BF43F010039371C30506D55378117853
:10254000DBB241F020011170537070478B7943F07A
:1025500040038B71DDE700BF00A00E40F8B5114BC2
:102560001B685B051CD5104C237823B1FEF702F8DD
:102570002378002BFAD10D4B0D4F0E4E0E4D0F4C04
:102580000F48104904221A600023FB7040F2031226
:1025900032602A60226803700B7012B1012313703D
:1025A000F8BDF8BD28800440B00EFF1F88E100E0B0
:1025B00000A00E4064D0044060D00440400EFF1FD5
:1025C000440EFF1F450EFF1F0A4A38B50546137813
:1025D00003F0FF04002BFAD101212846FEF78CF806
:1025E00021462846FEF782F8034A044B52F835206C
:1025F0001A6038BDB00EFF1F484A0000B40EFF1F1E
:1026000009B140F08000104A137898421AD010B4F3
:102610000E4C2468640512D503F07F03212B02D1F0
:102620000B4B00241C60002900F07F0314BF6021C5
:102630004421212B03D1064B41F4407119601070E5
:102640005DF8044B704700BF3607FF1F2880044029
:1026500060D00440704700BF0D4B1B6813F48063CB
:1026600005D03F2805D90B4B00201860704718464D
:102670007047094B10B5074C53F8303023600121E7
:10268000FEF73AF8236800221A70012010BD00BF3F
:1026900028800440400EFF1F484A00000C4B1B6876
:1026A00013F4806306D0182806D00A4A537B03F03F
:1026B000FE03537300207047074B064A40F2023175
:1026C0001960537B43F0010353730120704700BF2F
:1026D0002880044000A00E4068D00440034B1B68D3
:1026E0005B0501D5FFF76CBE704700BF2880044032
:1026F00070B5094E04464518AC4204F101040AD0F5
:1027000033685B05F8D514F8010CFFF759FEAC42AD
:1027100004F10104F4D170BD2880044010B5044CCC
:10272000237823B1FDF726FF2378002BFAD110BDC3
:10273000B00EFF1F064A074B1B781078DBB2C0B201
:1027400083422CBF273000F1FF30C01A704700BF12
:10275000B10EFF1FB80EFF1F054A064B10781B78FD
:10276000C0B2DBB2984238BF4030C01A704700BFD9
:10277000440EFF1F450EFF1F30B4154B154C1A7841
:102780002378D2B2DBB29A421ED001333F2B0ED94E
:102790001149124B087819680023C0B2237021B187
:1027A000D31A1A2B01DC00230B7030BC70470A4887
:1027B0000A49C05C0968DDB2C0B225700029F4D0B6
:1027C0009A4238BF4032EBE74FF0FF30EDE700BFF1
:1027D000440EFF1F450EFF1F700EFF1F400EFF1F10
:1027E000084A094B12781B78DBB29A4207D00133B2
:1027F000402B28BF0023054AD05CC0B270474FF081
:10280000FF307047440EFF1F450EFF1F700EFF1F65
:10281000054B064A1B7806491268DBB20B700AB1F9
:1028200000231370704700BF450EFF1F400EFF1FAF
:10283000440EFF1F30B42B4B1A7994061FD52A483B
:10284000DA790378294901333F2B0978C8BF00237F
:102850008B42D2B203D0264CD9B2E2540170254A41
:10286000116861B1244A1278D2B2934236BFC2F1E4
:1028700040029B1A9B18272BC4BF01230B70194AD7
:10288000D378DBB2180611D45A060DD5154B1B7937
:102890005B0609D5194B1A491B6800220A7003B15F
:1028A0001A70104B2C22DA7030BC7047117909066F
:1028B000EAD5144910480C780178C9B28C420DD081
:1028C0004A1C272A84BF00210A460F4D054C98BF99
:1028D000D1B2AA5CD2B2E2710170D5E76C21D1709D
:1028E000D2E700BF00A00E40440EFF1F450EFF1FA1
:1028F000700EFF1F400EFF1FB10EFF1FB40EFF1F13
:10290000B00EFF1FB80EFF1F480EFF1F2DE9F84F36
:10291000204B1B6880460BB101221A70DFF88CA097
:102920001D4D9AF800401D4F1D4E0134272C8ABFC3
:102930004FF0000B5FFA84FB5C46A9462B78A3425C
:1029400015D101F0A5FE40281EDC73681B02F5D5E9
:1029500099F800300133272B86BF00221346DAB2E4
:10296000FB5CDBB2F3602A702B78A342E9D00D49FF
:102970000D4A5FFA88F807F8048001230B708AF883
:1029800000B01360BDE8F88FFF28D7DDFDF7F2FD3A
:10299000D4E700BF300FFF1F2D0FFF1FC40EFF1F16
:1029A00000400C402C0FFF1F5C018843340FFF1FB9
:1029B0004D4A4E49136843F010032DE9F04113606E
:1029C0000F6807F44033B3F5403F00F08680484F6E
:1029D000484AB3F5803F18BF17468600B7FBF6FCA0
:1029E0001FFA8CFCBCF1000F69D04FEA8C0EB7FBCC
:1029F000FEFEBEEB000E64D1064405214FF0040834
:102A000008E0002B6BD188469E469446013121296F
:102A100006441AD0B7FBF6F292B2541CA4B201FBE2
:102A200002F301FB04F582B1B7FBF3F31B1A734504
:102A3000E7D9B7FBF5F5451B7545E7D88846013161
:102A40002129AE46A4460644E4D108F1FF331B0613
:102A5000CCF30C0C03F0F853274A2449274D284C9B
:102A60002848DFF8B8E0284F284E43EA0C03B8F1B5
:102A7000070F98BF43F4003313600B68DFF8A0C062
:102A800043F080630B6000238CF8003040F2445127
:102A90002B7040F213558EF800303B703370256078
:102AA00001609360136153609368194C194943F4B2
:102AB000301340254FF48000936025700860BDE816
:102AC000F0810CF101029300B7FBF3F3C31A9E45AA
:102AD00084BF1FFA82FC9E468EE70F4F7DE79E461D
:102AE00094468846A5E700BF2C800440048004403B
:102AF0000095BA0A40A5AE0200400C40C10EFF1F6F
:102B000020C0044024C004402D0FFF1F2C0FFF1FC6
:102B100056E400E008E100E0006CDC02340FFF1F27
:102B2000C00EFF1F1B4B1B499B6800F0030223F0E4
:102B300013031343420700F00F0248BF43F0100392
:102B4000042A8B6020D0030704D5124A136843F08F
:102B5000005313600F4B0F4A5B68C10623F080538C
:102B600048BF43F0805353609368820623F080533C
:102B7000084A48BF43F080539360C30503D51368E8
:102B800043F40053136070478B6843F080438B60BD
:102B9000D9E700BF00400C40F8B5124B1B68DB06BC
:102BA0001DD5114C237823B1FDF7E4FC2378002BCD
:102BB000FAD10E4B0E4F0F4E0F4D104C10481149CD
:102BC0004FF480021A60002340F20312BB603260AF
:102BD0002A60226803700B7012B101231370F8BDD4
:102BE000F8BD00BF2C8004402C0FFF1F88E100E0DF
:102BF00000400C4020C0044024C00440BC0EFF1F15
:102C0000C00EFF1FC10EFF1F0A4A38B505461378D4
:102C100003F0FF04002BFAD101212846FDF76CFDDB
:102C200021462846FDF762FD034A044B52F8352041
:102C30001A6038BD2C0FFF1F484A0000300FFF1FDD
:102C400009B140F08000104A137898421AD010B4AD
:102C50000E4C2468E40612D503F07F03302B02D11A
:102C60000B4B00241C60002900F07F0314BF60217F
:102C70004421302B03D1064B41F4A0611960107040
:102C80005DF8044B704700BF3707FF1F2C800440DE
:102C900024C00440704700BF0D4B1B6813F01003A5
:102CA00005D03F2805D90B4B002018607047184607
:102CB0007047094B10B5074C53F8303023600121A1
:102CC000FDF71AFD236800221A70012010BD00BF15
:102CD0002C800440BC0EFF1F484A00000C4B1B68B0
:102CE00013F0100306D0382806D00A4A537B03F0AD
:102CF000FE03537300207047074B064A40F202510F
:102D00001960537B43F0010353730120704700BFE8
:102D10002C80044000B00E4028D00440034B1B68B8
:102D2000DB0601D5FFF7F2BD704700BF2C800440E1
:102D300070B5094E04464518AC4204F101040AD0AE
:102D40003368DB06F8D514F8010CFFF7DFFDAC4261
:102D500004F10104F4D170BD2C80044010B5044C82
:102D6000237823B1FDF706FC2378002BFAD110BDA0
:102D70002C0FFF1F064A074B1B781078DBB2C0B23E
:102D800083422CBF273000F1FF30C01A704700BFCC
:102D90002D0FFF1F340FFF1F054A064B10781B78BD
:102DA000C0B2DBB2984238BF4030C01A704700BF93
:102DB000C00EFF1FC10EFF1F30B4154B154C1A7803
:102DC0002378D2B2DBB29A421ED001333F2B0ED908
:102DD0001149124B087819680023C0B2237021B141
:102DE000D31A1A2B01DC00230B7030BC70470A4841
:102DF0000A49C05C0968DDB2C0B225700029F4D070
:102E00009A4238BF4032EBE74FF0FF30EDE700BFAA
:102E1000C00EFF1FC10EFF1FEC0EFF1FBC0EFF1FD9
:102E2000084A094B12781B78DBB29A4207D001336B
:102E3000402B28BF0023054AD05CC0B270474FF03A
:102E4000FF307047C00EFF1FC10EFF1FEC0EFF1FAB
:102E5000054B064A1B7806491268DBB20B700AB1B3
:102E600000231370704700BFC10EFF1FBC0EFF1F71
:102E7000C00EFF1F30B42C4B5A6894021FD52B484C
:102E8000DA6803782A4901333F2B0978C8BF002349
:102E90008B4204D0274CD2B2D9B2E2540170264AF8
:102EA000116861B1254A1278D2B2934236BFC2F19D
:102EB00040029B1A9B18272BC4BF01230B701A4A90
:102EC0009368180202D55268110211D45A020DD526
:102ED000154B5B685B0209D5194B1A491B68002228
:102EE0000A7003B11A70184B00221A6030BC704788
:102EF000164A124910780A78D2B290420DD00132A7
:102F0000272A84BF00200246114D074C98BFD0B23B
:102F1000AA5CD2B2E2600870D8E70E480A4A0024E0
:102F2000012104601160D1E700400C40C00EFF1F7A
:102F3000C10EFF1FEC0EFF1FBC0EFF1F2D0FFF1F4A
:102F4000300FFF1F2C0FFF1F58018843340FFF1F46
:102F5000C40EFF1F5C018843431E032B14D872B6B6
:102F60000A4951F8230068B170B4094C058834F857
:102F70001320466841F82360521B24F8132062B6E0
:102F800070BC704762B6704700207047900FFF1FFB
:102F9000A810FF1F013803280BD872B6074B53F84F
:102FA000203043B100205B680130002BFBD162B6BA
:102FB0007047002070471846F9E700BFE40FFF1F75
:102FC000F0B472B61A491B4E012311F8014B194F88
:102FD0009A00240742F0010505D556F8324064B145
:102FE00056F83520BAB10133052BEED162B6124B3B
:102FF00000221A70F0BC00F019BD0F4C0F4D217863
:1030000047F8325007EB431308304A1E58602270CD
:1030100062B6F0BC70470849094B0A7847F835306A
:1030200007EBC5030830013A58600A7062B6F0E752
:10303000AC4E00000000FF1F0D10FF1F8800400075
:10304000C8004000431E032B1DD81B4A400140F01E
:10305000100030B4104472B6184CE25C032A1BD83E
:10306000DFE802F00212151703220D88E25410F077
:10307000080F14BFC823882343EA054308310360BF
:10308000416062B630BC704708300222EDE705228D
:10309000EBE708300422E8E7094A52F8230038B188
:1030A000084A52F82300416042F8231062B6E9E76B
:1030B00042F82310034AF7E70000FF1F1C10FF1F10
:1030C000E40FFF1FF40FFF1F2DE9F04FDFF800A3FF
:1030D000DFF800B387B044E0A84F4FEA930807EB4E
:1030E000C809013ED9F8042003F00803F6B2A2F1A2
:1030F000080003F0FF04002B40F0FC8057F8383044
:103100001B0C99B222F8081C002B00F0EA809C4BA3
:1031100022F8064C42F8044C53F82620002A00F00E
:103120002982984D55F826305860974C45F826006E
:1031300034F81630194424F8161000F057FC002813
:1031400000F01182914A924B19F0080F00F108002B
:1031500018BF1346C9F8040047F8383008238AF826
:1031600000309AF80040E4B260071AD5894B1B780A
:10317000A3B189490A7802F0FF0322B1013BDBB217
:103180000B7003B900BE85490A7802F0FF032AB12B
:10319000013BDBB20B70002B00F0BB8104238AF8EB
:1031A000003004F0080303F0FF02002B00F0C6809B
:1031B0009BF80030DBB21E098ED19C086F4F57F888
:1031C000342007EBC401C2F38302013A49680C2A98
:1031D00000F28380DFE802F077778181818181814D
:1031E00040818181070008686D4B6E4D0193674BEC
:1031F0004A686D4E47F8343081B240F28164684BC2
:103200006A60286000220120A1421A603A61BA6116
:10321000307000F2E180B1F5D06F80F02582B1F519
:10322000817F00F0DE8100F2C181802900F03482CC
:10323000822940F0DC81A9885C4B042900F2D88106
:103240005B4C89000B44227062701A78930740F13E
:1032500022832070022023E2514B01931A683AB373
:10326000544B514E5449188834780D78402886467E
:1032700045F0020828BF4FF0400E002C84F00104F6
:103280003470CEEB00000CBF8824C82407EBC806BE
:1032900080B285F0010544EA0E447260188047F858
:1032A000384072440D70002800F0B780019B1A600E
:1032B0003C4B1A88B2F5A06F0FD100219A78597053
:1032C0003E4B1A7009E0374A108842F221029042C0
:1032D00000F0A8802D4A47F83420394A01231370A2
:1032E0003CE72A4A2A4B19F0080F18BF134647F843
:1032F000383033E700F09AFB324A334952F826302F
:10330000002B00F03B8158688C5D42F8260003F1E9
:103310000802C9F80420032C05D8DFE804F02C02C9
:10332000292602228A551A8819F0080F0CBF882313
:10333000C82343EA024347F838300FE7E00700F1BB
:10334000EB80210600F12881A20706D51F4A2049FB
:1033500013780220DBB213700870E30602D51C4B11
:1033600010221A7007B0BDE8F08F04228A55DAE700
:1033700005228A55D7E703228A55D4E70000FF1FAC
:10338000900FFF1F3C0FFF1FA810FF1FC800400039
:10339000880040001810FF1FA10FFF1F2010FF1F03
:1033A000380FFF1F0410FF1FA00FFF1FC020074092
:1033B0001010FF1F4C0FFF1F0C10FF1F982007401D
:1033C00094200740E40FFF1F1C10FF1F88200740B8
:1033D000802007409020074042F22104A14200F0E3
:1033E000948043D8B1F5086F00F0A881B1F5106F53
:1033F00040F0FD80B84AB94CA978117004F18005FD
:1034000003E00834AC4200F09E81236A1906F8D527
:10341000606A083800F00AFBF3E7BEF1400F18BFFE
:10342000002243E7AE4ACD1D11F8013B02F8013FEF
:10343000A942F9D1AB4A1268862A00F01181AA4943
:10344000AA4E0A78307882F00105002842F0020284
:103450000D700CBF8821C82147F8321007EBC2025B
:1034600080F0010000213070516033E742F22124E6
:10347000A14240F0FE81DFF8BCC29D4B9D49AC7873
:10348000DCF800501D6081460C70002002908046E0
:103490008446044694490D7845F0020E07EBCE03AE
:1034A000B9F1000F5C600CBF8824C82444EA08030B
:1034B00085F0010447F83E3032700C70DFF81CE2F2
:1034C0008A4BDFF82482002840F09880BCF1400F3E
:1034D0001BD144F0020407EBC403029FDFF8FCE1B8
:1034E0005F60002A40F09F80020442F08802074497
:1034F0004EF8342086F800900D703B46402804D1E9
:1035000000207D4A019910800B607C4A01231370D2
:10351000E3E600F0D3FB41E6704B784872491A614C
:103520004FF0020E80F800E0754F0A70754919607F
:103530009960754E754D764C9A610D213970FF2159
:103540003170DFF8F4E129702270724D724A8EF802
:1035500000109F27012406F8047C5D600470DA6087
:1035600007B0BDE8F08F6D4A47F838001378013393
:103570001370F3E543F82600694DD6E58B5D032B08
:1035800067D801A252F823F05D3100005D310000E0
:10359000DD350000D735000059495C4B80220D20F5
:1035A00008701A70A2077FF5D8AECFE640F202325B
:1035B000914240F05681A98801F07F01042916D874
:1035C0006A88A2B94E4C89000C448146217841F0AA
:1035D0000201217059E701238B55BFE500238B556C
:1035E000BCE5A98801F07F01042940F24781444BE2
:1035F0000F221A70414A012313706EE640287FF6AD
:1036000068AF44F002040EEBC401029E4E60AAB102
:10361000444A83F800903346403888F800504033DD
:103620004EF834206DE70204029B86F8009042F0C9
:10363000C8020D7003444EF834205FE783F8009011
:10364000029B304A88F80050403840334EF834200E
:1036500057E719F0080F0CBF022303238B557DE5B4
:10366000314A0F211170EAE6304A5468002CBED06E
:103670006888B5F804E003E00C325468002CB6D03A
:1036800013888342F8D153887345F5D1000A032883
:103690000CBF2078108903E0254C02202270627054
:1036A000EA88824280F00C810F490D78402A45F06B
:1036B000020E944607EBCE0028BF4FF0400C04EBFF
:1036C0000C0344600293CCEB02004FEA0C484FF02D
:1036D00001090022C824E9E61810FF1F0000FF1F9F
:1036E000AF10FF1FB010FF1F0C10FF1FA00FFF1F18
:1036F000B810FF1F3010FF1F4C0FFF1F9420074012
:10370000C0200740880040008820074080200740F4
:1037100098200740500FFF1FA40FFF1F0D10FF1F21
:103720003C0FFF1FC8004000A10FFF1FB04E00005C
:103730001010FF1F300CFF1F8C200740684A694C97
:1037400012782270ACE76849684B694A029169496E
:10375000694C6A4D039405964FF0000988461C4653
:1037600016460495206828B1456800F05FF92846A0
:10377000002DF9D100232360049B30681A460023F2
:1037800042F8293028B1456800F050F92846002D4C
:10379000F9D100223260029A98F8003011460022D6
:1037A00041F8042B039A0291023B4FF0000122F8EA
:1037B0001910032B07D8DFE803F0340234024FF06E
:1037C000010388F8003009F10109B9F1040F04F18F
:1037D000040406F1040608F10108C3D1484B059E14
:1037E000DFF83091DFF8308100211970012518F8D9
:1037F000013B09F8043B1A0718D4AC0044F002025C
:1038000044F00304002347F8323047F834303D4B8E
:10381000994505F10105EAD196F8009089F0010279
:1038200033E64FF0000388F80030CCE700F0DEF814
:10383000AC0007EB451300F10802002837D05A60AE
:10384000314B47F8343000F0D1F844F0010307EB76
:10385000C30200F1080100B351602C4A47F833203D
:10386000CCE7B1F5A06F7FF4C2AE00224FF00109A2
:103870000BE642F221329142F7D0B8E66A88002A7C
:103880007FF4B5AE224C89000C448146217821F0AA
:1038900002012170F9E5022002E7194B44F0010210
:1038A0001B7847F83200164A01331370A6E7144B11
:1038B000134A1B78AC00013347F834001370C2E799
:1038C0004028844628BF4FF0400C04EB0C03CCEB9F
:1038D00000004FEA0C48029300224FF00109D9E59D
:1038E0001810FF1F1010FF1FF40FFF1F900FFF1F76
:1038F000E40FFF1F1C10FF1FA810FF1F3C0FFF1F2E
:103900000D10FF1FD420074088004000C800400071
:10391000C0200740C4200740AC4E00002DE9F04114
:10392000274C00F007FF002204F1880023461A60AC
:103930005A60083383424FF00001F8D12148224AEF
:103940000368DFF89CE0214E214D224FDFF894C040
:10395000DFF8948043F480230360136843F04073DE
:10396000136003238EF80030A023337002F5C922C0
:10397000C4F3072300F528302B708030C4F30743CD
:1039800010323B70240EFF230470134D8CF800306E
:10399000124888F800301370012306F8AC3C4FF44D
:1039A00000140EF8441C7026102107F82C3C2E70D1
:1039B000046082F8F810AEF1440EBDE8F08100BF5B
:1039C0000000FF1F3480044000D800404021074021
:1039D0009C200740B020074035E400E004E100E00F
:1039E00044210740802007408820074072B60D48D8
:1039F0000268B2FA82F30B2B10DC4FF00041D94081
:103A000022EA0102026062B6074803EBC303DB004F
:103A1000C2180021C15010465160704762B60020A4
:103A2000704700BF3807FF1FD003FF1F0D4B0E4A22
:103A3000C31AA2FB03231B090B2B0CD80B4A1278C9
:103A400052B972B60A484FF00041026821FA03F3F6
:103A50001A43026062B67047064A1278002AF0D014
:103A6000FFF7AEBAD003FF1F398EE3380D10FF1FEA
:103A70003807FF1F1810FF1F38B50F4D286878B1A1
:103A800043880288C118013393420C7A02D24380E2
:103A9000204638BDFFF7CAFF002320462B6038BD03
:103AA000064B1B782BB10320FFF756FA286000283D
:103AB000E6D14FF0FF3038BD2C10FF1F1810FF1F4C
:103AC00010B5094C206818B143881844007A10BD1D
:103AD000064B1B782BB10320FFF73EFA206000282D
:103AE000F2D14FF0FF3010BD2C10FF1F1810FF1F38
:103AF000044B054A1B6890881BB11A885B88D31A4F
:103B0000184470472C10FF1FA810FF1F0B4B1B7889
:103B10009BB110B50A4C206848B1FFF787FF00231E
:103B200003202360FFF718FA30B1FFF77FFF03206F
:103B3000FFF712FA0028F8D110BD70471810FF1FC8
:103B40002C10FF1F2DE9F04FDFF8F89083B0012211
:103B500089F80020019169B3DFF8EC80354F019EB0
:103B60008346D8F80000B0B3334D4488C4F1400117
:103B7000B14228BF314604EB010E00221FFA8EFE2F
:103B80002A70761AA0F802E000F1080251B1013C57
:103B9000224459441BF8014B02F8014F8B45F9D1DF
:103BA000B0F802E0BEF13F0F0BD8244A0521117096
:103BB000002ED6D10198002389F8003003B0BDE86B
:103BC000F08F4022028001460420FFF73BFA0022DA
:103BD000C8F80020E9E73A7822B3194C164D4FF0A7
:103BE000010A07E0013C16D02A78A2B9FCF7C2FC12
:103BF0003A78BAB10420FFF7CDF90728F2D889F84E
:103C000000A0FFF7F3FEC8F800000028ADD10D4B6F
:103C1000013C1870E8D101234FF0FF302B7003B046
:103C2000BDE8F08F00234FF0FF3089F8003003B07B
:103C3000BDE8F08F1810FF1F2810FF1F2010FF1F76
:103C4000214801002110FF1F2410FF1F00B583B081
:103C500002AB012103F8010D1846FFF773FF03B013
:103C60005DF804FBF8B5114B1B788BB1104E114D6C
:103C7000346801272F7064B10F4A638800271770DA
:103C8000214623800420FFF7DDF9376000232B70E5
:103C9000F8BDFFF7ABFE084B28B1014604201C70AD
:103CA000FFF7D0F9F2E71F70F0E700BF1810FF1F11
:103CB0002410FF1F2110FF1F2010FF1F38B50E4BCF
:103CC0001B7873B90D4C216861B103F0FF054B8877
:103CD0000B800420FFF7B6F9256038BD084B0122A0
:103CE0001A7038BDFFF782FE0028F7D00146BDE804
:103CF00038400420FFF7A6B92110FF1F2410FF1F32
:103D00002010FF1F0368C9B21B6818470368C9B2B7
:103D10001B6818470368C9B21B6818470368C9B213
:103D20001B68184708B50846FDF756F8012008BD7E
:103D300008B50846FDF750F8012008BD38B508461B
:103D40000D4600F09DFD044601462846FDF74EF85D
:103D5000204638BD10B5084614461146FDF746F812
:103D6000204610BDFDF7B2B8FDF71EB908B50846EC
:103D7000FDF70AF8003018BF012008BD08B5084655
:103D8000FCF7E0FF003018BF012008BD08461146CF
:103D9000FCF754BF0846FCF79BBF00BF0846FCF782
:103DA00031BF00BFFCF7BEBE034B03EB5100B0FBBD
:103DB000F1F0FCF701BE00BF002A751510B5064BE7
:103DC000144603EB5100B0FBF1F0FCF7F5FD204683
:103DD000BDE81040FCF770BE002A7515FDF76AB803
:103DE000FDF7CAB8FDF794B8FDF782B8704700BF79
:103DF000044B054A1A604FF47A71002299601A71D7
:103E00001A7370473410FF1F504C000008B5084665
:103E1000FDF742FB012008BD08B50846FDF73CFB55
:103E2000012008BD38B508460D4600F029FD0446BE
:103E300001462846FDF788FB204638BD10B50846E8
:103E400014461146FDF780FB204610BDFDF7ECBB84
:103E5000FDF758BC08B50846FDF7F6FA003018BF64
:103E6000012008BD08B50846FDF7CCFA003018BFA0
:103E7000012008BD08461146FDF75CBA0846FDF76B
:103E800093BA00BF0846FDF739BA00BFFDF7DAB9AB
:103E9000034B03EB5100B0FBF1F0FDF731B900BF6C
:103EA000002A751510B5064B144603EB5100B0FB04
:103EB000F1F0FDF725F92046BDE81040FDF78CB97B
:103EC000002A7515FDF7A4BBFDF704BCFDF7CEBBBA
:103ED000FDF7BCBB0368064A1B68934205D110B5C9
:103EE000C8B2FDF7D9FA012010BDC9B2184700BF0A
:103EF000193E00000368064A1B68934205D110B5BD
:103F0000C8B2FDF7C9FA012010BDC9B2184700BFF9
:103F1000193E00000368064A1B68934205D110B59C
:103F2000C8B2FDF7B9FA012010BDC9B2184700BFE9
:103F3000193E00000368064A1B68934205D110B57C
:103F4000C8B2FDF7A9FA012010BDC9B2184700BFD9
:103F5000193E0000704700BF044B054A1A604FF439
:103F60007A71002299601A711A7370474410FF1F0A
:103F7000B04C000008B50846FDF7FEFD012008BD65
:103F800008B50846FDF7F8FD012008BD38B508461C
:103F90000D4600F075FC044601462846FDF7F6FD87
:103FA000204638BD10B5084614461146FDF7EEFD13
:103FB000204610BDFDF70CBEFDF778BE08B50846DB
:103FC000FDF7BAFD003018BF012008BD08B508464E
:103FD000FDF790FD003018BF012008BD08461146CE
:103FE000FDF75CBD0846FDF783BD00BF0846FDF741
:103FF00039BD00BFFDF700BD034B03EB5100B0FB23
:10400000F1F0FDF77DBC00BF000E270710B5064B91
:10401000144603EB5100B0FBF1F0FDF771FC2046B4
:10402000BDE81040FDF7B2BC000E2707FDF7C4BD88
:10403000FDF724BEFDF7EEBDFDF7DCBD0368064AC3
:104040001B68934205D110B5C8B2FDF795FD01205C
:1040500010BDC9B2184700BF813F00000368064A7F
:104060001B68934205D110B5C8B2FDF785FD01204C
:1040700010BDC9B2184700BF813F00000368064A5F
:104080001B68934205D110B5C8B2FDF775FD01203C
:1040900010BDC9B2184700BF813F00000368064A3F
:1040A0001B68934205D110B5C8B2FDF765FD01202C
:1040B00010BDC9B2184700BF813F0000704700BF64
:1040C000044B054A1A604FF47A71002299601A7104
:1040D0001A7370475410FF1F104D000008B50846B2
:1040E000FEF756F8012008BD08B50846FEF750F85F
:1040F000012008BD38B508460D4600F0C1FB044656
:1041000001462846FEF74EF8204638BD10B5084651
:1041100014461146FEF746F8204610BDFEF764B877
:10412000FEF7D0B808B50846FEF730F8003018BFE3
:10413000012008BD08B50846FEF706F8003018BF94
:10414000012008BD08461146FDF796BF0846FDF759
:10415000CDBF00BF0846FDF773BF00BFFDF714BF1A
:10416000034B03EB5100B0FBF1F0FDF76FBE00BF56
:10417000000E270710B5064B144603EB5100B0FBA9
:10418000F1F0FDF763FE2046BDE81040FDF7C6BE26
:10419000000E2707FEF71CB8FEF77CB8FEF746B8FE
:1041A000FEF734B80368064A1B68934205D110B580
:1041B000C8B2FDF7EDFF012010BDC9B2184700BF1E
:1041C000E94000000368064A1B68934205D110B518
:1041D000C8B2FDF7DDFF012010BDC9B2184700BF0E
:1041E000E94000000368064A1B68934205D110B5F8
:1041F000C8B2FDF7CDFF012010BDC9B2184700BFFE
:10420000E94000000368064A1B68934205D110B5D7
:10421000C8B2FDF7BDFF012010BDC9B2184700BFED
:10422000E9400000704700BF044B054A1A604FF494
:104230007A71002299601A711A7370476410FF1F17
:10424000704D000008B50846FEF748FA012008BD89
:1042500008B50846FEF742FA012008BD38B5084601
:104260000D4600F00DFB044601462846FEF740FAD5
:10427000204638BD10B5084614461146FEF738FAF8
:10428000204610BDFEF756BAFEF7C2BA08B508467A
:10429000FEF704FA003018BF012008BD08B5084633
:1042A000FEF7DAF9003018BF012008BD08461146B4
:1042B000FEF7A6B90846FEF7CDB900BF0846FEF7DF
:1042C00083B900BFFEF74AB9034B03EB5100B0FBC3
:1042D000F1F0FEF7C7B800BF000E270710B5064B78
:1042E000144603EB5100B0FBF1F0FEF7BBF820469B
:1042F000BDE81040FEF7FCB8000E2707FEF70EBA27
:10430000FEF76EBAFEF738BAFEF726BA0368064A19
:104310001B68934205D110B5C8B2FEF7DFF9012042
:1043200010BDC9B2184700BF514200000368064AD9
:104330001B68934205D110B5C8B2FEF7CFF9012032
:1043400010BDC9B2184700BF514200000368064AB9
:104350001B68934205D110B5C8B2FEF7BFF9012022
:1043600010BDC9B2184700BF514200000368064A99
:104370001B68934205D110B5C8B2FEF7AFF9012012
:1043800010BDC9B2184700BF51420000704700BFBE
:10439000044B054A1A604FF47A71002299601A7131
:1043A0001A7370477410FF1FD04D000008B50846FF
:1043B000FEF7B4FC012008BD08B50846FEF7AEFCC8
:1043C000012008BD38B508460D4600F059FA0446EC
:1043D00001462846FEF7ACFC204638BD10B508461D
:1043E00014461146FEF7A4FC204610BDFEF7C2BCE1
:1043F000FEF72EBD08B50846FEF770FC003018BF6A
:10440000012008BD08B50846FEF746FC003018BF7D
:10441000012008BD08461146FEF712BC0846FEF70B
:1044200039BC00BF0846FEF7EFBB00BFFEF7B4BBC8
:104430000846FEF7BDBA00BF10B508461446FEF7A1
:10444000B7FA2046BDE81040FEF76CBBFEF786BC0D
:10445000FEF7E6BCFEF7B0BCFEF79EBC0368064A5A
:104460001B68934205D110B5C8B2FEF757FC012076
:1044700010BDC9B2184700BFB94300000368064A1F
:104480001B68934205D110B5C8B2FEF747FC012066
:1044900010BDC9B2184700BFB94300000368064AFF
:1044A0001B68934205D110B5C8B2FEF737FC012056
:1044B00010BDC9B2184700BFB94300000368064ADF
:1044C0001B68934205D110B5C8B2FEF727FC012046
:1044D00010BDC9B2184700BFB9430000704700BF04
:1044E000044B054A1A604FF47A71002299601A71E0
:1044F0001A7370478410FF1F304E0000FFF706BB91
:10450000FFF7B0BBFFF7DCBAFFF7B6BAFFF7F0BAB8
:1045100008461146FFF716BB0846FFF797BB00BFDA
:10452000704700BF044B054A1A604FF47A710022AD
:1045300099601A711A7370479410FF1F904E000013
:1045400030B42948294A2A4B2A4D6024E1210470BD
:1045500011701B78284C082B30D00A2B274828498B
:1045600037D00C2B0CBF35225D2212232A6023602A
:1045700002600B60234B24491B78244ABBB1012302
:104580000B601360224B23491B78234A012B26D949
:10459000042B0FD9082B1ED9102B94BF86238723F9
:1045A0000B6013601D4B01221A7030BC70470B600A
:1045B0001360E7E784230B601360F3E700F58E20B8
:1045C0000F490830212213232A60236002600B6008
:1045D000D0E73922F7E785230B601360E2E78023F9
:1045E0000B601360DEE700BF00400740014007405A
:1045F0003C07FF1F08B003400CB0034008B00B405D
:104600000CB00B40A510FF1F20B0034020B00B40A2
:104610003D07FF1F24B0034024B00B40A410FF1F30
:10462000024A136801331360704700BF300CFF1F4C
:1046300008B5104C08E0236859050DD423681A0505
:104640000FD42368DB0411D423685803F3D5FEF795
:104650003BFD23685905F1D5FCF7CCFC23681A050E
:10466000EFD5FDF775F82368DB04EDD5FDF730FBDA
:10467000EAE700BF3480044008B5FFF7D9FF00BF68
:10468000014B10221A80704700200540704700BF80
:10469000EFF3138070B9EFF310836BB9EFF305827A
:1046A0005AB94FF48070EFF311832BB1984228BFB1
:1046B000184670474FF0FF3070470F2A01D8184650
:1046C000F1E7014BD05CEEE7F0E300E0084A137835
:1046D000802B01D0002070470649074B074808602F
:1046E000002119701378802BFCD00120704700BF87
:1046F00003E007404480044001E007400000282216
:10470000094A1378012B01D00020704703F1804340
:1047100003F5FC23602119701378802BFCD1034B27
:10472000034A1A600120704703E0074044800440B8
:104730000000060210B584B072B6FFF7C7FF184A32
:10474000184B19491160702280211A701A4619708D
:1047500013781B06FCD5154B1C68FFF7D1FF62B61A
:10476000134B9C429CBF04EB840464002046114C14
:1047700001A90A2200F020F801A92046002311F81F
:10478000012B01333AB10A2B20F8022FF7D116235F
:10479000237004B010BD5B00DBB2237004B010BD09
:1047A0000400024000000240000007410C000240EB
:1047B0007F969800CC07FF1FF0B44D1E2E460024B4
:1047C00000E00134B0FBF2F302FB1300092800F112
:1047D00030078ABF3730F8B2C0B206F8010F18466A
:1047E000002BEED10A1953704CB1107815F8016FF7
:1047F00028700133E01A834202F80169F5DB0846AC
:10480000F0BC704770B50F4E0F4D761BB61018BF39
:10481000002405D0013455F8043B9847A642F9D14D
:104820000A4E0B4D761B00F06FFBB61018BF00242C
:1048300006D0013455F8043B9847A642F9D170BD23
:1048400070BD00BF144F0000144F0000384F00002F
:10485000144F0000FFFFFFFFFFFFFFFFFFFFFFFF01
:10486000FFFFFFFFFFFFFFFFFFFFFFFFFFFFFFFF58
:10487000FFFFFFFFFFFFFFFFFFFFFFFFFFFFFFFF48
:1048800090F800F06DE9024520F007016FF0000C90
:1048900010F0070491F820F040F049804FF0000438
:1048A0006FF00700D1E9002391F840F000F1080013
:1048B00082FA4CF2A4FA8CF283FA4CF3A2FA8CF34B
:1048C0004BBBD1E9022382FA4CF200F10800A4FAB2
:1048D0008CF283FA4CF3A2FA8CF3E3B9D1E9042306
:1048E00082FA4CF200F10800A4FA8CF283FA4CF33D
:1048F000A2FA8CF37BB9D1E9062301F1200182FAF7
:104900004CF200F10800A4FA8CF283FA4CF3A2FAFC
:104910008CF3002BC6D0002A04BF04301A4612BA0A
:10492000B2FA82F2FDE8024500EBD2007047D1E90D
:10493000002304F00305C4F100004FEAC50514F09C
:10494000040F91F840F00CFA05F562EA05021CBF6D
:1049500063EA050362464FF00004A9E7024B13B176
:10496000024800F005B87047000000007D490000D3
:10497000002301461A46184600F014B838B5074D12
:10498000074C2C1BA41005D0013C55F8043D98475A
:10499000002CF9D1BDE8384000F0CEBA000000008C
:1049A000000000002DE9F047254C2568D5F8484166
:1049B0000646884692469946C4B360681F2817DCAD
:1049C000431C76B104EB80050122C5F888A0D4F819
:1049D000881182401143022EC4F88811C5F808914D
:1049E0001ED00230636044F820800020BDE8F087CC
:1049F000144B03B34FF4C870AFF300800446D0B13A
:104A0000D5F84831002780E88800C5F84841384685
:104A10000123C4F88871C4F88C71002EE1D0D1E76D
:104A2000D4F88C110A43C4F88C21DAE705F5A67492
:104A3000C5F84841C1E74FF0FF30BDE8F08700BF3F
:104A4000044F0000000000004008FE4340A0044066
:104A50004408FE4344A004400018FE4300C0044044
:104A60003000FE43309004403400FE433490044054
:104A70001C18FE431CC004401018FE4310C0044024
:104A80000818FE4308C004400C18FE430CC0044044
:104A90000C10FE430CB004401010FE4310B0044054
:104AA0001810FE4318B004401C10FE431CB0044014
:104AB0001410FE4314B004400418FE4304C0044024
:104AC0000010FE4300B004400008FE4300A0044074
:104AD0000408FE4304A004400C08FE430CA004405C
:104AE0000808FE4308A004401418FE4314C0044004
:104AF0001818FE4318C004400410FE4304B00440DC
:104B00000810FE4308B004406820FE4368D004400B
:104B10001400FE43149004403800FE4338900440D3
:104B20003C00FE433C9004404000FE434090044063
:104B30004808FE4348A004404C08FE434CA00440F3
:104B40002808FE4328A004402C08FE432CA0044063
:104B50006020FE4360D004406420FE4364D00440E3
:104B60002010FE4320B004402410FE4324B0044033
:104B70002810FE4328B004402C10FE432CB0044003
:104B80004400FE43449004407000FE437090044093
:104B90007400FE43749004406800FE436890044033
:104BA0005008FE4350A004405808FE4358A004405B
:104BB0005C08FE435CA004405408FE4354A004403B
:104BC0002018FE4320C004402418FE4324C00440A3
:104BD0001008FE4310A004401408FE4314A0044033
:104BE0003818FE4338C004403418FE4334C0044033
:104BF0003018FE4330C004403C18FE433CC0044023
:104C00002C18FE432CC004402820FE4328D004402A
:104C10002C20FE432CD004400020FE4300D0044052
:104C20000420FE4304D004400820FE4308D0044082
:104C30000C20FE430CD004401020FE4310D0044052
:104C40001420FE4314D004400000000000000000C7
:104C5000313D0000553D0000E93D0000E53D00000C
:104C6000E13D0000DD3D0000A93D0000BD3D00002C
:104C7000A53D00009D3D0000953D00008D3D0000DC
:104C80007D3D00006D3D0000693D0000653D000078
:104C9000053D00000D3D0000153D00001D3D0000DC
:104CA0003D3D0000253D0000000000000000000028
:104CB000193E00003D3E0000D13E0000CD3E000008
:104CC000C93E0000C53E0000913E0000A53E000028
:104CD0008D3E0000853E00007D3E0000753E0000D8
:104CE000653E0000553E0000513E00004D3E000074
:104CF000F53E0000153F0000353F0000D53E0000A6
:104D0000253E00000D3E00000000000000000000F5
:104D1000813F0000A53F0000394000003540000001
:104D2000314000002D400000F93F00000D40000020
:104D3000F53F0000ED3F0000E53F0000DD3F0000D3
:104D4000CD3F0000BD3F0000B93F0000B53F00006F
:104D50005D4000007D4000009D4000003D4000009F
:104D60008D3F0000753F00000000000000000000C3
:104D7000E94000000D410000A14100009D410000FC
:104D8000994100009541000061410000754100001B
:104D90005D410000554100004D41000045410000CB
:104DA0003541000025410000214100001D41000067
:104DB000C5410000E541000005420000A54100009A
:104DC000F5400000DD400000000000000000000091
:104DD00051420000754200000943000005430000F5
:104DE00001430000FD420000C9420000DD42000016
:104DF000C5420000BD420000B5420000AD420000C7
:104E00009D4200008D420000894200008542000062
:104E10002D4300004D4300006D4300000D43000092
:104E20005D4200004542000000000000000000005C
:104E3000B9430000DD430000594400005544000020
:104E4000514400004D44000031440000394400004A
:104E50002D440000254400001D44000015440000BE
:104E600005440000F5430000F1430000ED4300005D
:104E70007D4400009D440000BD4400005D440000EE
:104E8000C5430000AD43000000000000000000002A
:104E900019450000114500000D45000009450000BE
:104EA0000545000001450000FD44000000151915EE
:104EB000000100004007FF1F120000000002000078
:104EC0006C07FF1F4300000000030000C807FF1F1E
:104ED00000000000010309045407FF1F0000000048
:104EE00002030904B007FF1F0000000003030904C8
:104EF000CC07FF1F000000000000000000000000C1
:104F000000000000E807FF1FF8B500BFF8BC08BCB0
:104F10009E4670475D49000035040000F13D0000E9
:104F2000593F0000C14000002942000091430000A9
:084F3000E144000025450000EA
:044F3800F8B500BF09
:104F3C0001090A081F202130FFFFFFFF0A040000AF
:104F4C001201010102000040C0168304000201029C
:104F5C000301000018035400650065006E00730027
:104F6C0079006400750069006E006F00090243004F
:104F7C00020100C0320904000001020201000524F4
:104F8C000010010524010101042402060524060079
:104F9C00010705820310004009040100020A000009
:104FAC0000070503024000000705840240000000D2
:104FBC001603550053004200200053006500720098
:104FCC00690061006C000000040309040C0300007C
:104FDC0000000000000000000000000000000000C5
:104FEC00000000000000000000000000D40AFF1FB9
:104FFC003C0BFF1FA40BFF1F000000000000000073
:10500C000000000000000000000000000000000094
:10501C000000000000000000000000000000000084
:10502C000000000000000000000000000000000074
:10503C000000000000000000000000000000000064
:10504C000000000000000000000000000000000054
:10505C000000000000000000000000000000000044
:10506C000000000000000000000000000000000034
:10507C000000000000000000000000000000000024
:10508C000000000000000000000000000000000014
:10509C0001000000000000000E33CDAB34126DE6B1
:1050AC00ECDE05000B00000000000000000000001A
:1050BC0000000000000000000000000000000000E4
:1050CC0000000000000000000000000000000000D4
:1050DC0000000000000000000000000000000000C4
:1050EC0000000000000000000000000000000000B4
:00000001FF
